:1000000067C000000DC100008AC0000088C0000069
:1000100086C000000BC10000A2C2000080C000002A
:100020007EC0000088C000007AC0000078C00000D8
:1000300076C0000074C0000072C0000070C00000F4
:1000400094C200006CC00000C5C3000068C000007E
:100050009AC3000064C0000062C0000060C00000DD
:100060000C947D185CC0000008000000BE9224497A
:10007000123EABAAAA2ABECDCCCC4C3E00000080DA
:10008000BEABAAAAAA3E00000000BF000000803F4D
:100090000000000000084178D3BB4387D1133D190D
:1000A0000E3CC3BD4282AD2B3E68EC8276BED98F3A
:1000B000E1A93E4C80EFFFBE01C4FF7F3F0000007E
:1000C00000006E6F743336350D0A00000D02B10A60
:1000D00011241FBECFEFD8E0DEBFCDBF11E0A0E0FE
:1000E000B1E0E6E3F1E402C005900D92AA32B10757
:1000F000D9F724E0AAE2B1E001C01D92AB3FB207FC
:10010000E1F710E0C8E6D0E004C02197FE010E94AC
:100110009919C636D107C9F7ECD00C948F2070CF4F
:10012000789483E08093B00084E08093B10081E014
:100130008093700008951F921FB61F9211248F9311
:100140009F93AF93BF938091C2039091C303A091FB
:10015000C403B091C5030196A11DB11D8093C203D4
:100160009093C303A093C403B093C5038091C103CC
:100170009DE2980F9D37E8F49093C1038091C603E8
:100180009091C703A091C803B091C9030196A11D26
:10019000B11D8093C6039093C703A093C803B09387
:1001A000C903BF91AF919F918F911F901FBE1F9068
:1001B000189580558093C1038091C2039091C30329
:1001C000A091C403B091C5030196A11DB11D8093F8
:1001D000C2039093C303A093C403B093C503CECFCF
:1001E000CF93DF9300D000D0CDB7DEB78FB7F894B0
:1001F0002091C2033091C3034091C4035091C503C1
:1002000029833A834B835C838FBF69817A818B8199
:100210009C810F900F900F900F90DF91CF910895D8
:100220008F9381E0809336018F9118951F920F92E2
:100230000FB60F9211242F933F934F935F936F93B9
:100240007F938F939F93AF93BF93EF93FF93C8DFF9
:10025000462F572FBC0140932A0150932B016093E6
:100260002C0170932D01FF91EF91BF91AF919F9160
:100270008F917F916F915F914F913F912F910F904F
:100280000FBE0F901F90189561E08EEB93E0FAD1AE
:1002900062EC70E086E091E0CAD061E087E391E033
:1002A0000E94F30960E08EEB93E0ECC161E08EEB1D
:1002B00093E0E8D162EC70E086E091E0B8D060E0D5
:1002C00087E391E00E94F30960E08EEB93E0DAC1EE
:1002D00083E08093690081E08DBB0895EDE6F0E056
:1002E000808181608083E8E6F0E0808184608083A3
:1002F000089510922E0110922F0110923001109249
:10030000310110922A0110922B0110922C011092AF
:100310002D011092360114BE8FD16FEF7FEF86E072
:1003200091E097D062EC70E086E091E080D0F8DE5A
:10033000CFDFD4DF66E086E091E09BD088E06AD131
:1003400087E391E020D64CDF609332017093330154
:10035000809334019093350180913601882319F000
:1003600093DF1092360140912E0150912F01609140
:100370003001709131018091320190913301A0914F
:100380003401B0913501841B950BA60BB70B803D52
:100390009740A105B105A8F080912E0190912F0101
:1003A000A0913001B09131018053984FAF4FBF4FB2
:1003B00080932E0190932F01A0933001B0933101CF
:1003C00075DF40912A0150912B0160912C017091B1
:1003D0002D018091320190913301A0913401B091AF
:1003E0003501841B950BA60BB70B88399A43A105E1
:1003F000B10588F062E870E086E091E02AD087E9F4
:100400009AE30197F1F700C0000066E086E091E012
:1004100095D01ED198CF4ADFFCCF22E040E263E2C4
:1004200070E08EEB93E016D187E391E05FC6909188
:100430006400862F809589238093640060FF08C044
:1004400080917A00806880937A0080B78F7780BF30
:10045000089560FF08C080917A008F7780937A00BA
:1004600080B7806880BF80916400682B60936400CF
:100470000895FC0164830895FC0181E081838481F7
:100480008D7F41F080917A008F7780937A0080B7DA
:10049000806880BF0895FC018091640080FD08C0E1
:1004A00080917A00806880937A0080B78F7780BFD0
:1004B0001182089524E0629FC00111248072677048
:1004C000862B886098E10FB6F894A8959093600009
:1004D0000FBE80936000E0E6F0E08081806480835E
:1004E000A8950895CF93DF93EC016A3008F4E2DF1A
:1004F00083B7817F9C81892B83BF83B7816083BF52
:100500008B818823A1F0789488950FB6F894A895EC
:1005100080916000886180936000109260000FBE3F
:10052000A89583B78E7F83BFDF91CF910895F8940C
:1005300085B7806685BF8F7D85BFE5CF1F93CF933D
:10054000DF93D82FC92F162F97DF612F8D2F9C2F68
:10055000C9DF8D2F9C2FDF91CF911F919CCF8F935F
:1005600081E08093CA038F9118951F921FB61F9246
:1005700011248F939F93AF93BF938091CC0390915D
:10058000CD03A091CE03B091CF030196A11DB11D63
:100590008093CC039093CD03A093CE03B093CF036D
:1005A0008091CB039DE2980F9D37E8F49093CB03A5
:1005B0008091D0039091D103A091D203B091D30345
:1005C0000196A11DB11D8093D0039093D103A093F8
:1005D000D203B093D303BF91AF919F918F911F909E
:1005E0001FBE1F90189580558093CB038091CC033C
:1005F0009091CD03A091CE03B091CF030196A11DA0
:10060000B11D8093CC039093CD03A093CE03B09300
:10061000CF03CECF94E0899F900111242072877080
:10062000282B286088E10FB6F894A8958093600085
:100630000FBE2093600008950FB6F894A89580919E
:100640006000886180936000109260000FBE089582
:10065000A8950895DC01FB0111967C936E93129688
:100660004C939181842F809589238183223021F4BA
:100670008181482B41830895213019F48281482BD0
:1006800042830895FC01A081B181928112968C91E0
:100690001297662329F0982B12969C93CF01089508
:1006A00090959823F9CF909164049738B8F590917C
:1006B00064049F5F292F30E02F5F3F4F4091630418
:1006C00042171306D9F320916304291741F0E091F2
:1006D0006404F0E0EB59FB4F8083909364049091A5
:1006E000C00095FFFCCF209164049091630429170A
:1006F00089F0E0916304F0E0EB59FB4F2081909189
:1007000063049F5F90936304983810F01092630421
:100710002093C600082E000C990B089590E0CACFD4
:100720002091D7033091D803820F931F8838910509
:1007300010F0885891099927FC01E552FC4F8081FF
:1007400008952091D7033091D803280F391F309393
:10075000D8032093D7038091D7039091D80388388A
:10076000910550F08091D7039091D8038858910952
:100770009093D8038093D7031092D6038091D70328
:100780009091D80308951F921FB61F9211248F9342
:100790009F93EF93FF939091640480916304981763
:1007A00089F0E0916304F0E0EB59FB4F9081809178
:1007B00063048F5F80936304883810F010926304A1
:1007C0009093C600FF91EF919F918F911F901FBE54
:1007D0001F9018951F921FB61F9211242F933F93BD
:1007E0008F939F93EF93FF938091C00082FF0CC083
:1007F0008091C600FF91EF919F918F913F912F9132
:100800001F901FBE1F9018958091C6009091D6032F
:100810009111F0CFE091D903F091DA03E552FC4F4A
:1008200080838091D9039091DA0301969093DA0343
:100830008093D9038091D9039091DA038838910588
:1008400050F08091D9039091DA03885891099093E0
:10085000DA038093D9032091D9033091DA03809190
:10086000D7039091D8032817390721F681E08093A8
:10087000D603C0CF9C01CA01F901E95FFE4F408158
:1008800051818417950710F491838083F901E75F04
:10089000FE4F408151814817590710F4918380839E
:1008A0006A3058F4E62FF0E0EF56FF4D0C9499199A
:1008B0002F573F4FF9019183808308952D573F4F64
:1008C000F9CF2B573F4FF6CF29573F4FF3CF27573D
:1008D0003F4FF0CF25573F4FEDCF23573F4FEACF44
:1008E00021573F4FE7CF2F563F4FE4CF2D563F4F75
:1008F000E1CFFC01DC0111968F5F9E4F1D921D928E
:100900008A179B07D9F767A770AB41AB52ABDF01E2
:10091000AF5BBF4F2C9311963C93119783E39AE4FE
:1009200092A381A38FE59EE494A383A38FE494E52F
:1009300096A385A383E396E390A787A385E39FE52A
:1009400092A781A782E49DE494A783A783E591E31E
:1009500096A785A7AE5ABF4F88EB9BE011969C9354
:100960008E93129711969C938E93129711969C9347
:100970008E93129711969C938E93129711969C9337
:100980008E93129711969C938E93129711969C9327
:100990008E93129711969C938E93129711969C9317
:1009A0008E93129711969C938E93909781E090E08E
:1009B00011969C938E931A968EE29FE211969C93C9
:1009C0008E931C9684E690E011969C938E93A45788
:1009D000BF4F80EF9AE011969C938E93129622E778
:1009E00030E111963C932E93129611963C932E93E0
:1009F00012968D939C9310821092DA031092D90371
:100A00001092D8031092D7031092D6031092640468
:100A1000109263041092C5008CE08093C40082E0C1
:100A20008093C00088ED8093C10086E08093C2006F
:100A3000789482EC90E09F938F938091D5038F936D
:100A40008091D4038F930E94741C0F900F900F908D
:100A50000F9008952F923F924F925F926F927F92E4
:100A60008F929F92AF92BF92CF92DF92EF92FF92BE
:100A70000F931F93CF93DF938C01362E7A01EC01F5
:100A8000CF5FDE4F19821882862E912C5A01B694C0
:100A9000A7943501680C791C8614970438F5F40185
:100AA000EF77FF27EE0FFF1FE00FF11F2F018FEFF2
:100AB000481A580A218070E060E0822DF4DD8881B8
:100AC0009981820D911D99838883F201C180D12C77
:100AD00070E060E08C2DE7DD888199818C0D9D1D93
:100AE00099838883FFEF8F1A9F0AD6CFE0FE16C046
:100AF00061E0630DA60EE894A7F8B12CAA0CBB1C0C
:100B00000A0D1B1DF801118170E060E0812FCBDD23
:100B100088819981810F911D99838883888199812A
:100B2000DF91CF911F910F91FF90EF90DF90CF90C9
:100B3000BF90AF909F908F907F906F905F904F90FD
:100B40003F902F900895FF920F931F93CF93DF93C1
:100B50008C01EC01CF5FDE4F19821882613009F001
:100B600063C070E060E085E59EDD70E060E08AEAE9
:100B70009ADD86E090E0D4DD92E0F92EF80E70E088
:100B800060E08F2D90DD888199818F0D911D998373
:100B9000888370E060E085E286DD888199818596B2
:100BA0009983888370E060E081E07DDD88819981B0
:100BB00001969983888385E090E0B2DDF82E70E09D
:100BC00060E071DD888199818F0D911D9983888303
:100BD00086E090E0A5DDF82E85E090E0A1DD682FAD
:100BE0004F2D50E0C80136DF28813981820F931FD5
:100BF000809590959983888370E060E054DD70E083
:100C000060E0898150DDF801E95FFE4FD801AB5FFC
:100C1000BE4F8D919C911197918380831496349748
:100C2000808191818D939C93DF91CF911F910F9142
:100C3000FF900895AF92BF92CF92DF92EF92FF9212
:100C40000F931F93CF93DF9300D000D000D0CDB788
:100C5000DEB78D839E83ED81FE81E95FFE4F2081AB
:100C60003181ED81FE81EF59FF4F80819181AD810E
:100C7000BE81AD5FBE4F4D915C914217530708F4A2
:100C8000D2C091609183808380819181AD81BE814A
:100C9000A75FBE4F6D917C91AD81BE81AB5FBE4FB2
:100CA0004D915C916417750708F4BFC09260918301
:100CB000808380819181AD81BE814C91442309F470
:100CC000B6C08E7F9183808360E0293BBBE03B0709
:100CD00040F1285B3B40C901B0E0A0E089839A83E2
:100CE000AB83BC83B901CD010E94C21A2FE73AE65B
:100CF0004CEB5DE369837A838B839C8369817A8182
:100D00008B819C810E94951B69837A838B839C8352
:100D100069817A818B819C810E94961A653608F0E0
:100D200064E6262F30E0ED81FE81EB59FF4F3183E1
:100D30002083ED81FE81A1A9B2A90E949F19698338
:100D40007A838B839C8324E630E040E050E00E946D
:100D50005B19ED81FE81ED59FF4F31832083F894BB
:100D60000091D9031091DA038091D7039091D803B1
:100D7000081B190B789417FF02C008571F4F80916A
:100D8000D603882329F00115110511F408E810E0B5
:100D9000ED80FE80F1E0EF0EFF1ED7011D921C9248
:100DA000CD80DE80B5EFCB1ABEEFDB0A82E090E0AB
:100DB000F601918380830830110508F489C090E022
:100DC00080E0AEDC8535A9F582E090E0A9DC8238D0
:100DD00008F047C082E090E0A3DC90E0D6018D935C
:100DE0009C93D601AD90BC90C501069608171907D3
:100DF00008F46EC0F70111821082F3E0AF0EB11C4F
:100E000082E0A816B10498F1C5018ADCD7012D91C2
:100E10003C911197820F932F911D8D939C93B1E07C
:100E2000AB1AB108EDCF9E7F2DCF9D7F40CF816063
:100E300049CF81E090E074DC8A3A31F281E090E0C1
:100E400026960FB6F894DEBF0FBECDBFDF91CF91CF
:100E50001F910F91FF90EF90DF90CF90BF90AF90D8
:100E600070CC82E090E0F60191838083BACFF701E5
:100E7000808191818095909591838083D6018D9119
:100E80009C9104964DDCF701208131813327821734
:100E9000130611F0C801D4CFD6018D919C9105960F
:100EA0003FDCF701218130E08217130699F783E0D8
:100EB00090E036DC823271F784E090E031DC682F1C
:100EC0008D819E8140DED6018D919C910696B8CF92
:100ED00026960FB6F894DEBF0FBECDBFDF91CF913F
:100EE0001F910F91FF90EF90DF90CF90BF90AF9048
:100EF0000895FC01EF59FF4F8081918121E030E09E
:100F000002C0220F331F6A95E2F7442329F0282BF1
:100F1000392B318320830895209530952823392358
:100F2000F8CF0F931F93CF93DF93EC018C010E5EEC
:100F30001E4F2E853F854A855B856C857D85C80162
:100F400050D72A8D3B8D4E895F89688D798DC80178
:100F500053D42C893D89488959896A897B89C8017C
:100F6000A8D74AA15BA168A179A1C8010E949D11DF
:100F70004E8D5F8D6C8D7D8DC801DF91CF911F915E
:100F80000F910C942F120F931F93CF93DF938C012B
:100F9000EC01CE5EDE4FCE010E940110CE010E9418
:100FA0005E1864E670E0CE01FFD260E470E0CE012E
:100FB0000E945C10C801B5DFF801818160E470E037
:100FC000882351F0CE010E949310CE01DF91CF9182
:100FD0001F910F910C947C18CE010E948311F5CFC4
:100FE000FC0181E08083818397E094A748EE53E081
:100FF00060E070E045A756A767A770ABDF01A65A6F
:10100000BF4F2BE63DE011963C932E93129611961E
:101010003C932E9312962D933C9320E13EE0378330
:10102000268344E550E15187408740E45EE765E070
:1010300070E0428353836483758344E650E060E04C
:1010400070E047AB50AF61AF72AF15A214A244EF8E
:1010500051E057A346A348E35FEF51A740A74AE8F2
:1010600052E053A742A781AB82AB34AB23AB8AE0FB
:1010700083AF88E097E096AB85AB8CE795E1A0E085
:10108000B0E0868B978BA08FB18F88EB9BE0938F1E
:10109000828F80E898E3A1E0B0E082879387A487FD
:1010A000B58788EC90E09787868780E49CE9A0E08C
:1010B000B0E0808B918BA28BB38B80ED97E0958B0A
:1010C000848B88E690E1958F848F82E090E0978F03
:1010D000868F22E23BE031A320A393A382A3FC9658
:1010E0008EE1DF011D928A95E9F70895CF93DF9392
:1010F000EC019C0129563F4FAC014B595F4FBC019D
:101100008E5E9E4F43D22AE23AE248EC59E166E114
:1011100071E0CE018A5C9E4FECDBFE01ED5BFD4F82
:1011200010821182128213823496108211821282EE
:10113000138234961082118212821382FB961082DF
:10114000CE014EDFFE01E15BFD4FDE01A656BF4F33
:101150008D919C91119791838083329612968D91F7
:101160009C9191838083CD5ADD4F8FEF8883DF91EF
:10117000CF9108950F931F93CF93DF93EC018C01D0
:10118000060F171F80E0C017D10719F06991F4D13D
:10119000FACFDF91CF911F910F9108950F931F9375
:1011A000CF93DF93EC01FC01E35FFE4F80913201AE
:1011B00090913301A0913401B091350180839183E6
:1011C000A283B3838E0109561F4F6AE770E0C801FE
:1011D000D1DFCF5EDE4F88834BE750E060E070E008
:1011E000C801DF91CF911F910F910C944120CF93B3
:1011F000DF939C01DC0180E08617E1F08F5FE82F30
:10120000F0E0EE0FFF1FE20FF31F982F961302C0BE
:101210001296F2CF4D915C911197C081D181C41784
:10122000D50728F41196DC93CE93518340839F5FBA
:101230003296ECCFDF91CF910895AF92BF92CF92CB
:10124000DF92EF92FF920F931F93CF93DF93EC0106
:101250008C010C5A1D4F6C014EE8C41A4DEFD40A94
:10126000F80111921192EC15FD05D9F776015E0196
:101270008AE7A81A8DEFB80AF60111921192EA15C1
:10128000FB05D9F7D5011C92DE01AF53BF4F9E017C
:1012900021523F4F8D919D918130E1E09E0778F082
:1012A000F501508141E0450F4083E52FF0E0E65D18
:1012B000FE4FEE0FFF1FEC0FFD1F91838083A217DF
:1012C000B30741F7D5016C91C80191DFF501808129
:1012D0008B30A8F1FE01EC57FD4F9E01225A3D4F85
:1012E00090E0880F991FC297D8014D915D918D01B3
:1012F0005D965C934E935C97DF01A80FB91F4D91EB
:101300005C915183408332970217130769F710E00D
:10131000CA5CDE4FF701419151917F01612FCE01EF
:10132000A9DA1F5F1A30B1F7DF91CF911F910F91AA
:10133000FF90EF90DF90CF90BF90AF9008958A30EC
:1013400009F442C0F80120E050E040E0821731F09B
:1013500061917191460F571F2F5FF8CF622F70E098
:10136000CA010E944719F60161937193EA15FB05C2
:10137000D9F7822F869590E0891741F0F8014191C5
:1013800051918F01558F448F9F5FF6CF8FEF820F62
:10139000A82FB0E0A55DBE4FAA0FBB1FAC0FBD1FAD
:1013A0004AE0421BE42FE80F981708F0B0CF3E91B7
:1013B0002E91F0E0E75CFE4FEE0FFF1FEC0FFD1FDC
:1013C000318320838150EECFCE0188599D4FD801C3
:1013D0002D913D918D015D963C932E935C97A817BE
:1013E000B907A9F794CFCF92DF92EF92FF920F93B4
:1013F0001F93CF93DF9300D000D000D0CDB7DEB7DE
:101400006C01FC01EB59FF4F608380913201909198
:101410003301A0913401B091350176010AECE01A54
:101420000EEFF00AE252FE4F4081518162817381DA
:101430008C019D01041B150B260B370BB901A8016C
:101440004A3F51056105710508F47BC08083918393
:10145000A283B383C6018E5E9E4F0E945E18182F32
:10146000C601EBDEF601E759FF4F80819181A28131
:10147000B38189839A83AB83BC83BC01CD0124E60D
:1014800030E040E050E00E945B19F601E156FE4F6B
:101490003183208312FB442740F969E0C70129DD2D
:1014A00013FB442740F968E0C70123DDF601E65647
:1014B000FF4F80819181EB54FE4F20813181821753
:1014C000930721F091838083C60168DEF601E4561C
:1014D000FF4F80819181EB54FE4F20813181821733
:1014E000930721F091838083C60158DE4091320139
:1014F0005091330160913401709135019601295B5F
:101500003D4FF90180819181A281B381481759072C
:101510006A077B0780F4F5EBCF1AFDEFDF0AF601CF
:1015200080819181A281B3810196A11DB11D80832B
:101530009183A283B383D9014D935D936D937C9383
:101540001397C70126960FB6F894DEBF0FBECDBF26
:10155000DF91CF911F910F91FF90EF90DF90CF908F
:1015600069CB70E060E083E593E00E942B1C9093D0
:10157000D5038093D4030895862798E027E0382F79
:10158000880F37FD82279150D1F70895FC017183B0
:10159000608353834283358324831686178613869C
:1015A00012861586148608956F927F928F929F926D
:1015B000AF92BF92CF92DF92EF92FF920F931F9361
:1015C000CF93DF93CDB7DEB72E970FB6F894DEBF7B
:1015D0000FBECDBF3C01DB016536710560F5FC0136
:1015E00080819181FC0122813381448155810E9457
:1015F000BE1924E630E040E050E00E947D19D3019E
:101600005B962D933D934D935C935E972E960FB60C
:10161000F894DEBF0FBECDBFDF91CF911F910F9128
:10162000FF90EF90DF90CF90BF90AF909F908F9002
:101630007F906F900895DC011296ED91FC912381CB
:1016400030E050E040E084819581A681B7818983B4
:101650009A83AB83BC83BC01CD010E945B19C90195
:10166000D3015B961D921D921D921C925E9750961F
:101670008D909C90F40110E000E0A190B1908A154B
:101680009B0508F4B2C0D301ED91FC918281938156
:10169000A481B5818D839E83AF83B8870115110521
:1016A00031F4F301838F948FA58FB68FAFCFC9012B
:1016B000B0E0A0E089839A83AB83BC83B901CD01FC
:1016C0000E94C21A6B017C01950150E040E0298321
:1016D0003A834B835C83CA01B5010E94C21A9B0105
:1016E000AC01C982DA82EB82FC8269817A818B81CA
:1016F0009C810E94C4196B017C01F801E150F04803
:10170000EE0FFF1FE80DF91D808191818A199B0959
:101710009C0150E040E029833A834B835C83CA01FB
:10172000B9010E94C21A9B01AC01C982DA82EB8224
:10173000FC8269817A818B819C810E94291A6B01CC
:101740007C01C801110FAA0BBB0B89839A83AB8361
:10175000BC83BC01CD010E94C41A9B01AC0160E0B6
:1017600070E080EA91E40E94C4199B01AC01C98237
:10177000DA82EB82FC8269817A818B819C810E9472
:10178000C5197B018C016D817E818F8198850E94B6
:10179000C41A20E030E040EA51E469837A838B8305
:1017A0009C8369817A818B819C810E94291A9B018B
:1017B000AC01E982FA820B831C8369817A818B8177
:1017C0009C810E94951B69837A838B839C836981AA
:1017D0007A818B819C810E94911AD3015B966D93D3
:1017E0007D938D939C935E9711CF0F5F1F4F0531B3
:1017F000110509F042CF0ACFFC01972F752F862FD4
:101800000190F081E02D468B578B608F918F338F45
:10181000228F642F0895FC01A081B1819C964C9188
:1018200050E030E020E08FEF9FE7BA01022E02C0C7
:10183000759567950A94E2F760FF0FC0A481B581A2
:10184000B9016C5D7F4F660F771FA60FB71F6D91B3
:101850007C91681779070CF4CB012F5F3F4F233041
:10186000310519F70895FC01A081B1819C964C9136
:1018700050E030E020E080E090E8BA01022E02C0A3
:10188000759567950A94E2F760FF0FC0A481B58152
:10189000B9016C5D7F4F660F771FA60FB71F6D9163
:1018A0007C91861797070CF4CB012F5F3F4F2330B5
:1018B000310519F70895AF92BF92CF92DF92EF9260
:1018C000FF920F931F93CF93DF9300D000D000D0EF
:1018D000CDB7DEB76D837E839C0150E040E0298365
:1018E0003A834B835C83CA01B9010E94C21A21E882
:1018F00035E943EC5EE369837A838B839C8369815A
:101900007A818B819C810E94951B69837A838B836A
:101910009C8369817A818B819C810E94961A69835C
:101920007A838B839C83A981BA81CD01B0E0A0E04A
:1019300089839A83AB83BC83BC01CD010E94C21A08
:101940007B018C0120E030E44CE156E46983FA82AB
:101950008B831C8369817A818B819C810E94951B7A
:101960005B016C019701A80160E070E48EE495E4EE
:101970000E94C4199B01AC01A982BA82CB82DC828D
:1019800069817A818B819C810E94291A69837A837B
:101990008B839C8369817A818B819C810E94961ABA
:1019A0000E94C21A20E030E44CE156E469837A8355
:1019B0008B839C8369817A818B819C810E94291A07
:1019C00069837A838B839C8369817A818B819C81F3
:1019D0000E94551B7B018C014D815E819A0150E074
:1019E00040E029833A834B835C83CA01B9010E949A
:1019F000C21A9B01AC0160E070E080E89FE30E94A6
:101A0000291A9701A80169837A838B839C83698152
:101A10007A818B819C810E94951B2FE03FEC4BE5E6
:101A20005BE369837A838B839C8369817A818B8171
:101A30009C810E94C5199B01AC0160E070E080E8C8
:101A40009FE30E94291A23E333E948E853E46983BA
:101A50007A838B839C8369817A818B819C810E94AC
:101A6000C41920E030E040E251E469837A838B833B
:101A70009C8369817A818B819C810E94951B6983FB
:101A80007A838B839C8369817A818B819C810E947C
:101A9000911ACB0126960FB6F894DEBF0FBECDBFCC
:101AA000DF91CF911F910F91FF90EF90DF90CF903A
:101AB000BF90AF900895EF92FF920F931F93CF9333
:101AC000DF930F92CDB7DEB78C01E62EF42ECE0158
:101AD00001960E940019F801E682F78260E180E039
:101AE0004BDD6E2D49DD6F2D47DDF8018087A801A4
:101AF0004A5F5F4F23E068E0CE0101960E9415190E
:101B0000CE0101960E940F190F90DF91CF911F9186
:101B10000F91FF90EF9008952F923F924F925F9216
:101B20006F927F928F929F92AF92BF92CF92DF92ED
:101B3000EF92FF920F931F93CF93DF93CDB7DEB752
:101B400029970FB6F894DEBF0FBECDBF8C01DC0124
:101B5000CD90DC9011971296AD90BC901397F60142
:101B600082A9882309F41FC193968C9193978111C0
:101B70001AC11496ED90FC9081A9882329F0D50113
:101B800012968C91823041F1F60145A856A8712C2D
:101B9000612C2091320130913301409134015091F8
:101BA0003501F70181859285A385B485281B390B02
:101BB0004A0B5B0B2E833F8348875987CA01B901C3
:101BC00028EE33E040E050E00E945B192415350513
:101BD000460557050CF4E7C0D7011796EC91179707
:101BE000F0E07596EE0FFF1FEE0DFF1D2081318195
:101BF000F60183A994A98217930708F0D4C0189618
:101C00008C9190E04596880F991FE80EF91ED70138
:101C10008D919C91281B390B83AD8217130608F018
:101C2000C2C0F501108A118A128A138A512CF12C34
:101C3000E12C9AE2A92EB12C9E012F5F3F4F690142
:101C4000F801A481B5814D018A0C9B1C712C612C7B
:101C5000F401619171914F01643FF1E07F07E8F178
:101C60001896EC911897F0E07596EE0FFF1FEA0FAB
:101C7000FB1F808191819B01281B390BC901F80151
:101C800020813181F90123AD2817190630F5862D01
:101C900090E09601280F391F0097D1F01C01F1E068
:101CA0002F1A3108F9014290AF01F701E40DF11D3F
:101CB0007596EE0FFF1FEA0FFB1F0190F081E02DDC
:101CC000E617F70728F4F90140829A01C101E4CF31
:101CD0008C0D9D1DFC01708263947394F5E07F125E
:101CE000B7CFF60150E040E08E2F8C198615E0F456
:101CF000819121E030E002C0220F331F8A95E2F784
:101D0000C901842B952BBC01660F771F64237523B3
:101D10009A01220F331F28233923262B372B232BFD
:101D200009F0CA01AC01E0CFD8011296ED91FC9107
:101D30003A010E2C02C0660C771C0A94E2F7912C33
:101D4000812C80899189A289B38986299729A8291C
:101D5000B929808B918BA28BB38B5394652DC801CD
:101D6000AADEBAE0AB0EB11CE5E0EE0EF11CF3E02A
:101D70005F1266CF29960FB6F894DEBF0FBECDBFB7
:101D8000DF91CF911F910F91FF90EF90DF90CF9057
:101D9000BF90AF909F908F907F906F905F904F908B
:101DA0003F902F900895F50180899189A289B38988
:101DB000892B8A2B8B2BF1F240E061E0C8017BDE9E
:101DC00040E062E0C80177DE40E063E0C80173DE16
:101DD000D8011296ED91FC91108A118A128A138A09
:101DE000C9CFCF92DF92EF92FF920F931F93CF93C1
:101DF000DF9300D000D00F92CDB7DEB78C01942FC7
:101E0000852FAB01D801ED91FC9192878387648780
:101E10005587378726871D82C5A4D6A4E7A4F0A8D6
:101E2000292F382FC701B6010E94381969837A8398
:101E30008B839C8320E432E44FE050E00E945B19E6
:101E4000EAE2F1E087E09291291780F187708D83B3
:101E50008D8188618D83482F66E0C8012CDEAD81BD
:101E6000A770EA2FF0E0EE5DFE4FA081B0E020E425
:101E700032E44FE050E00E94B419D801ED91FC919A
:101E800025A536A547A550A90E945B19CA01B9012D
:101E90000F900F900F900F900F90DF91CF911F91A7
:101EA0000F91FF90EF90DF90CF900895815059F6F9
:101EB000CFCFCF92DF92EF92FF920F931F93CF93EA
:101EC000DF9300D000D00F92CDB7DEB78C01942FF6
:101ED000852FAB01D801ED91FC91908B818B628BAA
:101EE000538B358B248B1D82C5A4D6A4E7A4F0A800
:101EF000292F382FC701B6010E94381969837A83C8
:101F00008B839C8320E432E44FE050E00E945B1915
:101F1000E2E2F1E08FE09291291798F18F709D81B4
:101F2000907F982B9D83AD81A067AD834A2F67E09A
:101F3000C801C1DDBD81BF70EB2FF0E0EE5EFE4F4A
:101F4000A081B0E020E432E44FE050E00E94B419F8
:101F5000D801ED91FC9125A536A547A550A90E9471
:101F60005B19CA01B9010F900F900F900F900F905D
:101F7000DF91CF911F910F91FF90EF90DF90CF9065
:101F80000895815041F6CFCFCF92DF92FF920F9309
:101F90001F93CF93DF930F92CDB7DEB78C01F62E50
:101FA000CE0101960E940019F801F6826801F6E060
:101FB000CF0ED11C21E0A60168E0CE0101960E945F
:101FC000151922E0A60168E0CE0101960E942619AB
:101FD000F801F68061E180E0CFDA6F2DCDDAF8010B
:101FE00097819813EECFCE0101960E940F198F2D85
:101FF0000F90DF91CF911F910F91FF90DF90CF90C5
:1020000008951F93CF93DF93EC01EA81FB8182E374
:10201000DF011D928A95E9F7EA81FB8181E08083E7
:1020200049E16BE0CE0147DD6BE0CE01ADDF8931E8
:1020300051F0BFED23E984E0B15020408040E1F74A
:1020400000C00000EDCF48E164E0CE0134DD40E4A3
:1020500065E0CE0130DD40E061E0CE012CDD40E006
:1020600062E0CE0128DD40E063E0CE0124DD61E5E1
:10207000CE018ADFEC81FD81828360E5CE0184DFC1
:10208000182F69E5CE0180DFEC81FD81212F30E042
:10209000220F331F2871332790E045E095958795EF
:1020A0004A95E1F7282B392B23593E4F3183208362
:1020B000DF91CF911F910895CF93DF93EC0160954D
:1020C00070958A859B85682379237B876A878E85AF
:1020D00081110CC0672B51F465E0CE0155DF482F0C
:1020E000416065E0CE01E7DC81E08E87DF91CF9132
:1020F0000895CF93DF93EC018A859B85682B792B1C
:102100007B876A878E85882359F0672B49F065E0C5
:10211000CE013ADF482F4E7F65E0CE01CCDC1E8633
:10212000DF91CF910895CF93DF93EC016095709587
:102130008C859D85682379237D876C878F858111A8
:102140000CC0672B51F465E0CE011EDF482F4260C2
:1021500065E0CE01B0DC81E08F87DF91CF910895FB
:10216000CF93DF93EC018BA185FF28C0EC81FD812B
:10217000E25BFF4F8091320190913301A0913401D5
:10218000B09135014081518162817381841B950B2F
:10219000A60BB70B893B9B40A105B10578F040E247
:1021A00060E0CE0188DC61E070E0CE0185DF61E0B7
:1021B00070E0CE01B8DF8BA18F7D8BA38BA184FF54
:1021C0000FC040E160E0CE0176DC62E070E0CE015D
:1021D00073DF62E070E0CE01A6DF8BA18F7E8BA360
:1021E0008BA183FF1EC0EC81FD81808590E0459628
:1021F000880F991FE80FF91FA881B98120813181CB
:1022000090968D919C918217930758F448E060E076
:10221000CE0151DC64E070E0CE0185DF8BA1877FC9
:102220008BA38BA182FF1EC0EC81FD81878190E092
:102230004596880F991FE80FF91FA881B981208161
:1022400031815C968D919C912817390758F444E0B0
:1022500060E0CE0130DC68E070E0CE012DDF8BA1C4
:102260008B7F8BA38BA181FF24C0EC81FD81E25A7F
:10227000FF4F8091320190913301A0913401B091D0
:1022800035014081518162817381841B950BA60BBE
:10229000B70B81319742A105B10558F042E060E0EB
:1022A000CE0109DC60E170E0CE013DDF8BA18D7FC6
:1022B0008BA38BA180FF24C0EC81FD81EE59FF4FE1
:1022C0008091320190913301A0913401B091350198
:1022D0004081518162817381841B950BA60BB70BE2
:1022E00081319742A105B10558F041E060E0CE018F
:1022F000E2DB60E270E0CE0116DF8BA18E7F8BA364
:10230000DF91CF910895CF93DF93EC018C859D856C
:10231000682B792B7D876C878F85882359F0672BF5
:1023200049F065E0CE0130DE482F4D7F65E0CE01FB
:10233000C2DB1F86DF91CF910895DF92EF92FF926B
:102340000F931F93CF93DF9300D000D000D0CDB771
:10235000DEB78D839E837B018A01AD81BE81ED91C5
:10236000FC91119771A360A353A342A368E0CD0130
:102370000BDED82EAD81BE811496ED91FC91828149
:102380009701281B310987FD3395A8EEB3E0D7D715
:1023900069837A838B839C832081318150E040E084
:1023A0008AD794E056954795379527959A95D1F712
:1023B00033277901BFEFEB1AFB0A4E2D6AE08D81BE
:1023C0009E8179DBED2DEF73DE2E00311105D8F5FE
:1023D0000830110508F041C091E004301105A0F566
:1023E0004D2D68E08D819E8166DBAD81BE811496A6
:1023F0000D90BC91A02DBE83AD83970184E0220F88
:10240000331F8A95E1F730610D90BC91A02D97D7CD
:1024100028EE33E040E050E04ED7ED81FE8182812E
:10242000082E000C990B820F931F26960FB6F89476
:10243000DEBF0FBECDBFDF91CF911F910F91FF90F7
:10244000EF90DF90089593E09295990F990F907C0B
:10245000FD2DFF73DF2ED92AC3CF92E0F5CFBF92B7
:10246000CF92DF92EF92FF920F931F93CF93DF9360
:1024700000D000D000D0CDB7DEB78D839E837B0126
:102480008A01AD81BE81ED91FC911197758F648FAA
:10249000578F468F68E0CD0177DDB82EAD81BE81C4
:1024A0001496ED91FC9182819701281B310987FDDB
:1024B0003395A8EEB3E043D769837A838B839C83FB
:1024C0002081318150E040E0F6D669017A0194E044
:1024D000F694E794D794C7949A95D1F74C2D69E078
:1024E0008D819E81E8DABB2DBF7CBB2E08301105A3
:1024F00008F044C00430110508F048C081E0023003
:10250000110508F03CC04B2D68E08D819E81D3DA27
:10251000AD81BE8114960D90BC91A02DBE83AD837C
:1025200084E0CC0CDD1C8A95E1F7B0EFCB22BFE054
:10253000DB2296013062ED81FE81A081B181FFD660
:1025400028EE33E040E050E0B6D6AD81BE81129671
:102550008C91082E000C990B820F931F26960FB6B4
:10256000F894DEBF0FBECDBFDF91CF911F910F91C9
:10257000FF90EF90DF90CF90BF90089583E0829519
:10258000807FEB2DEF7CBE2EB82ABDCF82E0F7CF47
:10259000CF92DF92EF92FF920F931F93CF93DF932F
:1025A0000F92CDB7DEB78C01F62ECE01019628D65C
:1025B000F801F6826801F6E0CF0ED11C21E0A601F9
:1025C00068E0CE01019631D624E0A60168E0CE0194
:1025D00001963CD6F801E68061E180E00E94BC0AE9
:1025E0006E2D0E94BC0AF80197819813EDCFF084FC
:1025F0006F2D80E00E94BC0AF80191859813E4CF0A
:10260000CE0101960CD69E2D8F2D0F90DF91CF918C
:102610001F910F91FF90EF90DF90CF9008950F934F
:102620001F93CF93DF93EC01E881F981E65AFF4FC6
:10263000008111816CE2ACDFB8013DD9EC81FD81F4
:10264000E85BFF4F91838083E881F981E45AFF4F73
:10265000008111816EE2CE019BDFB8012CD9EC81A3
:10266000FD81E65BFF4F91838083E881F981E45A25
:10267000FF4F0081118160E3CE018ADFB8011BD9D1
:10268000EC81FD81E45BFF4F91838083DF91CF91EB
:102690001F910F9108952F923F924F925F926F92E8
:1026A0007F928F929F92AF92BF92CF92DF92FF92D2
:1026B0000F931F93CF93DF9300D000D000D0CDB7FE
:1026C000DEB73C0160E060DCF82E87FF45C162E3C5
:1026D000C3015EDFD30112960D911C911397CD902B
:1026E000DC9028EF30E2DC0139D6F60125A536A5CD
:1026F00047A550A902D629833A834B835C83D8012E
:102700001A962D933D934D935C931D97CA01B90181
:1027100024E030E040E050E0F0D5F301838D948D6B
:10272000A58DB68D820F931FA41FB51F838F948F25
:10273000A58FB68FF6014281538164817581481758
:1027400059076A077B073CF4D3015B964D935D9371
:102750006D937C935E97F301838D948DA58DB68DDB
:10276000B7FF04C0138E148E158E168ED8011A96DC
:102770008D919D910D90BC91A02D89839A83AB83FF
:10278000BC83B7FF2CC0BC01CD0124E030E040E0A9
:1027900050E0B3D5F301878D90A1A1A1B2A1821B16
:1027A000930BA40BB50B878F90A3A1A3B2A3F60143
:1027B0004281538164817581481759076A077B07F5
:1027C00074F4D3011496ED91FC9183819481019668
:1027D00094838383F301178E10A211A212A2D80151
:1027E0001A964D915D916D917C911D9712968C91E9
:1027F0001297F60187A890ACA1ACB2AC84169506EE
:10280000A606B7060CF09DC0811170C081E012963B
:102810008C93D3011496ED91FC91809132019091AB
:102820003301A0913401B091350185879687A78740
:10283000B08BD3011296ED91FC911397428553858D
:10284000648575852D913C91CA0157FF04C0882786
:102850009927841B950B1C01990F44085508D90131
:10286000D7968D909D90AD90BC90DA97821493048A
:10287000A404B504E0F477FD07C0D1968C918823B9
:1028800019F08281823099F0D30114968D919C9138
:1028900040913201509133016091340170913501C2
:1028A000DC0119964D935D936D937C931C978F2D4E
:1028B0008F7309F4108240E860E0C30126960FB6DA
:1028C000F894DEBF0FBECDBFDF91CF911F910F9166
:1028D000FF90DF90CF90BF90AF909F908F907F90B0
:1028E0006F905F904F903F902F90E5C8813009F036
:1028F000A0CFD3011496ED91FC918091320190917B
:102900003301A0913401B091350145855685678525
:102910007089841B950BA60BB70B81369A4EA105C7
:10292000B10508F486CF82E0D80112968C93D301CA
:102930001496ED91FC91858196810196968385830D
:1029400078CF823031F44A305105610571050CF0C1
:1029500070CFF80112826DCF26960FB6F894DEBFC5
:102960000FBECDBFDF91CF911F910F91FF90DF90F0
:10297000CF90BF90AF909F908F907F906F905F901F
:102980004F903F902F9008951F93CF93DF93EC01CA
:10299000EA81FB818081811104C08BA1882309F425
:1029A000CDC060E0CE01F0DA182F87FF02C0CE0163
:1029B00072DE812F8F7309F4C6C08BA185FD23C001
:1029C00015FF21C01F861E868A859B8581609B8797
:1029D0008A878C859D8581609D878C87EC81FD81B0
:1029E00081898F5F818BEC81FD81E25BFF4F80915C
:1029F000320190913301A0913401B091350180836F
:102A00009183A283B3838BA184FD23C014FF21C0D3
:102A10001F861E868A859B8582609B878A878C8518
:102A20009D8582609D878C87EC81FD8182898F5F87
:102A3000828BEC81FD81EE5AFF4F809132019091A3
:102A40003301A0913401B091350180839183A28339
:102A5000B38313FF1BC01F868C859D8584609D8773
:102A60008C87EC81FD8183898F5F838BEC81FD8175
:102A7000EA5AFF4F8091320190913301A0913401C5
:102A8000B091350180839183A283B38312FF1BC071
:102A90001E868A859B8588609B878A87EC81FD815D
:102AA00084898F5F848BEC81FD81E65AFF4F809192
:102AB000320190913301A0913401B09135018083AE
:102AC0009183A283B38311FF1BC01F868C859D85D4
:102AD00080619D878C87EC81FD8185898F5F858BE7
:102AE000EC81FD81E25AFF4F8091320190913301D8
:102AF000A0913401B091350180839183A283B38387
:102B000010FF1BC01F868C859D8580629D878C87EA
:102B1000EC81FD8186898F5F868BEC81FD81EE598A
:102B2000FF4F8091320190913301A0913401B09117
:102B3000350180839183A283B3831BA38BA1DF9193
:102B4000CF911F9108951BA2F9CF2F923F924F92E0
:102B50005F926F927F928F929F92BF92CF92DF92FD
:102B6000EF92FF920F931F93CF93DF93CDB7DEB712
:102B700029970FB6F894DEBF0FBECDBF8C01CE01F2
:102B800001963ED38CE0D80116968C934801B6E0AE
:102B90008B0E911C21E0A40168E0CE01019645D383
:102BA000D8011496ED91FC91159717821496ED912A
:102BB000FC911086F12CE12CB12CE8EE2E2EE3E0F6
:102BC0003E2E412C512C24E0A40168E0CE01019658
:102BD0003DD3F801D6806D2C712C762C66246624AA
:102BE000FFE37F2261E180E00E94BC0A6D2D0E941C
:102BF000BC0AD80117969C911797981322C1189672
:102C00006C91662A80E00E94BC0AF80191859813B5
:102C100018C10280F381E02DC7010A96880F991F21
:102C2000E80FF91F71826082D8011496CD90DC9074
:102C30001597ED91FC91C7014E96880F991FE80FEB
:102C4000F91FD60112968C91129720813181F901DA
:102C5000E80FF11D87FDFA95FB83EA830D90BC9187
:102C6000A02D93016CD36E837F8388879987A201FF
:102C7000910121D38A819B81280F391FC701459675
:102C8000AC01440F551FF601E40FF51F318320837B
:102C9000243F3140E0F16E2DF601EB0DF11DE38E86
:102CA000F801A481B5814A0F5B1F1796EC91179725
:102CB000F0E07596EE0FFF1F6F01CA0EDB1EFA01E2
:102CC00020813181F601408151814217530710F470
:102CD0001796EC92F801A481B581880F991F8A0F8D
:102CE0009B1F1896EC911897F0E07596EE0FFF1F5A
:102CF0009F012A0F3B1FFC0180819181F9012081F6
:102D000031818217930710F418966C93B394FFEFF8
:102D1000EF1AFF0A4FE0E416F10409F054CFD8018E
:102D20001296ED91FC911397B3821296ED90FC9060
:102D30006AE2C8012DDCF70191878087D8011496DB
:102D40006D907C9015971296ED90FC90F701D380D2
:102D5000D3012D913C91A085B185F1D2DC01CB014D
:102D600022E0880F991FAA1FBB1F2A95D1F78A83DB
:102D70009B83AC83BD83BC01CD0104D420E030E053
:102D80004AE754E46A837B838C839D836A817B81D9
:102D90008C819D815ED34B01B82EC92ED301129632
:102DA0002C914D2D240390011124C901330FAA0B3E
:102DB000BB0B8A839B83AC83BD83BC01CD01E4D371
:102DC0009B01AC018A829B82BC82CD826A817B811D
:102DD0008C819D81DAD26A837B838C839D836A8117
:102DE0007B818C819D81A2D3462F572FBC01D701B7
:102DF00014964D935D936D937C931797D801ED9145
:102E0000FC9120853185D29EC001D39E900D112466
:102E1000B0E0A0E0F801481759076A077B0760F1A6
:102E20008289803F29F464E670E0C8010E94D40AD8
:102E3000D80152968C9152978F3F19F08F5F52961E
:102E40008C93CE010196EBD129960FB6F894DEBF94
:102E50000FBECDBFDF91CF911F910F91FF90EF90EB
:102E6000DF90CF90BF909F908F907F906F905F90FA
:102E70004F903F902F900895128AE3CFCF92DF9228
:102E8000EF92FF920F931F93CF93DF93EC010E9479
:102E90000B0CE880F9800A851B8500271170D7018B
:102EA00094962D913C91821793074CF0CE010E948D
:102EB000330CF70126A137A128173907DCF5012BC0
:102EC000C9F460E071E0CE0114D9EC81FD81818DFF
:102ED0008F5F818FEC81FD81E259FF4F809132013C
:102EE00090913301A0913401B09135018083918399
:102EF000A283B383CE010E940B0CE880F9800C857D
:102F00001D8500781127D70198962D913C91821745
:102F10009307BCF0CE010E94330CF70122A533A524
:102F20002817390774F0012B39F160E870E0CE0101
:102F3000FAD822C0012BF1F260E071E0CE01BCD8DA
:102F4000D9CF012BC9F460E870E0CE01DCD9EC8167
:102F5000FD81808D8F5F808FEC81FD81E659FF4F71
:102F60008091320190913301A0913401B0913501EB
:102F700080839183A283B383EA81FB812881398195
:102F80004285538564857585D9015696CD90DD902F
:102F9000ED90FC905997C416D506E606F70608F0A2
:102FA00058C01F8A188E198E1A8E8E85882309F4B0
:102FB00047C08A859B8591FD43C04B895C896D899B
:102FC0007E898091320190913301A0913401B091BA
:102FD0003501411551056105710541F48B8B9C8BC1
:102FE000AD8BBE8B8181811112C02AC06C017D0125
:102FF000C41AD50AE60AF70AD9015A964D915C918E
:1030000070E060E04C155D056E057F0558F760E0E7
:1030100072E0CE016ED8EC81FD81828D8F5F828F50
:10302000EC81FD81EE58FF4F809132019091330188
:10303000A0913401B091350180839183A283B38341
:10304000DF91CF911F910F91FF90EF90DF90CF9084
:1030500008951B8A1C8A1D8A1E8A11828A859B8577
:1030600091FFEECF4F89588D698D7A8D8091320115
:1030700090913301A0913401B09135014115510572
:103080006105710529F48F8B988FA98FBA8FD8CFDE
:10309000841B950BA60BB70B81319742A105B10597
:1030A00078F260E072E0CE0107D81F8A188E198E80
:1030B0001A8EEA81FB8181E08183C2CF1F93CF9377
:1030C000DF93D82FC92F60DC182F8D2F9C2F3DDD6B
:1030D0008D2F9C2FA4DA8D2F9C2F0E948C0D1123F5
:1030E00019F08D2F9C2F3CD88D2F9C2FC7DE812F60
:1030F000DF91CF911F91089508958F938FB78F938C
:103100009F93EF93FF938091B900887F8833C1F13B
:10311000B8F4803269F040F4803161F18831A1F176
:10312000883041F184E02DC0883271F18033D1F7CD
:1031300084E98093BC008091BC0084FDFCCF40C03A
:10314000803509F444C038F4803409F452C088341E
:1031500049F784E916C0883529F7E091EF04F0912A
:10316000F0048091BB0080838091EE0481508093B5
:10317000EE04EFCF8091ED048093BB0085EC01C09D
:1031800085EE8093BC001CC08091EE04882389F0FA
:103190008091EE0481508093EE04E091EF04F09171
:1031A000F004CF0101969093F0048093EF048081A6
:1031B000E3CF84E98093BC008091BC0084FDFCCF08
:1031C000FF91EF919F918F918FBF8F911895E09113
:1031D000EF04F091F004CF0101969093F0048093F6
:1031E000EF048091BB0080838091EE048150809336
:1031F000EE048091EE04823008F0C0CF85E8C1CFA4
:10320000E4E6F0E080818F77808388B1806388B9BD
:103210001092B90084E38093B80078940895E4E6AE
:10322000F0E08081806880830895660F6093ED04EC
:103230005093F0044093EF042093EE0485EE8093C6
:10324000BC008091BC0080FDFCCF0895660F6160DA
:103250006093ED045093F0044093EF042093EE0448
:1032600085EE8093BC008091BC0080FDFCCF08956A
:10327000DB018F939F9378D0BF91AF91A29F800D78
:10328000911DA39F900DB29F900D11240895AA1B2C
:10329000BB1B51E107C0AA1FBB1FA617B70710F041
:1032A000A61BB70B881F991F5A95A9F78095909573
:1032B000BC01CD010895A1E21A2EAA1BBB1BFD0182
:1032C0000DC0AA1FBB1FEE1FFF1FA217B307E40705
:1032D000F50720F0A21BB30BE40BF50B661F771F5D
:1032E000881F991F1A9469F760957095809590953D
:1032F0009B01AC01BD01CF010895052E97FB16F48B
:1033000000940FD057FD05D0D6DF07FC02D046F45D
:1033100008C050954095309521953F4F4F4F5F4FD6
:10332000089590958095709561957F4F8F4F9F4F31
:103330000895EE0FFF1F0590F491E02D0994A29FD0
:10334000B001B39FC001A39F700D811D1124911D79
:10335000B29F700D811D1124911D0895F0DFB7FFFC
:103360000895821B930B0895EADFA59F900DB49FEB
:10337000900DA49F800D911D11240895B7FFF4CFE7
:10338000F3DF821B930B08955058BB27AA270ED05A
:103390004DC13ED130F043D120F031F49F3F11F4C4
:1033A0001EF433C10EF4E095E7FB29C1E92F4FD19C
:1033B00080F3BA17620773078407950718F071F452
:1033C0009EF567C10EF4E0950B2EBA2FA02D0B01D0
:1033D000B90190010C01CA01A0011124FF27591B5A
:1033E00099F0593F50F4503E68F11A16F040A22F60
:1033F000232F342F4427585FF3CF469537952795D1
:10340000A795F0405395C9F77EF41F16BA0B620BCF
:10341000730B840BBAF09150A1F0FF0FBB1F661F16
:10342000771F881FC2F70EC0BA0F621F731F841F59
:1034300048F4879577956795B795F7959E3F08F07F
:10344000B3CF9395880F08F09927EE0F979587953E
:1034500008950CD0EBC0E3D040F0DAD030F021F486
:103460005F3F19F0CCC0511115C1CFC0F0D098F317
:103470009923C9F35523B1F3951B550BBB27AA27F5
:1034800062177307840738F09F5F5F4F220F331F67
:10349000441FAA1FA9F333D00E2E3AF0E0E830D033
:1034A00091505040E695001CCAF729D0FE2F27D036
:1034B000660F771F881FBB1F261737074807AB0704
:1034C000B0E809F0BB0B802DBF01FF2793585F4F79
:1034D0002AF09E3F510568F092C0DCC05F3FECF3DC
:1034E000983EDCF3869577956795B795F7959F5F3E
:1034F000C9F7880F911D9695879597F90895E1E092
:10350000660F771F881FBB1F621773078407BA07F0
:1035100020F0621B730B840BBA0BEE1F88F7E0954B
:10352000089504D06894B111B5C0089598D088F07A
:103530009F5790F0B92F9927B751A0F0D1F0660F9F
:10354000771F881F991F1AF0BA95C9F712C0B130BA
:1035500081F09FD0B1E008959CC0672F782F882715
:10356000B85F39F0B93FCCF3869577956795B395F9
:10357000D9F73EF490958095709561957F4F8F4F68
:103580009F4F0895E89409C097FB3EF4909580956D
:10359000709561957F4F8F4F9F4F9923A9F0F92F19
:1035A00096E9BB279395F695879577956795B79597
:1035B000F111F8CFFAF4BB0F11F460FF1BC06F5F7D
:1035C0007F4F8F4F9F4F16C0882311F096E911C08F
:1035D000772321F09EE8872F762F05C0662371F0B0
:1035E00096E8862F70E060E02AF09A95660F771FC4
:1035F000881FDAF7880F9695879597F9089597F9B8
:103600009F6780E870E060E008959FEF80EC089588
:1036100000240A94161617061806090608950024B1
:103620000A9412161306140605060895092E03942B
:10363000000C11F4882352F0BB0F40F4BF2B11F49F
:1036400060FF04C06F5F7F4F8F4F9F4F089557FDFE
:103650009058440F551F59F05F3F71F04795880F00
:1036600097FB991F61F09F3F79F087950895121697
:1036700013061406551FF2CF4695F1DF08C0161643
:1036800017061806991FF1CF8695710561050894F4
:103690000895E894BB2766277727CB0197F908950B
:1036A0000EF0A6C0B2CF6894AACFD9DFC8F3992391
:1036B000D1F3C6F3DF93CF931F930F93FF92C92FDC
:1036C000DD2788232AF02197660F771F881FDAF7F6
:1036D00020E030E040E85FEB9FE3883920F0803E57
:1036E00030F021968F7751DEE8E6F0E003C04DDE42
:1036F000E5E9F0E08BD08B01BE01EC01FB2E6F57AA
:1037000071097595771F880B990B3EDF28E132E729
:1037100041E35FE316D0AF2D9801AE01FF900F910A
:103720001F91CF91DF9142DE81CF0BD07FCF70DF31
:1037300028F075DF18F0952309F061CF66CF1124CA
:10374000A9CF85DFA0F3959FD1F3950F50E0551FCA
:10375000629FF001729FBB27F00DB11D639FAA27E6
:10376000F00DB11DAA1F649F6627B00DA11D661F35
:10377000829F2227B00DA11D621F739FB00DA11D56
:10378000621F839FA00D611D221F749F3327A00D10
:10379000611D231F849F600D211D822F762F6A2FAC
:1037A00011249F5750408AF0E1F088234AF0EE0F31
:1037B000FF1FBB1F661F771F881F91505040A9F73E
:1037C0009E3F510570F01BCF65CF5F3FECF3983EF5
:1037D000DCF3869577956795B795F795E7959F5FA5
:1037E000C1F7FE2B880F911D9695879597F908953F
:1037F0009F3F31F0915020F4879577956795B79565
:10380000880F911D9695879597F90895DF93CF932B
:103810001F930F93FF92EF92DF927B018C016894CC
:1038200005C0DA2EEF018DDFFE01E894A591259108
:10383000359145915591AEF3EF01B8DDFE01970149
:10384000A801DA9479F7DF90EF90FF900F911F9124
:10385000CF91DF9108950F931F93CF93DF93EC01E6
:103860008B01892B51F4672B41F4F0E0E0E0CF01AC
:10387000DF91CF911F910F9108956EE070E081E08C
:1038800090E015D2FC01892B81F380E88383011538
:10389000110571F01387028781E883838091F10419
:1038A0009091F204892B21F4F093F204E093F10457
:1038B0002097E9F2D187C0878381826083838091DA
:1038C000F3049091F404892B91F6F093F404E093BF
:1038D000F3048091F5049091F604892B41F6F0935E
:1038E000F604E093F504C3CFB0E0A0E0E9E7FCE123
:1038F000EDC30F811885F801838188608383AE0151
:10390000455F5F4F69857A85C80106D0F80123813C
:10391000277F2383E4E0F6C3ABE0B0E0E1E9FCE11C
:10392000C7C37C013B018A01FC0117821682838197
:1039300081FFBAC1CE0101965C01F7019381F301C9
:1039400093FD859193FF81913F01882309F449C13B
:10395000853239F493FD859193FF81913F01853242
:1039600021F4B70190E0FFD2E8CF912C212C312C2B
:10397000FFE1F31538F08B3211F190F4803209F148
:10398000833229F137FC3CC020ED280F2A3050F556
:1039900036FE20C08AE0989E200D1124922E06C08B
:1039A0008D3291F0803371F7689430F8F30193FD14
:1039B000859193FF81913F018111DACF21C06894F5
:1039C00031F8689432F8F2CF689433F8EFCF689406
:1039D00034F8ECCFEAE02E9E200D1124222E6894BC
:1039E00035F8E4CF8E3229F436FCFBC0689436F803
:1039F000DDCF8C3619F4689437F8D8CF8836B1F219
:103A0000982F9F7D95549330D8F0833691F183376A
:103A1000B1F1833509F05EC02801F2E04F0E511C70
:103A2000F801C080D180692D70E036FC02C06FEFD4
:103A30007FEFC6017BD24C01689437F882010AC03F
:103A40000C5F1F4FFFE3F98388248394912C650159
:103A5000E89437F833FE2AC0522C8114910459F5AA
:103A6000552009F46ACFB70180E290E07CD25A94E5
:103A7000F7CFF801808189830E5F1F4FE5CF2801C2
:103A8000F2E04F0E511CF801C080D180692D70E02A
:103A900036FC02C06FEF7FEFC6015AD24C018201A3
:103AA000D7CFB70180E290E05ED22A94281419049F
:103AB00009F0B8F7D1CFF60137FC859137FE819137
:103AC0006F01B70190E04FD251105A94F1E08F1A74
:103AD0009108C3CF843619F0893609F073C0F80114
:103AE00037FE67C060817181828193810C5F1F4FB7
:103AF000F32DFF763F2E97FF09C090958095709526
:103B000061957F4F8F4F9F4F689437F82AE030E0E0
:103B1000A50159D2C82ECA188C2C432C36FE0CC0D5
:103B2000E89440F8C91440F434FE05C032FC03C0E8
:103B3000F32DFE7E4F2E892C44FE90C0FE01EC0D2D
:103B4000F11D8081803309F082C0242D297E422E10
:103B5000842D8870582E43FC8FC040FE89C09C2C59
:103B6000821418F42C0C922C981844FE8BC0B701C8
:103B700080E390E0F8D142FE08C088E790E041FE83
:103B800002C088E590E0B701EED1C91408F486C000
:103B9000CA94D12C9FEFC91AD90ACA0CDB1CF601B2
:103BA00082916F01B70190E0DED1AC14BD04B9F78A
:103BB00057CF60817181072E000C880B990B0E5F27
:103BC0001F4F96CFD32CE894D4F82AE030E0853705
:103BD00031F1232D297FD22E8F36F9F040F488352C
:103BE000A1F0F701868197812B96E2E17DC28037B3
:103BF00049F08837B1F7D4FE02C06894D2F820E1CA
:103C000030E00DC06894D4F8F6CF34FE03C0822FA4
:103C10008660D82E20E132E002C028E030E0F801D2
:103C2000D7FE0EC060817181828193810C5F1F4F2E
:103C3000A501C9D1C82ECA183D2CE89437F86CCF1D
:103C40006081718190E080E00E5F1F4FF1CF42FCF8
:103C500002C083947DCF839483947ACF842D867819
:103C600009F476CFF6CFB70180E290E07CD183945F
:103C70008214C8F3512C79CF522C5818821408F4AE
:103C800074CFF8CF842D867809F47FCF8BE241FE84
:103C900080E247FC8DE2B70190E076CFB70180E388
:103CA00090E061D19A9471CF8FEF9FEF9DCF0F93EA
:103CB0001F93CF93DF93869F8001879F100D969F60
:103CC000100D1124C8010DD0EC01009721F0A801BE
:103CD00070E060E036D1CE01DF91CF911F910F915E
:103CE00008950F931F93CF93DF938230910510F4C3
:103CF00082E090E0E091F904F091FA0430E020E0F5
:103D0000B0E0A0E0309799F42115310509F44AC0DC
:103D1000281B390B24303105D8F58A819B81611528
:103D2000710589F1FB0193838283FE0111C04081FB
:103D300051810281138148175907E0F0481759074C
:103D400099F4109761F012960C93129713961C93A6
:103D50003296CF01DF91CF911F910F91089500937B
:103D6000F9041093FA04F4CF2115310551F04217EC
:103D7000530738F0A901DB019A01BD01DF01F80109
:103D8000C1CFEF01F9CF9093FA048093F904CDCF1E
:103D9000FE01E20FF31F8193919322503109398381
:103DA0002883D7CF2091F7043091F804232B41F4D6
:103DB00020910201309103013093F8042093F7041D
:103DC00020910001309101012115310541F42DB7F9
:103DD0003EB74091040150910501241B350BE09141
:103DE000F704F091F804E217F307A0F42E1B3F0B41
:103DF0002817390778F0AC014E5F5F4F241735075D
:103E000048F04E0F5F1F5093F8044093F7048193DE
:103E100091939FCFF0E0E0E09CCFCF93DF930097AA
:103E2000E9F0FC01329713821282A091F904B0915B
:103E3000FA04ED0130E020E01097A1F420813181F7
:103E4000820F931F2091F7043091F8042817390747
:103E500009F061C0F093F804E093F704DF91CF918B
:103E60000895EA01CE17DF07E8F54A815B819E01DC
:103E700041155105B1F7E901FB83EA834991599155
:103E8000C40FD51FEC17FD0761F480819181029664
:103E9000840F951FE90199838883828193819B8395
:103EA0008A83F0E0E0E012968D919C911397009741
:103EB000B9F52D913C911197CD010296820F931F78
:103EC0002091F7043091F8042817390739F6309714
:103ED00051F51092FA041092F904B093F804A093EB
:103EE000F704BCCFD383C28340815181840F951FD7
:103EF000C817D90761F44E5F5F4F88819981480FD9
:103F0000591F518340838A819B819383828321152A
:103F1000310509F0B0CFF093FA04E093F9049ECF95
:103F2000FD01DC01C0CF13821282D7CFFC010590C6
:103F3000615070400110D8F7809590958E0F9F1FAB
:103F40000895DC0101C06D9341505040E0F70895A1
:103F5000FC016150704001900110D8F78095909558
:103F60008E0F9F1F08950F931F93CF93DF93182FEA
:103F7000092FEB018B8181FD09C01FEF0FEF812F0E
:103F8000902FDF91CF911F910F91089582FF14C060
:103F90002E813F818C819D81281739073CF4E8816F
:103FA000F981CF0101969983888310838E819F8147
:103FB00001969F838E83E3CFE885F985812F09954C
:103FC000892BA1F3DACFFA01AA27283051F1203149
:103FD00081F1E8946F936E7F6E5F7F4F8F4F9F4F9D
:103FE000AF4FB1E03ED0B4E03CD0670F781F891FDF
:103FF0009A1FA11D680F791F8A1F911DA11D6A0FAD
:10400000711D811D911DA11D20D009F468943F915F
:104010002AE0269F11243019305D3193DEF6CF015E
:104020000895462F4770405D4193B3E00FD0C9F724
:10403000F6CF462F4F70405D4A3318F0495D31FD91
:104040004052419302D0A9F7EACFB4E0A6959795E4
:10405000879577956795BA95C9F7009761057105BA
:1040600008959B01AC010A2E069457954795379504
:104070002795BA95C9F7620F731F841F951FA01D5E
:104080000895DC01CB0102C02D9105D04150504074
:10409000D8F70895262FF999FECF1FBA92BD81BD9A
:1040A00020BD0FB6F894FA9AF99A0FBE01960895BA
:1040B0002F923F924F925F926F927F928F929F9238
:1040C000AF92BF92CF92DF92EF92FF920F931F9326
:1040D000CF93DF93CDB7DEB7CA1BDB0B0FB6F894D7
:1040E000DEBF0FBECDBF09942A88398848885F8417
:1040F0006E847D848C849B84AA84B984C884DF8088
:10410000EE80FD800C811B81AA81B981CE0FD11D6B
:104110000FB6F894DEBF0FBECDBFED010895F89441
:10412000FFCF58045E046104640467046A046D04EC
:0641300070047304760424
:104136000000FB0420000000010002803E80000019
:104146000003080B0E111316191C1F2124272A2CF5
:0A4156002F3216212C38434E596415
:10416000040000001400000003000000474E55004A
:10417000C6A0B224C823C81F848D916877910CC053
:04418000F54D10C425
:00000001FF
