:1000000066C000008CC0000089C0000087C00000EE
:1000100085C000008AC0000081C000007FC00000D1
:100020007DC0000088C0000079C0000077C00000DB
:1000300075C0000073C0000071C000006FC00000F8
:100040006DC200006BC00000BBC3000067C00000B1
:1000500090C3000063C0000061C000005FC00000EA
:100060000C9469195BC0000008000000BE9224498E
:10007000123EABAAAA2ABECDCCCC4C3E00000080DA
:10008000BEABAAAAAA3E00000000BF000000803F4D
:100090000000000000084178D3BB4387D1133D190D
:1000A0000E3CC3BD4282AD2B3E68EC8276BED98F3A
:1000B000E1A93E4C80EFFFBE01C4FF7F3F0000007E
:1000C00000006E6F743336350D0A0000DC0A11240F
:1000D0001FBECFEFD8E0DEBFCDBF11E0A0E0B1E0A2
:1000E000EEE0F3E402C005900D92AE31B107D9F70E
:1000F00022E0AEE1B1E001C01D92A735B207E1F701
:1001000010E0C7E6D0E004C02197FE010E94851AE6
:10011000C636D107C9F73DD00C947B2171CF8F93A0
:1001200081E0809321018F9118958F9381E08093D6
:1001300020018F9118958F938FB78F939F93809104
:100140001E0190911F01019690931F0180931E0143
:100150009F918F918FBF8F91189583E08093690055
:1001600081E08DBB0895EDE6F0E0808181608083C1
:10017000E8E6F0E08081846080830895E8E6F0E0BE
:1001800080818B7F8083EDE6F0E080818E7F8083AD
:100190000895CDB7DEB7CE58D2400FB6F894DEBF83
:1001A0000FBECDBF14BEACD1789422E040E263E232
:1001B00070E0CE0188579D4F36D261E0CE0188575E
:1001C0009D4F49D2CE0101968CD780916400816009
:1001D00080936400809164008460809364008091C7
:1001E00064008860809364008091640080688093DC
:1001F0006400B3DF2FE739EA43E02150304040404C
:10020000E1F700C0000060E0CE0188579D4F23D287
:100210005FE785EF90E2515080409040E1F700C0E9
:10022000000088E05BD1CE010196A8D6C12CD12C6C
:10023000760107E011E080912001882309F43AC19A
:10024000E0D16B017C0110922001DBD1C557DD4F5D
:10025000688379838A839B83CB58D240DC01CB01AE
:100260008C199D09AE09BF0980369A4EA105B105CA
:1002700008F41EC1F89483B7817F866083BF109213
:10028000B0000093B1001092B200109370006BDFC9
:1002900043D183B7816083BF78941092210110927B
:1002A000200188958091210181110AC0809120014F
:1002B000811106C080911E0190911F01449788F31F
:1002C00083B78E7F83BF5ADF1092B1001092700007
:1002D00080901E0190901F018091B200282F30E085
:1002E00050E040E0C557DD4F288339834A835B8364
:1002F000CB58D240CA01B9010E94B01B2BE734E1B0
:100300004EEA51E4C557DD4F6883CB58D240C457FD
:10031000DD4F7883CC58D240C357DD4F8883CD580A
:10032000D240C257DD4F9883CE58D240C557DD4FDB
:10033000688179818A819B81CB58D2400E94811C3F
:1003400020E030E04FE753E4C557DD4F6883CB58DA
:10035000D240C457DD4F7883CC58D240C357DD4FCD
:100360008883CD58D240C257DD4F9883CE58D240B3
:10037000C557DD4F688179818A819B81CB58D240F6
:100380000E94151B3B015C01C401B0E0A0E0C55711
:10039000DD4F88839983AA83BB83CB58D240B401B5
:1003A000CD010E94AE1B2BE734E14EEA51E4C55764
:1003B000DD4F6883CB58D240C457DD4F7883CC588B
:1003C000D240C357DD4F8883CD58D240C257DD4F4E
:1003D0009883CE58D240C557DD4F688179818A8194
:1003E0009B81CB58D2400E94811C9B01AC01C55718
:1003F000DD4F6882CB58D240C457DD4F7882CC584D
:10040000D240C357DD4FA882CD58D240C257DD4FEE
:10041000B882CE58D240C557DD4F688179818A8134
:100420009B81CB58D2400E94B11A2B013C01E9D0EC
:100430004B015C01C557DD4F4882CB58D240C457B1
:10044000DD4F5882CC58D240C357DD4F6882CD581B
:10045000D240C257DD4F7882CE58D240C557DD4FCB
:10046000688179818A819B81CB58D2400E94821B0E
:100470009B01AC01280D391D4A1D5B1DC557DD4F81
:10048000288339834A835B83CB58D240CA01B901A0
:100490007AD010921F0110921E01809120018823B2
:1004A00019F0AFD06B017C01109220011093210153
:1004B00033D0C1CE20912101C857DD4F48815981E9
:1004C0006A81C858D240CE0101969DD78111B8CE1D
:1004D000CE0101961CD58111B3CEB7CE94E0899F91
:1004E0009001112420728770282B286088E10FB6B4
:1004F000F894A895809360000FBE20936000089543
:100500000FB6F894A8958091600088618093600090
:10051000109260000FBE0895A89508951F921FB60F
:100520001F9211242F933F938F939F93AF93BF9369
:1005300080912C0190912D01A0912E01B0912F015D
:1005400030912B012DE2230F2D37B8F40196A11D18
:10055000B11D20932B0180932C0190932D01A0932A
:100560002E01B0932F01BF91AF919F918F913F9139
:100570002F911F901FBE1F90189520EB230F0296FE
:10058000A11DB11DE6CF462F572FBC018FB7F894A0
:1005900040932C0150932D0160932E0170932F01F5
:1005A0008FBF78940895789484B5836084BD85B5B1
:1005B000836085BDEEE6F0E08081816080830895F0
:1005C000CF93DF9300D000D0CDB7DEB78FB7F894CC
:1005D00020912C0130912D0140912E0150912F013D
:1005E00029833A834B835C838FBF789469817A81B6
:1005F0008B819C810F900F900F900F90DF91CF9186
:1006000008958091220181110BC082E291E034D0E3
:10061000892B31F08AE291E0C6DF82E291E035D0A9
:100620008AE291E0CDCFDC01FB0111967C936E93C1
:1006300012964C939181842F809589238183223057
:1006400021F48181482B41830895213019F482815E
:10065000482B42830895FC01A081B18192811296BA
:100660008C911297662329F0982B12969C93CF01B8
:10067000089590959823F9CFFC0181E090E02081C6
:10068000222311F090E080E0089521E0FC01208316
:1006900008959091C0019738B8F59091C0019F5F7F
:1006A000292F30E02F5F3F4F4091BF0142171306C3
:1006B000D9F32091BF01291741F0E091C001F0E08A
:1006C000EF53FE4F80839093C0019091C00095FF3F
:1006D000FCCF2091C0019091BF01291789F0E091D2
:1006E000BF01F0E0EF53FE4F20819091BF019F5F6B
:1006F0009093BF01983810F01092BF012093C6006C
:10070000082E000C990B089590E0CACF2091330178
:1007100030913401820F931F8838910510F088586A
:1007200091099927FC01E95CFE4F80810895209191
:10073000330130913401280F391F30933401209355
:10074000330180913301909134018838910550F044
:10075000809133019091340188589109909334012C
:1007600080933301109232018091330190913401D2
:1007700008951F921FB61F9211248F939F93EF939A
:10078000FF939091C0018091BF01981789F0E0918B
:10079000BF01F0E0EF53FE4F90818091BF018F5F6A
:1007A0008093BF01883810F01092BF019093C6006B
:1007B000FF91EF919F918F911F901FBE1F901895F1
:1007C0001F921FB61F9211242F933F938F939F93D5
:1007D000EF93FF938091C00082FF0CC08091C60010
:1007E000FF91EF919F918F913F912F911F901FBE8D
:1007F0001F9018958091C600909132019111F0CF11
:10080000E0913501F0913601E95CFE4F80838091E3
:100810003501909136010196909336018093350110
:1008200080913501909136018838910550F0809182
:100830003501909136018858910990933601809343
:10084000350120913501309136018091330190912D
:1008500034012817390721F681E080933201C0CF97
:100860009C01CA01F901E95FFE4F40815181841763
:10087000950710F491838083F901E75FFE4F408173
:1008800051814817590710F4918380836A3058F4D6
:10089000E62FF0E0E358FE4D0C94851A2F573F4F9A
:1008A000F9019183808308952D573F4FF9CF2B573E
:1008B0003F4FF6CF29573F4FF3CF27573F4FF0CF4A
:1008C00025573F4FEDCF23573F4FEACF21573F4F9B
:1008D000E7CF2F563F4FE4CF2D563F4FE1CFFC01DE
:1008E000DC0111968F5F9E4F1D921D928A179B0708
:1008F000D9F767A770AB41AB52ABDF01AF5BBF4F1E
:100900002C9311963C93119783E39AE492A381A3CD
:100910008FE59EE494A383A38FE494E596A385A337
:1009200083E396E390A787A385E39FE592A781A73A
:1009300082E49DE494A783A783E591E396A785A726
:10094000AE5ABF4F88EB9BE011969C938E93129703
:1009500011969C938E93129711969C938E93129757
:1009600011969C938E93129711969C938E93129747
:1009700011969C938E93129711969C938E93129737
:1009800011969C938E93129711969C938E93129727
:1009900011969C938E93909781E090E011969C9392
:1009A0008E931A968EE29FE211969C938E931C96DC
:1009B00084E690E011969C938E93A457BF4F80EFEE
:1009C0009AE011969C938E93129622E730E111964D
:1009D0003C932E93129611963C932E9312968D93E0
:1009E0009C931082109236011092350110923401BE
:1009F00010923301109232011092C0011092BF0187
:100A00001092C5008CE08093C40082E08093C00007
:100A100088ED8093C10086E08093C200789482ECD8
:100A200090E09F938F93809131018F93809130015B
:100A30008F930E94851E0F900F900F900F90089536
:100A40002F923F924F925F926F927F928F929F92DE
:100A5000AF92BF92CF92DF92EF92FF920F931F93CC
:100A6000CF93DF938C01362E7A01EC01CF5FDE4FFE
:100A700019821882862E912C5A01B694A7943501BA
:100A8000680C791C8614970438F5F401EF77FF277A
:100A9000EE0FFF1FE00FF11F2F018FEF481A580ACA
:100AA000218070E060E0822DF4DD88819981820DE3
:100AB000911D99838883F201C180D12C70E060E0A0
:100AC0008C2DE7DD888199818C0D9D1D998388830C
:100AD000FFEF8F1A9F0AD6CFE0FE16C061E0630DCC
:100AE000A60EE894A7F8B12CAA0CBB1C0A0D1B1D7E
:100AF000F801118170E060E0812FCBDD8881998160
:100B0000810F911D9983888388819981DF91CF918D
:100B10001F910F91FF90EF90DF90CF90BF90AF901B
:100B20009F908F907F906F905F904F903F902F900D
:100B30000895FF920F931F93CF93DF938C01EC01E5
:100B4000CF5FDE4F19821882613009F063C070E018
:100B500060E085E59EDD70E060E08AEA9ADD86E08F
:100B600090E0D4DD92E0F92EF80E70E060E08F2D79
:100B700090DD888199818F0D911D9983888370E024
:100B800060E085E286DD88819981859699838883F6
:100B900070E060E081E07DDD888199810196998334
:100BA000888385E090E0B2DDF82E70E060E071DDD2
:100BB000888199818F0D911D9983888386E090E0CB
:100BC000A5DDF82E85E090E0A1DD682F4F2D50E0E7
:100BD000C80136DF28813981820F931F8095909557
:100BE0009983888370E060E054DD70E060E0898183
:100BF00050DDF801E95FFE4FD801AB5FBE4F8D912C
:100C00009C91119791838083149634978081918170
:100C10008D939C93DF91CF911F910F91FF90089539
:100C2000AF92BF92CF92DF92EF92FF920F931F93FA
:100C3000CF93DF9300D000D000D0CDB7DEB78D8347
:100C40009E83ED81FE81E95FFE4F20813181ED8140
:100C5000FE81EF59FF4F80819181AD81BE81AD5FF3
:100C6000BE4F4D915C914217530708F4D2C091607A
:100C70009183808380819181AD81BE81A75FBE4FCA
:100C80006D917C91AD81BE81AB5FBE4F4D915C910A
:100C90006417750708F4BFC09260918380838081D8
:100CA0009181AD81BE814C91442309F4B6C08E7F01
:100CB0009183808360E0293BBBE03B0740F1285BE8
:100CC0003B40C901B0E0A0E089839A83AB83BC8339
:100CD000B901CD010E94AE1B2FE73AE64CEB5DE374
:100CE00069837A838B839C8369817A818B819C81E0
:100CF0000E94811C69837A838B839C8369817A81BA
:100D00008B819C810E94821B653608F064E6262F49
:100D100030E0ED81FE81EB59FF4F31832083ED817F
:100D2000FE81A1A9B2A90E948B1A69837A838B8361
:100D30009C8324E630E040E050E00E94471AED81B9
:100D4000FE81ED59FF4F31832083F89400913501E6
:100D5000109136018091330190913401081B190BD9
:100D6000789417FF02C008571F4F809132018823E3
:100D700029F00115110511F408E810E0ED80FE805E
:100D8000F1E0EF0EFF1ED7011D921C92CD80DE8098
:100D9000B5EFCB1ABEEFDB0A82E090E0F60191835B
:100DA00080830830110508F489C090E080E0AEDC53
:100DB0008535A9F582E090E0A9DC823808F047C0CB
:100DC00082E090E0A3DC90E0D6018D939C93D60165
:100DD000AD90BC90C50106960817190708F46EC0BF
:100DE000F70111821082F3E0AF0EB11C82E0A81669
:100DF000B10498F1C5018ADCD7012D913C9111977E
:100E0000820F932F911D8D939C93B1E0AB1AB10883
:100E1000EDCF9E7F2DCF9D7F40CF816049CF81E078
:100E200090E074DC8A3A31F281E090E026960FB6C9
:100E3000F894DEBF0FBECDBFDF91CF911F910F9110
:100E4000FF90EF90DF90CF90BF90AF9070CC82E09A
:100E500090E0F60191838083BACFF7018081918180
:100E60008095909591838083D6018D919C91049675
:100E70004DDCF7012081318133278217130611F0F1
:100E8000C801D4CFD6018D919C9105963FDCF70126
:100E9000218130E08217130699F783E090E036DC79
:100EA000823271F784E090E031DC682F8D819E8181
:100EB00040DED6018D919C910696B8CF26960FB64E
:100EC000F894DEBF0FBECDBFDF91CF911F910F9180
:100ED000FF90EF90DF90CF90BF90AF900895FC010E
:100EE000EF59FF4F8081918121E030E002C0220F55
:100EF000331F6A95E2F7442329F0282B392B3183DD
:100F0000208308952095309528233923F8CF8A5CD3
:100F10009E4F86DE80E008950F931F93CF93DF935B
:100F2000EC018C010E5E1E4F2E853F854A855B8548
:100F30006C857D85C80182D72A8D3B8D4E895F895E
:100F4000688D798DC80183D42C893D894889598958
:100F50006A897B89C801DAD74AA15BA168A179A116
:100F6000C8010E9410124E8D5F8D6C8D7D8DC80161
:100F7000DF91CF911F910F910C94A5120F931F93A6
:100F8000CF93DF938C01EC01CE5EDE4FCE010E9449
:100F90002E10CE010E94491964E670E0CE012FD3D5
:100FA00060E470E0CE010E948910C801B5DFF8014D
:100FB000818160E470E0882351F0CE010E94C0106E
:100FC000CE01DF91CF911F910F910C946819CE0142
:100FD0000E94F611F5CFFC0181E08083818397E0C8
:100FE00094A748EE53E060E070E045A756A767A7D6
:100FF00070ABDF01A65ABF4F2BE63DE011963C9344
:101000002E93129611963C932E9312962D933C9309
:1010100020E13EE03783268344E550E15187408755
:1010200040E45EE765E070E0428353836483758348
:1010300044E650E060E070E047AB50AF61AF72AFA4
:1010400015A214A244EF51E057A346A348E35FEF73
:1010500051A740A74AE852E053A742A781AB82AB11
:1010600034AB23AB8AE083AF88E097E096AB85ABE7
:101070008CE795E1A0E0B0E0868B978BA08FB18FD5
:1010800088EB9BE0938F828F80E898E3A1E0B0E04B
:1010900082879387A487B58788EC90E097878687B7
:1010A00080E49CE9A0E0B0E0808B918BA28BB38BB5
:1010B00080ED97E0958B848B88E690E1958F848F07
:1010C00082E090E0978F868F22E23BE031A320A35D
:1010D00093A382A3FC968EE1DF011D928A95E9F726
:1010E0000895CF93DF93EC019C0129563F4FAC014B
:1010F0004B595F4FBC018E5E9E4F73D22AE23AE29B
:1011000048EC59E166E171E0CE018A5C9E4FE7DB75
:10111000FE01ED5BFD4F1082118212821382349624
:1011200010821182128213823496108211821282EE
:101130001382FB961082CE014EDFFE01E15BFD4F74
:10114000DE01A656BF4F8D919C91119791838083AC
:10115000329612968D919C9191838083CD5ADD4F6A
:101160008FEF8883DF91CF9108950F931F93CF93D3
:10117000DF93EC018C01060F171F80E0C017D10729
:1011800019F0699124D2FACFDF91CF911F910F917D
:1011900008950F931F93CF93DF9300D000D000D01A
:1011A000CDB7DEB78D839E832CDA69837A838B83F8
:1011B0009C83ED81FE81E35FFE4F608371838283B8
:1011C00093830D811E8109561F4F6AE770E0C801A5
:1011D000CCDF2D813E812F5E3E4FD9018C934BE7B2
:1011E00050E060E070E0C80126960FB6F894DEBFCC
:1011F0000FBECDBFDF91CF911F910F910C942D2188
:10120000CF93DF939C01DC0180E08617E1F08F5FD4
:10121000E82FF0E0EE0FFF1FE20FF31F982F961359
:1012200002C01296F2CF4D915C911197C081D1818D
:10123000C417D50728F41196DC93CE9351834083CD
:101240009F5F3296ECCFDF91CF910895AF92BF921E
:10125000CF92DF92EF92FF920F931F93CF93DF9382
:10126000EC018C010C5A1D4F6C016EE8C61A6DEF33
:10127000D60AF80111921192EC15FD05D9F7760105
:101280005E018AE7A81A8DEFB80AF6011192119251
:10129000EA15FB05D9F7D5011C92DE01AF53BF4F0C
:1012A000CE018E549F4F9E0121523F4F4D915D9133
:1012B0004130524098F0F5016081FC01408151E0DD
:1012C000560FF5015083E62FF0E0E65DFE4FEE0F7E
:1012D000FF1FEC0FFD1F50E0518340830196A217C2
:1012E000B30721F7D5016C91C8018ADFF501808130
:1012F0008B30A8F1FE01EC57FD4F9E01225A3D4F65
:1013000090E0880F991FC297D8014D915D918D0192
:101310005D965C934E935C97DF01A80FB91F4D91CA
:101320005C915183408332970217130769F710E0ED
:10133000CA5CDE4FF701419151917F01612FCE01CF
:101340008FDA1F5F1A30B1F7DF91CF911F910F91A4
:10135000FF90EF90DF90CF90BF90AF9008958A30CC
:1013600009F442C0F80120E050E040E0821731F07B
:1013700061917191460F571F2F5FF8CF622F70E078
:10138000CA010E94331AF60161937193EA15FB05B5
:10139000D9F7822F869590E0891741F0F8014191A5
:1013A00051918F01558F448F9F5FF6CF8FEF820F42
:1013B000A82FB0E0A55DBE4FAA0FBB1FAC0FBD1F8D
:1013C0004AE0421BE42FE80F981708F0B0CF3E9197
:1013D0002E91F0E0E75CFE4FEE0FFF1FEC0FFD1FBC
:1013E000318320838150EECFCE0188599D4FD801A3
:1013F0002D913D918D015D963C932E935C97A8179E
:10140000B907A9F794CF8F929F92AF92BF92CF92D4
:10141000DF92EF92FF920F931F93CF93DF9300D051
:1014200000D000D00F92CDB7DEB78C0149835A832C
:101430006B83F22EFC01EB59FF4F2083E2D86C83C3
:101440007D838E839F8368012DEBC21A2DEFD20A14
:10145000F60180819181A281B3812C813D814E81F1
:101460005F81281B390B4A0B5B0BDA01C9018A3FEC
:101470009105A105B10508F48BC0C3D8D6016D93C1
:101480007D938D939C93139761E0CE010196E3D8F1
:10149000C8018E5E9E4F0E944919F82EC801D6DE03
:1014A0006801BAECCB1ABEEFDB0AF801E759FF4F2F
:1014B00020813181428153812C833D834E835F8320
:1014C000CA01B90124E630E040E050E00E94471A2A
:1014D000F801E156FE4F31832083F2FA442740F9A8
:1014E00069E0C601FCDCF3FA442740F968E0C60174
:1014F000F6DCF801E656FF4F80819181EB54FE4FF8
:10150000208131818217930721F091838083C80164
:1015100040DEF801E456FF4F80819181EB54FE4F8D
:10152000208131818217930721F091838083C80144
:1015300030DEC60175DB780139EBE31A3DEFF30AC3
:10154000D7018D909D90AD90BC905BD86C837D83CE
:101550008E839F83681579058A059B0570F4F801D1
:10156000E55BFD4F80819181A281B3810196A11D30
:10157000B11D80839183A283B38343D8F701608335
:1015800071838283938360E0CE01019664D8F12C4D
:101590008F2D27960FB6F894DEBF0FBECDBFDF911B
:1015A000CF911F910F91FF90EF90DF90CF90BF9060
:1015B000AF909F908F90089570E060E089E493E091
:1015C0000E943C1E9093310180933001089586273C
:1015D00098E027E0382F880F37FD82279150D1F708
:1015E0000895FC0171836083538342833583248390
:1015F00016861786138612861586148608956F92AE
:101600007F928F929F92AF92BF92CF92DF92EF9292
:10161000FF920F931F93CF93DF93CDB7DEB72E9733
:101620000FB6F894DEBF0FBECDBF3C01DB016536BF
:10163000710560F5FC0180819181FC01228133817B
:10164000448155810E94AA1A24E630E040E050E02F
:101650000E94691AD3015B962D933D934D935C9341
:101660005E972E960FB6F894DEBF0FBECDBFDF910A
:10167000CF911F910F91FF90EF90DF90CF90BF908F
:10168000AF909F908F907F906F900895DC0112969D
:10169000ED91FC91238130E050E040E08481958120
:1016A000A681B78189839A83AB83BC83BC01CD01BA
:1016B0000E94471AC901D3015B961D921D921D928B
:1016C0001C925E9750968D909C90F40110E000E083
:1016D000A190B1908A159B0508F4B2C0D301ED9199
:1016E000FC9182819381A481B5818D839E83AF8398
:1016F000B8870115110531F4F301838F948FA58FFD
:10170000B68FAFCFC901B0E0A0E089839A83AB83E5
:10171000BC83B901CD010E94AE1B6B017C01950118
:1017200050E040E029833A834B835C83CA01B501D2
:101730000E94AE1B9B01AC01C982DA82EB82FC8263
:1017400069817A818B819C810E94B01A6B017C0136
:10175000F801E150F048EE0FFF1FE80DF91D808100
:1017600091818A199B099C0150E040E029833A83CA
:101770004B835C83CA01B9010E94AE1B9B01AC0183
:10178000C982DA82EB82FC8269817A818B819C81B9
:101790000E94151B6B017C01C801110FAA0BBB0B2A
:1017A00089839A83AB83BC83BC01CD010E94B01BAB
:1017B0009B01AC0160E070E080EA91E40E94B01A05
:1017C0009B01AC01C982DA82EB82FC8269817A8159
:1017D0008B819C810E94B11A7B018C016D817E817D
:1017E0008F8198850E94B01B20E030E040EA51E4F0
:1017F00069837A838B839C8369817A818B819C81C5
:101800000E94151B9B01AC01E982FA820B831C83A9
:1018100069817A818B819C810E94811C69837A8392
:101820008B839C8369817A818B819C810E947D1B43
:10183000D3015B966D937D938D939C935E9711CFAF
:101840000F5F1F4F0531110509F042CF0ACFFC0190
:10185000972F752F862F0190F081E02D468B578BA7
:10186000608F918F338F228F642F0895FC01A081A8
:10187000B1819C964C9150E030E020E08FEF9FE7E3
:10188000BA01022E02C0759567950A94E2F760FFCF
:101890000FC0A481B581B9016C5D7F4F660F771FC2
:1018A000A60FB71F6D917C91681779070CF4CB01D7
:1018B0002F5F3F4F2330310519F70895FC01A081B8
:1018C000B1819C964C9150E030E020E080E090E8BF
:1018D000BA01022E02C0759567950A94E2F760FF7F
:1018E0000FC0A481B581B9016C5D7F4F660F771F72
:1018F000A60FB71F6D917C91861797070CF4CB014B
:101900002F5F3F4F2330310519F70895AF92BF92F3
:10191000CF92DF92EF92FF920F931F93CF93DF93BB
:1019200000D000D000D0CDB7DEB76D837E839C01A0
:1019300050E040E029833A834B835C83CA01B901BC
:101940000E94AE1B21E835E943EC5EE369837A83AC
:101950008B839C8369817A818B819C810E94811C0D
:1019600069837A838B839C8369817A818B819C8153
:101970000E94821B69837A838B839C83A981BA81AD
:10198000CD01B0E0A0E089839A83AB83BC83BC0126
:10199000CD010E94AE1B7B018C0120E030E44CE1C4
:1019A00056E46983FA828B831C8369817A818B81F7
:1019B0009C810E94811C5B016C019701A80160E081
:1019C00070E48EE495E40E94B01A9B01AC01A982F8
:1019D000BA82CB82DC8269817A818B819C810E9470
:1019E000151B69837A838B839C8369817A818B81C0
:1019F0009C810E94821B0E94AE1B20E030E44CE1DF
:101A000056E469837A838B839C8369817A818B8195
:101A10009C810E94151B69837A838B839C836981D7
:101A20007A818B819C810E94411C7B018C014D81BC
:101A30005E819A0150E040E029833A834B835C83C6
:101A4000CA01B9010E94AE1B9B01AC0160E070E0CD
:101A500080E89FE30E94151B9701A80169837A83A0
:101A60008B839C8369817A818B819C810E94811CFC
:101A70002FE03FEC4BE55BE369837A838B839C83A8
:101A800069817A818B819C810E94B11A9B01AC0192
:101A900060E070E080E89FE30E94151B23E333E9D8
:101AA00048E853E469837A838B839C8369817A81D4
:101AB0008B819C810E94B01A20E030E040E251E42A
:101AC00069837A838B839C8369817A818B819C81F2
:101AD0000E94811C69837A838B839C8369817A81CC
:101AE0008B819C810E947D1BCB0126960FB6F894BA
:101AF000DEBF0FBECDBFDF91CF911F910F91FF9041
:101B0000EF90DF90CF90BF90AF900895EF92FF924B
:101B10000F931F93CF93DF930F92CDB7DEB78C0156
:101B2000E62EF42ECE0101960E94EC19F801E68211
:101B3000F78260E180E04BDD6E2D49DD6F2D47DDE2
:101B4000F8018087A8014A5F5F4F23E068E0CE017B
:101B500001960E94011ACE0101960E94FB190F9076
:101B6000DF91CF911F910F91FF90EF9008952F92E9
:101B70003F924F925F926F927F928F929F92AF921D
:101B8000BF92CF92DF92EF92FF920F931F93CF936A
:101B9000DF93CDB7DEB729970FB6F894DEBF0FBE3F
:101BA000CDBF8C010E9401036E837F838887998754
:101BB000D801CD90DC901197F60182A91296AD90D4
:101BC000BC901397882309F41BC193968C9193972B
:101BD000811116C11496ED90FC9081A9882329F0FB
:101BE000D50112968C91823021F1F60145A856A8B4
:101BF000712C612CF70181859285A385B4852E8196
:101C00003F8148855985281B390B4A0B5B0B2E8376
:101C10003F8348875987CA01B90128EE33E040E085
:101C200050E00E94471A24153505460557050CF467
:101C3000E7C0D7011796EC911797F0E07596EE0F75
:101C4000FF1FEE0DFF1D20813181F60183A994A9AC
:101C50008217930708F0D4C018968C9190E04596AF
:101C6000880F991FE80EF91ED7018D919C91281BB2
:101C7000390B83AD8217130608F0C2C0F501108A34
:101C8000118A128A138A512CF12CE12C9AE2A92E86
:101C9000B12C9E012F5F3F4F6901F801A481B581EE
:101CA0004D018A0C9B1C712C612CF4016191719186
:101CB0004F01643FF1E07F07E8F11896EC91189727
:101CC000F0E07596EE0FFF1FEA0FFB1F80819181F8
:101CD0009B01281B390BC901F80120813181F901D1
:101CE00023AD2817190630F5862D90E09601280FB0
:101CF000391F0097D1F01C01F1E02F1A3108F901CA
:101D00004290AF01F701E40DF11D7596EE0FFF1F34
:101D1000EA0FFB1F0190F081E02DE617F70728F48A
:101D2000F90140829A01C101E4CF8C0D9D1DFC0197
:101D3000708263947394F5E07F12B7CFF60150E0A0
:101D400040E08E2F8C198615E0F4819121E030E07F
:101D500002C0220F331F8A95E2F7C901842B952B0D
:101D6000BC01660F771F642375239A01220F331F6E
:101D700028233923262B372B232B09F0CA01AC014A
:101D8000E0CFD8011296ED91FC913A010E2C02C0E1
:101D9000660C771C0A94E2F7912C812C808991893A
:101DA000A289B38986299729A829B929808B918B83
:101DB000A28BB38B5394652DC801A8DEBAE0AB0E9D
:101DC000B11CE5E0EE0EF11CF3E05F1266CF299640
:101DD0000FB6F894DEBF0FBECDBFDF91CF911F913C
:101DE0000F91FF90EF90DF90CF90BF90AF909F90BA
:101DF0008F907F906F905F904F903F902F900895BD
:101E0000F50180899189A289B389892B8A2B8B2B33
:101E1000F1F240E061E0C80179DE40E062E0C80133
:101E200075DE40E063E0C80171DED8011296ED91E5
:101E3000FC91108A118A128A138AC9CFCF92DF923D
:101E4000EF92FF920F931F93CF93DF9300D000D0B8
:101E50000F92CDB7DEB78C01942F852FAB01D8013F
:101E6000ED91FC9192878387648755873787268712
:101E70001D82C5A4D6A4E7A4F0A8292F382FC70136
:101E8000B6010E94241A69837A838B839C8320E4A1
:101E900032E44FE050E00E94471AEEE1F1E087E0C3
:101EA0009291291780F187708D838D8188618D8350
:101EB000482F66E0C8012ADEAD81A770EA2FF0E066
:101EC000EA5EFE4FA081B0E020E432E44FE050E053
:101ED0000E94A01AD801ED91FC9125A536A547A531
:101EE00050A90E94471ACA01B9010F900F900F9094
:101EF0000F900F90DF91CF911F910F91FF90EF9076
:101F0000DF90CF900895815059F6CFCFCF92DF92D6
:101F1000EF92FF920F931F93CF93DF9300D000D0E7
:101F20000F92CDB7DEB78C01942F852FAB01D8016E
:101F3000ED91FC91908B818B628B538B358B248B35
:101F40001D82C5A4D6A4E7A4F0A8292F382FC70165
:101F5000B6010E94241A69837A838B839C8320E4D0
:101F600032E44FE050E00E94471AE6E1F1E08FE0F2
:101F70009291291798F18F709D81907F982B9D8366
:101F8000AD81A067AD834A2F67E0C801BFDDBD8189
:101F9000BF70EB2FF0E0EA5FFE4FA081B0E020E4DD
:101FA00032E44FE050E00E94A01AD801ED91FC917C
:101FB00025A536A547A550A90E94471ACA01B9010F
:101FC0000F900F900F900F900F90DF91CF911F9176
:101FD0000F91FF90EF90DF90CF900895815041F6E0
:101FE000CFCFCF92DF92FF920F931F93CF93DF93C8
:101FF0000F92CDB7DEB78C01F62ECE0101960E946E
:10200000EC19F801F6826801F6E0CF0ED11C21E050
:10201000A60168E0CE0101960E94011A22E0A60105
:1020200068E0CE0101960E94121AF801F68061E183
:1020300080E0CDDA6F2DCBDAF80197819813EECFDF
:10204000CE0101960E94FB198F2D0F90DF91CF9149
:102050001F910F91FF90DF90CF9008951F93CF9322
:10206000DF93EC01EA81FB8182E3DF011D928A9517
:10207000E9F7EA81FB8181E0808349E16BE0CE01F1
:1020800045DD6BE0CE01ADDF893151F0BFED23E9D5
:1020900084E0B15020408040E1F700C00000EDCF67
:1020A00048E164E0CE0132DD40E465E0CE012EDDA2
:1020B00040E061E0CE012ADD40E062E0CE0126DDB5
:1020C00040E063E0CE0122DD61E5CE018ADFEC81F4
:1020D000FD81828360E5CE0184DF182F69E5CE01A2
:1020E00080DFEC81FD81212F30E0220F331F28712A
:1020F000332790E045E0959587954A95E1F7282BA1
:10210000392B23593E4F31832083DF91CF911F918B
:102110000895CF93DF93EC01609570958A859B8538
:10212000682379237B876A878E8581110CC0672B92
:1021300051F465E0CE0155DF482F416065E0CE01E6
:10214000E5DC81E08E87DF91CF910895CF93DF9317
:10215000EC018A859B85682B792B7B876A878E8526
:10216000882359F0672B49F065E0CE013ADF482F0C
:102170004E7F65E0CE01CADC1E86DF91CF910895C7
:10218000CF93DF93EC01609570958C859D856823D6
:1021900079237D876C878F8581110CC0672B51F463
:1021A00065E0CE011EDF482F426065E0CE01AEDC67
:1021B00081E08F87DF91CF9108950F931F93CF9385
:1021C000DF9300D000D000D0CDB7DEB78C01DC01AA
:1021D00093968C9185FF32C00E94010369837A83B4
:1021E0008B839C83D8011496ED91FC91E25BFF4FA9
:1021F00080819181A281B38129813A814B815C8167
:10220000281B390B4A0B5B0BDA01C901893B9B4048
:10221000A105B10598F040E260E0C80177DC61E01B
:1022200070E0C80176DF61E070E0C801A9DFD80185
:1022300093968C9193978F7D93968C93F80183A1BD
:1022400084FF13C040E160E0C80160DC62E070E040
:10225000C8015FDF62E070E0C80192DFD8019396A9
:102260008C9193978F7E93968C93F80183A183FF33
:1022700025C00480F581E02D808590E04596880F8B
:10228000991F8E0F9F1FF801A081B181FC01208151
:10229000318190968D919C918217930778F448E054
:1022A00060E0C80133DC64E070E0C80169DFD80198
:1022B00093968C919397877F93968C93F80183A143
:1022C00082FF25C00480F581E02D878190E045964E
:1022D000880F991F8E0F9F1FF801A081B181FC010B
:1022E000208131815C968D919C912817390778F473
:1022F00044E060E0C8010ADC68E070E0C80109DF82
:10230000D80193968C9193978B7F93968C93F80139
:1023100083A181FF2EC00E94010369837A838B838E
:102320009C83D8011496ED91FC91E25AFF4F808175
:102330009181A281B38129813A814B815C81281BE3
:10234000390B4A0B5B0BDA01C90181319742A105B8
:10235000B10578F042E060E0C801D8DB60E170E0F0
:10236000C8010EDFD80193968C9193978D7F939639
:102370008C93F80183A180FF2EC00E940103698322
:102380007A838B839C83D8011496ED91FC91EE594E
:10239000FF4F80819181A281B38129813A814B8154
:1023A0005C81281B390B4A0B5B0BDA01C9018131B7
:1023B0009742A105B10578F041E060E0C801A6DBD5
:1023C00060E270E0C801DCDED80193968C919397AF
:1023D0008E7F93968C9326960FB6F894DEBF0FBE31
:1023E000CDBFDF91CF911F910F910895CF93DF93D0
:1023F000EC018C859D85682B792B7D876C878F857B
:10240000882359F0672B49F065E0CE01EADD482FBB
:102410004D7F65E0CE017ADB1F86DF91CF91089575
:10242000DF92EF92FF920F931F93CF93DF9300D031
:1024300000D000D0CDB7DEB78D839E837B018A01AB
:10244000AD81BE81ED91FC91119771A360A353A35F
:1024500042A368E0CD01C5DDD82EAD81BE811496C2
:10246000ED91FC9182819701281B310987FD3395FD
:10247000A8EEB3E00E948B1A69837A838B839C83D6
:102480002081318150E040E00E94471A94E0569547
:102490004795379527959A95D1F733277901BFEF5F
:1024A000EB1AFB0A4E2D6AE08D819E812FDBED2D0C
:1024B000EF73DE2E00311105E0F50830110508F04C
:1024C00042C091E004301105A8F54D2D68E08D81E2
:1024D0009E811CDBAD81BE8114960D90BC91A02D18
:1024E000BE83AD83970184E0220F331F8A95E1F705
:1024F00030610D90BC91A02D0E948B1A28EE33E024
:1025000040E050E0C4D7ED81FE818281082E000CAE
:10251000990B820F931F26960FB6F894DEBF0FBE5D
:10252000CDBFDF91CF911F910F91FF90EF90DF9082
:10253000089593E09295990F990F907CFD2DFF736C
:10254000DF2ED92AC2CF92E0F5CFBF92CF92DF9291
:10255000EF92FF920F931F93CF93DF9300D000D0A1
:1025600000D0CDB7DEB78D839E837B018A01AD811C
:10257000BE81ED91FC911197758F648F578F468FB7
:1025800068E0CD012EDDB82EAD81BE811496ED91AF
:10259000FC9182819701281B310987FD3395A8EEB4
:1025A000B3E0B9D769837A838B839C83208131819F
:1025B00050E040E06CD769017A0194E0F694E7942A
:1025C000D794C7949A95D1F74C2D69E08D819E815F
:1025D0009DDABB2DBF7CBB2E0830110508F044C02E
:1025E0000430110508F048C081E00230110508F000
:1025F0003CC04B2D68E08D819E8188DAAD81BE8123
:1026000014960D90BC91A02DBE83AD8384E0CC0CBC
:10261000DD1C8A95E1F7B0EFCB22BFE0DB2296010B
:102620003062ED81FE81A081B18175D728EE33E063
:1026300040E050E02CD7AD81BE8112968C91082EDF
:10264000000C990B820F931F26960FB6F894DEBFED
:102650000FBECDBFDF91CF911F910F91FF90EF90F3
:10266000DF90CF90BF90089583E08295807FEB2D1F
:10267000EF7CBE2EB82ABDCF82E0F7CFCF92DF929B
:10268000EF92FF920F931F93CF93DF930F92CDB7EB
:10269000DEB78C01F62ECE0101969ED6F801F682A9
:1026A0006801F6E0CF0ED11C21E0A60168E0CE0162
:1026B0000196A7D624E0A60168E0CE010196B2D625
:1026C000F801E68061E180E00E94E70A6E2D0E9439
:1026D000E70AF80197819813EDCFF0846F2D80E021
:1026E0000E94E70AF80191859813E4CFCE01019684
:1026F00082D69E2D8F2D0F90DF91CF911F910F913C
:10270000FF90EF90DF90CF9008950F931F93CF939A
:10271000DF93EC01E881F981E65AFF4F00811181D6
:102720006CE2ACDFB801F2D8EC81FD81E85BFF4FD1
:1027300091838083E881F981E45AFF4F0081118100
:102740006EE2CE019BDFB801E1D8EC81FD81E65B52
:10275000FF4F91838083E881F981E45AFF4F008124
:10276000118160E3CE018ADFB801D0D8EC81FD8110
:10277000E45BFF4F91838083DF91CF911F910F9195
:1027800008956F927F928F929F92AF92BF92CF9255
:10279000DF92EF92FF921F93CF93DF9300D000D090
:1027A00000D0CDB7DEB73C0160E01BDC182F87FFFF
:1027B0003EC162E3C30162DFD3011296ED90FC904B
:1027C0001397CD90DC9028EF30E2DC01B3D6F60110
:1027D00025A536A547A550A97CD629833A834B83E6
:1027E0005C83D7011A962D933D934D935C931D976F
:1027F000CA01B90124E030E040E050E06AD6F301BC
:10280000838D948DA58DB68D820F931FA41FB51F48
:10281000838F948FA58FB68FF60142815381648197
:102820007581481759076A077B073CF4D3015B960B
:102830004D935D936D937C935E97F301838D948D9F
:10284000A58DB68DB7FF04C0138E148E158E168E0F
:10285000D7011A962D913D914D915C911D97298339
:102860003A834B835C8357FF2CC0CA01B90124E033
:1028700030E040E050E02DD6F301878D90A1A1A17A
:10288000B2A1821B930BA40BB50B878F90A3A1A3BE
:10289000B2A3F601428153816481758148175907BB
:1028A0006A077B0774F4D3011496ED91FC91838140
:1028B0009481019694838383F301178E10A211A251
:1028C00012A2D7011A964D915D916D917C911D9741
:1028D00012968C911297F60187A890ACA1ACB2AC7D
:1028E00084169506A606B7060CF096C0811163C043
:1028F00081E012968C93D3011496ED90FC900E9487
:102900000103F701658776878787908BD30112963D
:10291000AD90BC901397F50142855385648575850C
:102920002D913C91CA0157FF04C088279927841B29
:10293000950B092E000CAA0BBB0BF901C7A8D0AC54
:10294000E1ACF2ACC816D906EA06FB06B0F477FD96
:1029500008C081A9882329F0D50112968C91823074
:1029600061F0F301E480F5800E940103D70119961C
:102970006D937D938D939C931C971F7329F4D301C2
:102980001296ED91FC91108240E860E0C30126961A
:102990000FB6F894DEBF0FBECDBFDF91CF911F9170
:1029A000FF90EF90DF90CF90BF90AF909F908F906F
:1029B0007F906F90ABC8813009F0A8CF0E940103CF
:1029C00069837A838B839C83D3011496ED91FC9168
:1029D00085859685A785B08929813A814B815C815F
:1029E000281B390B4A0B5B0BDA01C90181369A4E61
:1029F000A105B10508F48ACFD3011296ED91FC919F
:102A0000139782E082831496ED91FC9185819681E3
:102A10000196968385837ACF823031F44A3051050E
:102A2000610571050CF072CFF70112826FCF269607
:102A30000FB6F894DEBF0FBECDBFDF91CF911F91CF
:102A4000FF90EF90DF90CF90BF90AF909F908F90CE
:102A50007F906F900895EF92FF921F93CF93DF9333
:102A600000D000D000D0CDB7DEB78D839E83AD817E
:102A7000BE811296ED91FC9113978081811105C062
:102A800093968C91882309F4E9C060E08D819E8142
:102A9000A8DA182F87FF03C08D819E8172DE812FF7
:102AA0008F7309F4EAC0ED81FE8183A185FD25C005
:102AB00015FF23C0178616868285938581609387CC
:102AC000828784859585816095878487DF0104806E
:102AD000F581E02D81898F5F818B1496ED90FC90BC
:102AE0000E94010369837A838B839C83F701E25BF5
:102AF000FF4F6083718382839383ED81FE8183A185
:102B000084FD25C014FF23C0178616868285938511
:102B10008260938782878485958582609587848784
:102B2000DF010480F581E02D82898F5F828B14960E
:102B3000ED90FC900E94010369837A838B839C83D0
:102B4000F701EE5AFF4F608371838283938313FFF3
:102B50001FC0ED81FE8117868485958584609587E9
:102B60008487DF010480F581E02D83898F5F838B6B
:102B70001496ED90FC900E94010369837A838B8305
:102B80009C83F701EA5AFF4F6083718382839383AA
:102B900012FF1FC0ED81FE811686828593858860B5
:102BA00093878287DF010480F581E02D84898F5F20
:102BB000848B1496ED90FC900E94010369837A83C4
:102BC0008B839C83F701E65AFF4F60837183828376
:102BD000938311FF1FC0ED81FE8117868485958543
:102BE000806195878487DF010480F581E02D8589E8
:102BF0008F5F858B1496ED90FC900E940103698392
:102C00007A838B839C83F701E25AFF4F6083718341
:102C10008283938310FF1FC0ED81FE811786848518
:102C20009585806295878487DF010480F581E02D9A
:102C300086898F5F868B1496ED90FC900E9401032D
:102C400069837A838B839C83F701EE59FF4F6083FE
:102C5000718382839383ED81FE8113A3ED81FE81D5
:102C600083A126960FB6F894DEBF0FBECDBFDF91CD
:102C7000CF911F91FF90EF900895AD81BE81939603
:102C80001C92ECCF2F923F924F925F926F927F9265
:102C90008F929F92BF92CF92DF92EF92FF920F930B
:102CA0001F93CF93DF93CDB7DEB729970FB6F89474
:102CB000DEBF0FBECDBF8C01CE0101968DD38CE05F
:102CC000D80116968C934801B6E08B0E911C21E03A
:102CD000A40168E0CE01019694D3D8011496ED9139
:102CE000FC91159717821496ED91FC911086F12CAA
:102CF000E12CB12CE8EE2E2EE3E03E2E412C512C9F
:102D000024E0A40168E0CE0101968CD3F801D680BE
:102D10006D2C712C762C66246624FFE37F2261E102
:102D200080E00E94E70A6D2D0E94E70AD8011796FD
:102D30009C911797981322C118966C91662A80E08F
:102D40000E94E70AF8019185981318C10280F38167
:102D5000E02DC7010A96880F991FE80FF91F7182AD
:102D60006082D8011496CD90DC901597ED91FC917E
:102D7000C7014E96880F991FE80FF91FD6011296CA
:102D80008C91129720813181F901E80FF11D87FDA7
:102D9000FA95FB83EA830D90BC91A02D9301BBD3E0
:102DA0006E837F8388879987A201910170D38A817E
:102DB0009B81280F391FC7014596AC01440F551F51
:102DC000F601E40FF51F31832083243F3140E0F109
:102DD0006E2DF601EB0DF11DE38EF801A481B58196
:102DE0004A0F5B1F1796EC911797F0E07596EE0F60
:102DF000FF1F6F01CA0EDB1EFA0120813181F6012F
:102E0000408151814217530710F41796EC92F80154
:102E1000A481B581880F991F8A0F9B1F1896EC918A
:102E20001897F0E07596EE0FFF1F9F012A0F3B1FCA
:102E3000FC0180819181F901208131818217930702
:102E400010F418966C93B394FFEFEF1AFF0A4FE05B
:102E5000E416F10409F054CFD8011296ED91FC91DB
:102E60001397B3821296ED90FC906AE2C80106DCDB
:102E7000F70191878087D80114966D907C90159703
:102E80001296ED90FC90F701D380D3012D913C91E7
:102E9000A085B18540D3DC01CB0122E0880F991FCA
:102EA000AA1FBB1F2A95D1F78A839B83AC83BD835E
:102EB000BC01CD0153D420E030E04AE754E46A83FA
:102EC0007B838C839D836A817B818C819D81ADD343
:102ED0004B01B82EC92ED30112962C914D2D2403EF
:102EE00090011124C901330FAA0BBB0B8A839B836A
:102EF000AC83BD83BC01CD0133D49B01AC018A827C
:102F00009B82BC82CD826A817B818C819D8129D309
:102F10006A837B838C839D836A817B818C819D8185
:102F2000F1D3462F572FBC01D70114964D935D93D3
:102F30006D937C931797D801ED91FC912085318595
:102F4000D29EC001D39E900D1124B0E0A0E0F80104
:102F5000481759076A077B0760F18289803F29F487
:102F600064E670E0C8010E94FF0AD80152968C9175
:102F700052978F3F19F08F5F52968C93CE01019636
:102F80003AD229960FB6F894DEBF0FBECDBFDF91BF
:102F9000CF911F910F91FF90EF90DF90CF90BF9056
:102FA0009F908F907F906F905F904F903F902F9069
:102FB0000895128AE3CFCF92DF92EF92FF920F93A0
:102FC0001F93CF93DF93CDB7DEB72E970FB6F8944C
:102FD000DEBF0FBECDBF6C010E94360CD601ED9056
:102FE000FC9011971A960D911C9100271170F70112
:102FF00024A135A1821793075CF0C6010E945E0CE4
:10300000D70196962D913C91281739070CF03FC0B7
:10301000012BE1F460E071E0C60198D8D601149666
:10302000ED91FC911597818D8F5F818F14960D9195
:103030001C910E94010369837A838B839C83F8012E
:10304000E259FF4F6083718382839383C6010E949C
:10305000360CF601E080F180048515850078112793
:10306000D70198962D913C9182179307BCF0C60129
:103070000E945E0CF70122A533A52817390774F0CA
:10308000012B51F160E870E0C6017AD825C0012B10
:10309000E9F260E071E0C6013CD8D8CF012BE1F441
:1030A00060E870E0C601A2D9D6011496ED91FC91BA
:1030B0001597808D8F5F808F14960D911C910E94C3
:1030C000010369837A838B839C83F801E659FF4F60
:1030D0006083718382839383D6011296ED91FC9174
:1030E00013978D919C914285538564857585DC018C
:1030F00056960D911D912D913C91599704171507E6
:103100002607370708F075C0F601178A108E118E52
:10311000128E8685882309F45DC08285938591FD92
:1031200059C083899489A589B689892B8A2B8B2BD1
:1031300069F40E9401036F83788789879A87D60193
:1031400053966D937D938D939C9356970E940103A4
:1031500069837A838B839C83F60183899489A5890B
:10316000B68949815A816B817C81481B590B6A0B56
:103170007B0B0190F081E02D828D938DB0E0A0E07B
:1031800084179507A607B70738F0D6011296ED9178
:10319000FC9181818823F1F060E072E0C6010E9419
:1031A000A610D6011496ED91FC911597828D8F5F34
:1031B000828F1496ED91FC91FE83ED830E940103B2
:1031C0002D813E812E583F4FD9016D937D938D9374
:1031D0009C9313972E960FB6F894DEBF0FBECDBF0B
:1031E000DF91CF911F910F91FF90EF90DF90CF90E3
:1031F0000895D60153961D921D921D921C925697CA
:1032000011821A968D919C911B9791FFE3CF57964F
:103210008D919D910D90BC91A02D892B8A2B8B2B8C
:1032200059F40E9401036B877C878D879E87F60186
:10323000678B708F818F928F0E94010369837A83DD
:103240008B839C83F6018789908DA18DB28D298116
:103250003A814B815C81281B390B4A0B5B0BDA01ED
:10326000C90181319742A105B10508F4B3CF60E0EF
:1032700072E0C6010E948910D60157961D921D92D8
:103280001D921C925A971296ED91FC9181E08183D8
:10329000A1CF1F93CF93DF93D82FC92FDCDB182F3B
:1032A0008D2F9C2FEFDC8D2F9C2F2FDA8D2F9C2FB5
:1032B0000E94B70D112321F08D2F9C2F0E94DD104D
:1032C0008D2F9C2F78DE812FDF91CF911F91089554
:1032D00008958F938FB78F939F93EF93FF93809170
:1032E000B900887F8833C1F1B8F4803269F040F4C6
:1032F000803161F18831A1F1883041F184E02DC045
:10330000883271F18033D1F784E98093BC008091D9
:10331000BC0084FDFCCF40C0803509F444C038F4C3
:10332000803409F452C0883449F784E916C08835DE
:1033300029F7E0914B02F0914C028091BB00808311
:1033400080914A02815080934A02EFCF80914902D6
:103350008093BB0085EC01C085EE8093BC001CC04F
:1033600080914A02882389F080914A02815080939B
:103370004A02E0914B02F0914C02CF0101969093EA
:103380004C0280934B028081E3CF84E98093BC00A0
:103390008091BC0084FDFCCFFF91EF919F918F91B4
:1033A0008FBF8F911895E0914B02F0914C02CF01A5
:1033B000019690934C0280934B028091BB008083D6
:1033C00080914A02815080934A0280914A02823061
:1033D00008F0C0CF85E8C1CFE4E6F0E080818F77C8
:1033E000808388B1806388B91092B90084E38093A8
:1033F000B80078940895E4E6F0E0808180688083E6
:103400000895660F6093490250934C0240934B021B
:1034100020934A0285EE8093BC008091BC0080FD21
:10342000FCCF0895660F61606093490250934C028F
:1034300040934B0220934A0285EE8093BC0080911A
:10344000BC0080FDFCCF0895DB018F939F9378D063
:10345000BF91AF91A29F800D911DA39F900DB29F30
:10346000900D11240895AA1BBB1B51E107C0AA1F90
:10347000BB1FA617B70710F0A61BB70B881F991F15
:103480005A95A9F780959095BC01CD010895A1E2C8
:103490001A2EAA1BBB1BFD010DC0AA1FBB1FEE1FCE
:1034A000FF1FA217B307E407F50720F0A21BB30B19
:1034B000E40BF50B661F771F881F991F1A9469F795
:1034C00060957095809590959B01AC01BD01CF01F1
:1034D0000895052E97FB16F400940FD057FD05D0E4
:1034E000D6DF07FC02D046F408C0509540953095D1
:1034F00021953F4F4F4F5F4F089590958095709560
:1035000061957F4F8F4F9F4F0895EE0FFF1F0590DE
:10351000F491E02D0994A29FB001B39FC001A39F35
:10352000700D811D1124911DB29F700D811D1124FC
:10353000911D0895F0DFB7FF0895821B930B089546
:10354000EADFA59F900DB49F900DA49F800D911D63
:1035500011240895B7FFF4CFF3DF821B930B089576
:103560005058BB27AA270ED04DC13ED130F043D1D1
:1035700020F031F49F3F11F41EF433C10EF4E095B6
:10358000E7FB29C1E92F4FD180F3BA176207730710
:103590008407950718F071F49EF567C10EF4E09565
:1035A0000B2EBA2FA02D0B01B90190010C01CA01FD
:1035B000A0011124FF27591B99F0593F50F4503EA8
:1035C00068F11A16F040A22F232F342F4427585F9A
:1035D000F3CF469537952795A795F0405395C9F7B2
:1035E0007EF41F16BA0B620B730B840BBAF091506A
:1035F000A1F0FF0FBB1F661F771F881FC2F70EC009
:10360000BA0F621F731F841F48F4879577956795DB
:10361000B795F7959E3F08F0B3CF9395880F08F0C4
:103620009927EE0F9795879508950CD0EBC0E3D0BE
:1036300040F0DAD030F021F45F3F19F0CCC05111E6
:1036400015C1CFC0F0D098F39923C9F35523B1F336
:10365000951B550BBB27AA2762177307840738F001
:103660009F5F5F4F220F331F441FAA1FA9F333D060
:103670000E2E3AF0E0E830D091505040E695001C14
:10368000CAF729D0FE2F27D0660F771F881FBB1FD0
:10369000261737074807AB07B0E809F0BB0B802DAA
:1036A000BF01FF2793585F4F2AF09E3F510568F0F6
:1036B00092C0DCC05F3FECF3983EDCF386957795D3
:1036C0006795B795F7959F5FC9F7880F911D9695F8
:1036D000879597F90895E1E0660F771F881FBB1F54
:1036E000621773078407BA0720F0621B730B840B01
:1036F000BA0BEE1F88F7E095089504D06894B111D5
:10370000B5C0089598D088F09F5790F0B92F9927A9
:10371000B751A0F0D1F0660F771F881F991F1AF0DC
:10372000BA95C9F712C0B13081F09FD0B1E00895C9
:103730009CC0672F782F8827B85F39F0B93FCCF34A
:10374000869577956795B395D9F73EF490958095D2
:10375000709561957F4F8F4F9F4F0895E89409C0F2
:1037600097FB3EF490958095709561957F4F8F4FB4
:103770009F4F9923A9F0F92F96E9BB279395F695CA
:10378000879577956795B795F111F8CFFAF4BB0F48
:1037900011F460FF1BC06F5F7F4F8F4F9F4F16C0AC
:1037A000882311F096E911C0772321F09EE8872F36
:1037B000762F05C0662371F096E8862F70E060E0F2
:1037C0002AF09A95660F771F881FDAF7880F96956B
:1037D000879597F9089597F99F6780E870E060E012
:1037E00008959FEF80EC089500240A94161617069A
:1037F00018060906089500240A94121613061406E2
:1038000005060895092E0394000C11F4882352F044
:10381000BB0F40F4BF2B11F460FF04C06F5F7F4FFC
:103820008F4F9F4F089557FD9058440F551F59F0E3
:103830005F3F71F04795880F97FB991F61F09F3F9D
:1038400079F087950895121613061406551FF2CFC6
:103850004695F1DF08C0161617061806991FF1CF16
:1038600086957105610508940895E894BB2766273D
:103870007727CB0197F908950EF0A6C0B2CF6894D0
:10388000AACFD9DFC8F39923D1F3C6F3DF93CF933F
:103890001F930F93FF92C92FDD2788232AF02197CA
:1038A000660F771F881FDAF720E030E040E85FEB13
:1038B0009FE3883920F0803E30F021968F7751DEEB
:1038C000E8E6F0E003C04DDEE5E9F0E08BD08B01E7
:1038D000BE01EC01FB2E6F5771097595771F880BA0
:1038E000990B3EDF28E132E741E35FE316D0AF2DCD
:1038F0009801AE01FF900F911F91CF91DF9142DEB1
:1039000081CF0BD07FCF70DF28F075DF18F09523C3
:1039100009F061CF66CF1124A9CF85DFA0F3959F71
:10392000D1F3950F50E0551F629FF001729FBB27A6
:10393000F00DB11D639FAA27F00DB11DAA1F649F52
:103940006627B00DA11D661F829F2227B00DA11D05
:10395000621F739FB00DA11D621F839FA00D611D8B
:10396000221F749F3327A00D611D231F849F600DAC
:10397000211D822F762F6A2F11249F5750408AF0E5
:10398000E1F088234AF0EE0FFF1FBB1F661F771F71
:10399000881F91505040A9F79E3F510570F01BCFF2
:1039A00065CF5F3FECF3983EDCF38695779567959E
:1039B000B795F795E7959F5FC1F7FE2B880F911D8F
:1039C0009695879597F908959F3F31F0915020F48F
:1039D000879577956795B795880F911D96958795EB
:1039E00097F90895DF93CF931F930F93FF92EF9270
:1039F000DF927B018C01689405C0DA2EEF018DDF28
:103A0000FE01E894A5912591359145915591AEF32C
:103A1000EF01B8DDFE019701A801DA9479F7DF9094
:103A2000EF90FF900F911F91CF91DF9108950F9329
:103A30001F93CF93DF938230910510F482E090E0E2
:103A4000E0914F02F091500230E020E0B0E0A0E0C1
:103A5000309799F42115310509F44AC0281B390B18
:103A600024303105D8F58A819B816115710589F172
:103A7000FB0193838283FE0111C040815181028149
:103A8000138148175907E0F04817590799F4109720
:103A900061F012960C93129713961C933296CF01F5
:103AA000DF91CF911F910F91089500934F021093D2
:103AB0005002F4CF2115310551F04217530738F069
:103AC000A901DB019A01BD01DF01F801C1CFEF01BE
:103AD000F9CF9093500280934F02CDCFFE01E20FB9
:103AE000F31F819391932250310939832883D7CFD3
:103AF00020914D0230914E02232B41F4209102017E
:103B00003091030130934E0220934D022091000129
:103B1000309101012115310541F42DB73EB7409197
:103B2000040150910501241B350BE0914D02F091E9
:103B30004E02E217F307A0F42E1B3F0B281739079C
:103B400078F0AC014E5F5F4F2417350748F04E0FF9
:103B50005F1F50934E0240934D02819391939FCFEC
:103B6000F0E0E0E09CCFCF93DF930097E9F0FC0119
:103B7000329713821282A0914F02B0915002ED0150
:103B800030E020E01097A1F420813181820F931F53
:103B900020914D0230914E022817390709F061C07B
:103BA000F0934E02E0934D02DF91CF910895EA0128
:103BB000CE17DF07E8F54A815B819E01411551056B
:103BC000B1F7E901FB83EA8349915991C40FD51FED
:103BD000EC17FD0761F4808191810296840F951F97
:103BE000E90199838883828193819B838A83F0E0B2
:103BF000E0E012968D919C9113970097B9F52D9165
:103C00003C911197CD010296820F931F20914D0296
:103C100030914E022817390739F6309751F5109236
:103C2000500210924F02B0934E02A0934D02BCCFAF
:103C3000D383C28340815181840F951FC817D90750
:103C400061F44E5F5F4F88819981480F591F5183FE
:103C500040838A819B81938382832115310509F0FA
:103C6000B0CFF0935002E0934F029ECFFD01DC01F4
:103C7000C0CF13821282D7CF0F931F93CF93DF93BE
:103C8000EC018B01892B51F4672B41F4F0E0E0E06B
:103C9000CF01DF91CF911F910F9108956EE070E0F9
:103CA00081E090E015D2FC01892B81F380E88383C9
:103CB0000115110571F01387028781E883838091D4
:103CC000510290915202892B21F4F0935202E09319
:103CD00051022097E9F2D187C08783818260838374
:103CE0008091530290915402892B91F6F0935402E3
:103CF000E09353028091550290915602892B41F630
:103D0000F0935602E0935502C3CFB0E0A0E0EAE89A
:103D1000FEE1C8C20F811885F80183818860838322
:103D2000AE01455F5F4F69857A85C80106D0F8010D
:103D30002381277F2383E4E0D1C2ABE0B0E0E2EA55
:103D4000FEE1A2C27C013B018A01FC0117821682BE
:103D5000838181FFBAC1CE0101965C01F701938195
:103D6000F30193FD859193FF81913F01882309F42D
:103D700049C1853239F493FD859193FF81913F01CB
:103D8000853221F4B70190E0DAD1E8CF912C212CD3
:103D9000312CFFE1F31538F08B3211F190F48032C1
:103DA00009F1833229F137FC3CC020ED280F2A307D
:103DB00050F536FE20C08AE0989E200D1124922EE8
:103DC00006C08D3291F0803371F7689430F8F301BA
:103DD00093FD859193FF81913F018111DACF21C03D
:103DE000689431F8689432F8F2CF689433F8EFCFE2
:103DF000689434F8ECCFEAE02E9E200D1124222E98
:103E0000689435F8E4CF8E3229F436FCFBC0689410
:103E100036F8DDCF8C3619F4689437F8D8CF883669
:103E2000B1F2982F9F7D95549330D8F0833691F15D
:103E30008337B1F1833509F05EC02801F2E04F0EFF
:103E4000511CF801C080D180692D70E036FC02C0A1
:103E50006FEF7FEFC60156D14C01689437F88201AD
:103E60000AC00C5F1F4FFFE3F98388248394912CD1
:103E70006501E89437F833FE2AC0522C811491046E
:103E800059F5552009F46ACFB70180E290E057D187
:103E90005A94F7CFF801808189830E5F1F4FE5CFD9
:103EA0002801F2E04F0E511CF801C080D180692D2D
:103EB00070E036FC02C06FEF7FEFC60135D14C01D8
:103EC0008201D7CFB70180E290E039D12A9428143B
:103ED000190409F0B8F7D1CFF60137FC859137FE08
:103EE00081916F01B70190E02AD151105A94F1E00D
:103EF0008F1A9108C3CF843619F0893609F073C040
:103F0000F80137FE67C060817181828193810C5F07
:103F10001F4FF32DFF763F2E97FF09C09095809598
:103F2000709561957F4F8F4F9F4F689437F82AE0C7
:103F300030E0A50134D1C82ECA188C2C432C36FE93
:103F40000CC0E89440F8C91440F434FE05C032FCBB
:103F500003C0F32DFE7E4F2E892C44FE90C0FE013F
:103F6000EC0DF11D8081803309F082C0242D297E63
:103F7000422E842D8870582E43FC8FC040FE89C08D
:103F80009C2C821418F42C0C922C981844FE8BC094
:103F9000B70180E390E0D3D042FE08C088E790E00C
:103FA00041FE02C088E590E0B701C9D0C91408F409
:103FB00086C0CA94D12C9FEFC91AD90ACA0CDB1C3F
:103FC000F60182916F01B70190E0B9D0AC14BD0445
:103FD000B9F757CF60817181072E000C880B990BC0
:103FE0000E5F1F4F96CFD32CE894D4F82AE030E030
:103FF000853731F1232D297FD22E8F36F9F040F409
:104000008835A1F0F701868197812B96E2E158C1AE
:10401000803749F08837B1F7D4FE02C06894D2F8EF
:1040200020E130E00DC06894D4F8F6CF34FE03C030
:10403000822F8660D82E20E132E002C028E030E0F6
:10404000F801D7FE0EC060817181828193810C5F7F
:104050001F4FA501A4D0C82ECA183D2CE89437F8EC
:104060006CCF6081718190E080E00E5F1F4FF1CFD7
:1040700042FC02C083947DCF839483947ACF842DB5
:10408000867809F476CFF6CFB70180E290E057D07A
:1040900083948214C8F3512C79CF522C581882146F
:1040A00008F474CFF8CF842D867809F47FCF8BE2A3
:1040B00041FE80E247FC8DE2B70190E076CFB70188
:1040C00080E390E03CD09A9471CF8FEF9FEF9DCF2B
:1040D0000F931F93CF93DF93869F8001879F100DCF
:1040E000969F100D1124C801A2DCEC01009721F06D
:1040F000A80170E060E011D0CE01DF91CF911F9157
:104100000F910895FC010590615070400110D8F79F
:10411000809590958E0F9F1F0895DC0101C06D93CF
:1041200041505040E0F70895FC016150704001900B
:104130000110D8F7809590958E0F9F1F08950F93CB
:104140001F93CF93DF93182F092FEB018B8181FDF4
:1041500009C01FEF0FEF812F902FDF91CF911F919B
:104160000F91089582FF14C02E813F818C819D8123
:10417000281739073CF4E881F981CF01019699832A
:10418000888310838E819F8101969F838E83E3CFE6
:10419000E885F985812F0995892BA1F3DACFFA01FA
:1041A000AA27283051F1203181F1E8946F936E7F76
:1041B0006E5F7F4F8F4F9F4FAF4FB1E03ED0B4E067
:1041C0003CD0670F781F891F9A1FA11D680F791FA8
:1041D0008A1F911DA11D6A0F711D811D911DA11DB9
:1041E00020D009F468943F912AE0269F11243019C9
:1041F000305D3193DEF6CF010895462F4770405D64
:104200004193B3E00FD0C9F7F6CF462F4F70405D12
:104210004A3318F0495D31FD4052419302D0A9F76D
:10422000EACFB4E0A6959795879577956795BA9567
:10423000C9F700976105710508959B01AC010A2E2D
:1042400006945795479537952795BA95C9F7620F04
:10425000731F841F951FA01D0895DC01CB0102C0B0
:104260002D9105D041505040D8F70895262FF99947
:10427000FECF1FBA92BD81BD20BD0FB6F894FA9A49
:10428000F99A0FBE019608952F923F924F925F9236
:104290006F927F928F929F92AF92BF92CF92DF9256
:1042A000EF92FF920F931F93CF93DF93CDB7DEB7BB
:1042B000CA1BDB0B0FB6F894DEBF0FBECDBF09944F
:1042C0002A88398848885F846E847D848C849B84A6
:1042D000AA84B984C884DF80EE80FD800C811B81B4
:1042E000AA81B981CE0FD11D0FB6F894DEBF0FBEE3
:1042F000CDBFED010895F894FFCF4E045404570448
:0E4300005A045D0460046304660469046C04DE
:10430E00000057022000080B0E111316191C1F2156
:0E431E0024272A2C2F3216212C38434E5964A6
:10432C00040000001400000003000000474E55007C
:10433C00197F43036646CE77D510ADDA7AD0C5E83F
:04434C006C9A687F80
:00000001FF
