:10000000F9C100009FC200001CC200001AC200001B
:1000100018C2000089C300005CC4000012C20000C6
:1000200010C200001AC200000CC200000AC2000088
:1000300008C2000006C2000004C2000002C20000A4
:100040004EC40000FEC10000C6C40000FAC100009A
:1000500050C50000F6C10000F4C10000F2C100006C
:100060000C94531FEEC1000008000000BE9224490A
:10007000123EABAAAA2ABECDCCCC4C3E00000080DA
:10008000BEABAAAAAA3E00000000BF000000803F4D
:100090000000000000084178D3BB4387D1133D190D
:1000A0000E3CC3BD4282AD2B3E68EC8276BED98F3A
:1000B000E1A93E4C80EFFFBE01C4FF7F3F0000007E
:1000C00000000D0A20202020434847204F434420B1
:1000D0006572726F72733A20000D0A202020434827
:1000E000472054454D50206572726F72733A20005C
:1000F0000D0A4449534348472054454D50206572EA
:10010000726F72733A20000D0A2020204F43442062
:100110006572726F72733A20000D0A2020205343DB
:1001200044206572726F72733A20000D0A202020FD
:100130004F5650206572726F72733A20000D0A207C
:100140002020555650206572726F72733A20000D50
:100150000A20414C455254206572726F72733A20E6
:10016000000D0A585245414459206572726F7273EE
:100170003A2000207C2044656C74613A2000207C89
:10018000204D61783A2000207C204176673A20009B
:100190000D0A43656C6C206D563A204D696E3A200D
:1001A000000D0A00207261772909000D0A43656C71
:1001B0006C20766F6C74616765733A0D0A0020429B
:1001C000616C616E63696E67207374617475733AF4
:1001D0002000534F433A200020726177290D0A0016
:1001E000206D4120280020726177290D0A43757225
:1001F00072656E743A2000206D562028000D0A4268
:10020000415420566F6C746167653A20000D0A42B4
:1002100041542054656D702843293A200056657278
:1002200073696F6E20302E3120416C7068612E2012
:100230005553494E4720495420495320594F555250
:10024000205249534B210D0A00574954484F5554E9
:100250002057415252414E54494553204F5220435A
:100260004F4E444954494F4E53204F4620414E591A
:10027000204B494E44210D0A006E6F7433363520F1
:10028000656D756C6174696F6E206170702C2043B0
:100290006F70797269676874202863292032303260
:1002A0003220536572676579204B6F7374616E6F8E
:1002B000792C2068747470733A2F2F617264756999
:1002C0006E6F2E756E6F0D0A0009444953434847FF
:1002D000204449533A2020202020000D0A4348475B
:1002E000204449533A20202020202020200009418A
:1002F00044434F46465345543A20202020202000B6
:100300000D0A4144434741494E3A202020202020F5
:100310002020000930783241204241545F48495F33
:100320004C4F3A20000D0A307833322043435F4867
:10033000495F4C4F3A202000093078304220434337
:100340005F4346473A20202020000D0A3078304194
:100350002055565F545249503A20202000093078E9
:100360003039204F565F545249503A202020000D1A
:100370000A307830382050524F54454354332020AF
:10038000200009307830372050524F5445435432C2
:100390003A2020000D0A307830362050524F544514
:1003A0004354313A202000093078303520535953D6
:1003B0005F4354524C323A20000D0A3078303420DA
:1003C0005359535F4354524C313A2000093078302E
:1003D000312043454C4C42414C313A2020000D0A1B
:1003E00030783030205359535F535441543A2020D1
:1003F0000000C70311241FBECFEFD8E0DEBFCDBF82
:1004000011E0A0E0B1E0E2E9F6E402C005900D924F
:10041000A832B107D9F725E0A8E2B1E001C01D92EA
:10042000AA3AB207E1F711E0CAEFD1E004C0219780
:10043000FE010E94A720C93FD107C9F7CBD00C9479
:100440004723DECD789483E08093B00084E08093EE
:10045000B10081E08093700008951F921FB61F9233
:1004600011248F939F93AF93BF93809147049091F2
:100470004804A0914904B0914A040196A11DB11D00
:100480008093470490934804A0934904B0934A048E
:10049000809146049DE2980F9D37E8F490934604BE
:1004A00080914B0490914C04A0914D04B0914E0466
:1004B0000196A11DB11D80934B0490934C04A09311
:1004C0004D04B0934E04BF91AF919F918F911F90B7
:1004D0001FBE1F9018958055809346048091470455
:1004E00090914804A0914904B0914A040196A11D3D
:1004F000B11D8093470490934804A0934904B0939E
:100500004A04CECFCF93DF9300D000D0CDB7DEB773
:100510008FB7F894209147043091480440914904E2
:1005200050914A0429833A834B835C838FBF69814E
:100530007A818B819C810F900F900F900F90DF91AB
:10054000CF9108958F9381E0809337018F91189513
:10055000CF93DF93D82F61E088E291E00DD562EC74
:1005600070E080E091E01DD1DD23E1F0D15060E04A
:10057000D230C8F0CC2381F08091330190913401C6
:10058000A0913501B091360180932B0190932C01FD
:10059000A0932D01B0932E0160E088E291E0DF91FD
:1005A000CF91EAC461E088E391E00E940F0CC82F6C
:1005B000E1CF83E08093690081E08DBB0895EDE693
:1005C000F0E0808181608083E8E6F0E080818460F3
:1005D0008083089510922F01109230011092310102
:1005E0001092320110922B0110922C0110922D01C9
:1005F00010922E011092370114BE98D46FEF7FEF46
:1006000080E091E0E0D062EC70E080E091E0C9D061
:1006100019DF40E052EC61E070E085E494E0B4D191
:1006200060E080E091E0DFD088E06ED488E391E084
:10063000A7D688E391E00E94BA0DBBDF63DF462FA7
:10064000572FBC014093330150933401609335011F
:100650007093360180913701882321F080E078DFA4
:10066000109237018091330190913401A0913501AE
:10067000B091360140912F015091300160913101CC
:1006800070913201841B950BA60BB70B803D9740F0
:10069000A105B105B0F080912F0190913001A0919A
:1006A0003101B09132018053984FAF4FBF4F8093CB
:1006B0002F0190933001A0933101B093320181E07A
:1006C00047DF8091330190913401A0913501B091C1
:1006D000360140912B0150912C0160912D017091B8
:1006E0002E01841B950BA60BB70B88399A43A105E5
:1006F000B10560F062E870E080E091E064D05FDF17
:1007000066E080E091E0D4D01DD498CF82E020DF75
:10071000FBCFE8E6F0E080818B7F8083EDE6F0E0C0
:1007200080818E7F808308951F920F920FB60F9263
:1007300011242F933F934F935F936F937F938F93E6
:100740009F93AF93BF93EF93FF9380913301909169
:100750003401A0913501B091360180932B01909323
:100760002C01A0932D01B0932E01D3DFFF91EF91C7
:10077000BF91AF919F918F917F916F915F914F91B9
:100780003F912F910F900FBE0F901F90189588E307
:1007900091E0A9D622E040E263E270E088E291E0D5
:1007A000D3C390916400862F809589238093640041
:1007B00060FF08C080917A00806880937A0080B7DB
:1007C0008F7780BF089560FF08C080917A008F778F
:1007D00080937A0080B7806880BF80916400682B26
:1007E000609364000895FC0164830895FC0181E036
:1007F000818384818D7F41F080917A008F7780930F
:100800007A0080B7806880BF0895FC018091640001
:1008100080FD08C080917A00806880937A0080B75C
:100820008F7780BF1182089524E0629FC001112458
:1008300080726770862B886098E10FB6F894A8954F
:10084000909360000FBE80936000E0E6F0E080814E
:1008500080648083A8950895CF93DF93EC016A307C
:1008600008F4E2DF83B7817F9C81892B83BF83B744
:10087000816083BF8B818823A1F0789488950FB61F
:10088000F894A89580916000886180936000109230
:1008900060000FBEA89583B78E7F83BFDF91CF9195
:1008A0000895F89485B7806685BF8F7D85BFE5CFB5
:1008B0001F93CF93DF93D82FC92F162F97DF612F68
:1008C0008D2F9C2FC9DF8D2F9C2FDF91CF911F91F2
:1008D0009CCF8F9381E080934F048F9118951F9246
:1008E0001FB61F9211248F939F93AF93BF93809154
:1008F000510490915204A0915304B0915404019674
:10090000A11DB11D8093510490935204A0935304F0
:10091000B0935404809150049DE2980F9D37E8F401
:10092000909350048091550490915604A0915704DF
:10093000B09158040196A11DB11D80935504909368
:100940005604A0935704B0935804BF91AF919F9160
:100950008F911F901FBE1F90189580558093500453
:100960008091510490915204A0915304B091540489
:100970000196A11DB11D8093510490935204A09340
:100980005304B0935404CECF9A01AB0183E0220FFD
:10099000331F441F551F8A95D1F760E07BE187EB39
:1009A00090E00E944420215031093093C5002093EB
:1009B000C40082E08093C00088ED8093C10086E08F
:1009C0008093C2001092FB041092FC041092590410
:1009D00010925A0408952F932FB72F938F939F93BC
:1009E000EF93FF939091C000892F847092FF0AC00B
:1009F0008091C600FF91EF919F918F912F912FBF12
:100A00002F9118959091C6002091FC042F3918F46D
:100A10008091FC048F5F2091FB04281759F3E0912B
:100A2000FC04F0E0E350FB4F90838093FC04E2CFA2
:100A30009091FC048091FB04981781F0E091FB04F5
:100A4000F0E0E350FB4F80819091FB049F5F909317
:100A5000FB04903A20F01092FB0408958FEF089564
:100A60008091FC042091FB0490E080569F4F821BF4
:100A7000910960EA70E00C941D20089580915A0459
:100A80008F39C8F480915A048F5F282F30E02F5F90
:100A90003F4F9091590492171306D9F3909159043E
:100AA000981741F0E0915A04F0E0E55AFB4F60835B
:100AB00080935A04089580E0E8CF8091C00085FFBC
:100AC000FCCF90915A0480915904981789F0E091D5
:100AD0005904F0E0E55AFB4F9081809159048F5FF3
:100AE00080935904803A10F0109259049093C600F4
:100AF00008951F921FB61F9211248F939F93EF9317
:100B0000FF9390915A0480915904981789F0E091CD
:100B10005904F0E0E55AFB4F9081809159048F5FB2
:100B200080935904803A10F0109259049093C600B3
:100B3000FF91EF919F918F911F901FBE1F9018956D
:100B4000CF93DF93D82FC92F99DF8D2F9C2FDF9163
:100B5000CF91B3CFCF93DF93D82FC92F8FDF8D2FB6
:100B60009C2FDF91CF91A9CF2F923F924F925F920E
:100B70007F928F929F92AF92BF92CF92DF92EF922D
:100B8000FF920F931F93CF93DF93CDB7DEB72A97D2
:100B90000FB6F894DEBF0FBECDBF782EC92E042F3E
:100BA000F52EE62ED72ECE0101964C0110E05C0109
:100BB0008AE0282E312C412C512C602F7F2D8E2D38
:100BC0009D2DA20191010E944420F40161934F01E7
:100BD000802F9F2DAE2DBD2D022FF32EE42ED52E6E
:100BE0000A97A105B10520F01F5F1A3031F710E018
:100BF000F501E10FF11D17FDFA956081605D872D0C
:100C00009C2D3CDF1150A0F72A960FB6F894DEBF5A
:100C10000FBECDBFDF91CF911F910F91FF90EF904D
:100C2000DF90CF90BF90AF909F908F907F905F901C
:100C30004F903F902F900895EF92FF921F93CF9384
:100C4000DF93182FD92F7B01C0E0F701EC0FF11DC6
:100C50006081662329F0812F9D2F7CDFCF5FF5CF48
:100C6000DF91CF911F91FF90EF9008956F927F9247
:100C70008F929F92AF92BF92CF92DF92EF92FF92AC
:100C80000F931F93CF93DF93CDB7DEB7A1970FB626
:100C9000F894DEBF0FBECDBF3C01B42EA52E962E1C
:100CA000872E2A30B1F460DFA1960FB6F894DEBF2C
:100CB0000FBECDBFDF91CF911F910F91FF90EF90AD
:100CC000DF90CF90BF90AF909F908F907F906F906C
:100CD000089519A2223008F42AE08E010F5D1F4FFB
:100CE000C22ED12CF12CE12C6B2D7A2D892D982D33
:100CF000A70196010E9444208B2D9A2DA92DB82D75
:100D0000B22EA32E942E852E6A306CF4605DF8010D
:100D100062938F018C159D05AE05BF0528F7BF01B5
:100D2000C3018ADFC1CF695CF2CF242F462F50E088
:100D300070E060E09BCFBF92CF92DF92EF92FF9284
:100D40000F931F93CF93DF9300D000D000D0CDB787
:100D5000DEB78E839D83CA01DB0189839A83AB83CF
:100D6000BC83122F20E030E0A901BC01CD010E941C
:100D7000122187FF0DC06DE28E819D817FDE89810A
:100D80009A81AB81BC81B05889839A83AB83BC8341
:100D900069817A818B819C810E948321D62EE72EE6
:100DA000F82E092F462F572F682F792F8E819D817E
:100DB000DBDE6EE28E819D8161DE6D2D7E2D8F2DBD
:100DC000902F0E94AF219B01AC0169817A818B81B8
:100DD0009C810E94AD20E12CE116D1F120E030E0B1
:100DE00040E251E469837A838B839C8369817A81B1
:100DF0008B819C810E94A6226B01F82E092F6983AA
:100E0000DA828B839C8369817A818B819C810E94A9
:100E10008321B62E4AE08E819D8187DF8B2D90E065
:100E2000B0E0A0E089839A83AB83BC83BC01CD0191
:100E30000E94B1219B01AC01C982DA82FB820C8342
:100E400069817A818B819C810E94AD20E394C4CF1B
:100E500026960FB6F894DEBF0FBECDBFDF91CF91BF
:100E60001F910F91FF90EF90DF90CF90BF9008956A
:100E7000242FAB0170E060E0F9CEF8CECF92DF9284
:100E8000EF92FF921F93CF93DF93D82FC92F6A0160
:100E90007B01122FF7FE0AC06DE2F0DDF094E094C2
:100EA000D094C094C11CD11CE11CF11C212FB701AE
:100EB000A6018D2F9C2FDF91CF911F91FF90EF9076
:100EC000DF90CF90D3CE242F462F660F550B660BA5
:100ED000770BD4CF242FAB01770F660B770BCECFD8
:100EE000CDCF0F931F93CF93DF938C01EB01FE01C6
:100EF00064912196662319F0C80122DEF8CFDF91B4
:100F0000CF911F910F91089594E0899F9001112432
:100F100020728770282B286088E10FB6F894A89576
:100F2000809360000FBE2093600008950FB6F89480
:100F3000A8958091600088618093600010926000A5
:100F40000FBE0895A8950895DC01FB0111967C93CE
:100F50006E9312964C939181842F8095892381837F
:100F6000223021F48181482B41830895213019F4E6
:100F70008281482B42830895FC01A081B181928136
:100F800012968C911297662329F0982B12969C93B7
:100F9000CF01089590959823F9CFFC018281938128
:100FA000680F791F6838710510F068587109E60FED
:100FB000F11D84810895FC0182819381680F791F5E
:100FC0006838710540F473836283DF01A457BF4F13
:100FD0001C928281089568587109F5CF2F923F9233
:100FE0004F925F926F927F928F929F92AF92BF9239
:100FF000CF92DF92EF92FF920F931F93CF93DF93E5
:1010000000D000D0CDB7DEB78B839C83613009F070
:10101000A6C065E585E494E093DD6AEA85E494E0A2
:101020008FDD66E070E08B819C81B7DF22E0E22EED
:10103000E80E6E2D85E494E083DD65E285E494E0BE
:101040007FDD61E085E494E07BDD65E070E08B812D
:101050009C81A3DF282E682F85E494E071DD312C7C
:1010600086E2280E311C2E0C311C66E070E08B816C
:101070009C8193DF082F65E070E08B819C818DDF80
:101080008983902F91709A8310E016950795882E8A
:10109000912CF12CE12C2401400E511E8414950456
:1010A00018F53401E89467F87724660C771CEB8117
:1010B000FC816E0E7F1EFDE86F0E711CF301C08077
:1010C0006C2D85E494E03CDDF301A180B12CCA0CC9
:1010D000DB2CD11C6A2D85E494E032DDEC0CFD1C88
:1010E000FFEF8F1A9F0ADACF8A818823B1F08981B6
:1010F0008F5F080F0F7710E0000F111FEB81FC814D
:10110000E00FF11FE357FF4FF081F9836F2F85E464
:1011100094E016DD8981E80EF11CE20CF31CE094EA
:10112000F0946E2D85E494E00BDD6F2D85E494E062
:101130000F900F900F900F90DF91CF911F910F9113
:10114000FF90EF90DF90CF90BF90AF909F908F90E7
:101150007F906F905F904F903F902F90F1CC0F90C9
:101160000F900F900F90DF91CF911F910F91FF90F3
:10117000EF90DF90CF90BF90AF909F908F907F9037
:101180006F905F904F903F902F9008958F929F9215
:10119000AF92BF92CF92DF92EF92FF920F931F9385
:1011A000CF93DF93EC01888199812A813B81821B57
:1011B000930BFE01EF56FE4F97FD59C0918380833C
:1011C00080819181892B51F4DE01A457BF4F8C910E
:1011D000813021F488E890E0918380836E0181E77B
:1011E000C81A8EEFD80A82E090E0D6018D939C93C6
:1011F000A080B180B8E0AB16B10408F480C070E004
:1012000060E0CE01CADE8535A9F561E070E0CE016F
:10121000C4DE8A3A79F562E070E0CE01BEDE823843
:10122000C8F1D601ED90FC90C7010696A816B90644
:1012300008F465C04E01B3E78B1ABEEF9B0AF401B8
:101240001182108287010D5F1F4F023011053CF1A2
:10125000B801CE01A2DED4012D913C911197820FED
:10126000932F911D8D939C9301501109EECF8857B8
:101270009F4FA4CF61E070E0CE01DF91CF911F912D
:101280000F91FF90EF90DF90CF90BF90AF909F9025
:101290008F9091CE90E0F60191838083C2CFF401CC
:1012A000008111810095109511830083B7016C5F57
:1012B0007F4FCE0172DE980133278217130681F427
:1012C000B7016B5F7F4FCE0168DE012F11278017BA
:1012D000110631F463E070E0CE015FDE823211F07E
:1012E000B501CACF64E070E0CE0157DE682FCE01B1
:1012F00075DED6016D917C916A5F7F4FBDCFDF9126
:10130000CF911F910F91FF90EF90DF90CF90BF9002
:10131000AF909F908F9008950F931F93CF93DF937B
:10132000EC018C010E5E1E4F2E853F854A855B8544
:101330006C857D85C8010E94B6142A8D3B8D4E892F
:101340005F89688D798DC8018CD72C893D89488942
:1013500059896A897B89C8010E941E154AA15BA12F
:1013600068A179A1C8010E9462174E8D5F8D6C8DB6
:101370007D8DC801DF91CF911F910F910C94F817CB
:101380000F931F93CF93DF938C01EC01CE5EDE4F62
:10139000CE010E94C615CE010E941D1E64E670E0BB
:1013A000CE0137D660E470E0CE010E942116C8015C
:1013B000B3DFF801818160E470E0882339F0CE0169
:1013C000DF91CF911F910F910C945816CE01DF91B0
:1013D000CF911F910F910C944817FC0181E08083FD
:1013E000818397E094A748EE53E060E070E045A762
:1013F00056A767A770ABDF01A65ABF4F2BE63DE0AB
:1014000011963C932E93129611963C932E9312961E
:101410002D933C9320E13EE03783268344E550E161
:101420005187408740E45EE765E070E04283538384
:101430006483758344E650E060E070E047AB50AFF2
:1014400061AF72AF15A214A244EF51E057A346A3B7
:1014500048E35FEF51A740A74AE852E053A742A7ED
:1014600081AB82AB34AB23AB8AE083AF88E097E0FB
:1014700096AB85AB8CE795E1A0E0B0E0868B978BCF
:10148000A08FB18F88EB9BE0938F828F80E898E3E9
:10149000A1E0B0E082879387A487B58788EC90E0CD
:1014A0009787868780E49CE9A0E0B0E0808B918BF1
:1014B000A28BB38B80ED97E0958B848B88E690E1CF
:1014C000958F848F82E090E0978F868F22E23BE0B9
:1014D00031A320A393A382A3FC968EE1DF011D928A
:1014E0008A95E9F70895CF93DF93EC019C01295683
:1014F0003F4FAC014B595F4FBC018E5E9E4F2CD5C8
:10150000FE01EA5CFE4F1182108213821282E457C0
:10151000FF4F10823196CE018D539D4F1192119243
:10152000E817F907D9F7FE01ED51FE4F83E39AE47E
:1015300091838083329685E59DE491838083329602
:1015400081E49EE49183808332968FE494E59183D5
:101550008083329683E396E391838083329685E39A
:1015600092E49183808332968DE493E59183808326
:10157000329685E191E091838083329688EC99E1FF
:101580009183808370968AE29AE291838083B096F9
:1015900080819181816091838083389684E090E19D
:1015A0009183808332968EE29FE2918380833C9682
:1015B00083E690E0918380833A968CE19CE091836E
:1015C0008083329691838083329691838083329692
:1015D0009183808332969183808332969183808336
:1015E0003296918380833296918380833296918361
:1015F0008083329691838083EC58FF4F1082118252
:1016000012821382349610821182128213823496CF
:101610001082118212821382FB961082CE01DDDECF
:10162000FE01EB52FD4FDE01A656BF4F8D919C91FE
:10163000119791838083329612968D919C9191831C
:101640008083C752DD4F8FEF8883DF91CF9108955C
:10165000CF93DF939C01DC0180E08617E1F08F5F80
:10166000E82FF0E0EE0FFF1FE20FF31F982F961305
:1016700002C01296F2CF4D915C911197C081D18139
:10168000C417D50728F41196DC93CE935183408379
:101690009F5F3296ECCFDF91CF910895CF92DF928A
:1016A000EF92FF920F931F93CF93DF93EC018C0186
:1016B00006521D4F88509D4FF80111921192E81764
:1016C000F907D9F77F016E0144EFC41A4CEFD40A31
:1016D00011921192EC15FD05D9F7D6011C92DE018D
:1016E000AF53BF4F9E0121523F4F8D919D9181304D
:1016F000E1E09E0778F0F601508141E0450F40831C
:10170000E52FF0E0E359FE4FEE0FFF1FEC0FFD1F3A
:1017100091838083A217B30741F7D6016C91C8016A
:1017200097DFF60180818B3028F1FE01E65FFC4FE8
:10173000CC51DD4F90E0880F991FC297D8012D91B1
:101740003D918D015D963C932E935C97DF01A80F30
:10175000B91F2D913C913183208332970C171D07BF
:1017600069F7DF91CF911F910F91FF90EF90DF907C
:10177000CF9008958A3009F446C0F80120E050E087
:1017800040E0821731F061917191460F571F2F5F32
:10179000F8CF622F70E0CA010E941D20F70161930B
:1017A00071937F01EC15FD05C9F7822F869590E0B6
:1017B000891751F0D8014D915D918D015D965C9333
:1017C0004E935C979F5FF4CF8FEF820FA82FB0E00E
:1017D000A259BE4FAA0FBB1FAC0FBD1F3AE0321B70
:1017E000232FE22FE80F981708F0BBCF5E914E91A0
:1017F000F0E0E458FE4FEE0FFF1FEC0FFD1F51838A
:1018000040838150EECFC251DD4FF801819191911B
:101810008F01958F848FEC17FD07B9F7A2CF8F92B8
:101820009F92AF92BF92CF92DF92EF92FF920F936F
:101830001F93CF93DF9300D000D000D0CDB7DEB799
:101840004C01E62EF12C8C010A5C1E4F5C018EE3EC
:10185000A81A8EEFB80ACC24C39485E494E000D98A
:10186000D82E882361F185E494E0E2D8FF24F39434
:10187000D5019C919111F1CFF80120813181E20FC6
:10188000F31F8483C90101968838910590F4D8012B
:101890008D939C93FF24F394D8012D913C91119743
:1018A00012968D919C9128173907B9F6F501C082DF
:1018B000D4CF27583109F80131832083EBCFC801F9
:1018C00065DCF401EB59FF4FE0825401F7E3AF1AF6
:1018D000FDEFBF0A8091330190913401A091350151
:1018E000B0913601F5014081518162817381841B81
:1018F000950BA60BB70B8A3F9105A105B10508F41E
:101900001FC184010E5E1E4FC8010E941D1EE82EDD
:10191000882311F0FF24F3948091330190913401D6
:10192000A0913501B0913601F50180839183A283A6
:10193000B383C401B3DE83E690E0F401E75CFD4FBE
:1019400091838083E05DF14080819181A281B381A8
:1019500089839A83AB83BC83BC01CD012AE030E04C
:1019600040E050E00E944420F401ED5BFD4FC401D3
:10197000895A9D4FDF01AB54BF4F6D917C916193AC
:1019800071938E179F07B1F7F401E55DFD4F318329
:101990002083EC54F14080819181EAE0F0E0BF01C6
:1019A0000E94312024E1260FD401AF51BF4F8D9109
:1019B0009C91BF010E9431206C5E27FD20E067FFF3
:1019C000D62EF401E35DFD4F3D2D31832083E55B91
:1019D000FE4F940124573C4F88E6C82E80E1D82E54
:1019E000819191918C159D0508F46C012E173F078C
:1019F000B9F7F401ED5DFD4F808191814E2D44706A
:101A0000E2FEB2C092609183808320813181D40153
:101A1000A752BD4FE3FEAAC08C9131603183208371
:101A200081508C93442319F08C9181508C938C912C
:101A3000811102C0C80122D6F401E159FF4F808113
:101A40009181A281B381BC01CD012AE030E040E068
:101A500050E00E946620F401E75DFD4F3183208352
:101A60009CE1C91A9CE0D90AC601B0E0A0E08983D4
:101A70009A83AB83BC83B601CD010E94AF2125E3DD
:101A80003EE54AEB5DE369837A838B839C836981BE
:101A90007A818B819C810E94A62269837A838B83C1
:101AA0009C8369817A818B819C810E948321653628
:101AB00008F064E6262F30E0F401E95DFD4F318344
:101AC0002083F497A081B1810E94822069837A8368
:101AD0008B839C8324E630E040E050E00E94442069
:101AE000F401EB5DFD4F3183208340913301509130
:101AF00034016091350170913601940123533D4FBB
:101B0000F90180819181A281B381481759076A0741
:101B10007B0780F4FFE28F1AFDEF9F0AF4018081BA
:101B20009181A281B3810196A11DB11D8083918312
:101B3000A283B383D9014D935D936D937C931397E7
:101B40008F2D26960FB6F894DEBF0FBECDBFDF9166
:101B5000CF911F910F91FF90EF90DF90CF90BF90AA
:101B6000AF909F908F9008959D7F4DCF3E7F3183A2
:101B7000208358CF8F929F92AF92BF92CF92DF92E5
:101B8000EF92FF920F931F93CF93DF93EC0169E7DE
:101B900072E085E494E0A5D969E472E085E494E01C
:101BA000A0D96DE172E085E494E09BD96DE072E02C
:101BB00085E494E096D97E018EEEE81A8EEFF80A5D
:101BC00060E0C70197D322E0462F572FBC0185E480
:101BD00094E0B1D860E285E494E00E94AA0561E057
:101BE000C70188D322E0462F572FBC0185E494E03B
:101BF000A2D860E285E494E00E94AA0562E0C701F1
:101C000079D322E0462F572FBC0185E494E093D886
:101C10006DEF71E085E494E064D9FE01E759FF4F70
:101C200040815181628173812AE085E494E025D965
:101C300067EF71E085E494E054D9FE01E359FF4F6A
:101C4000608171814AE085E494E012D966EE71E02A
:101C500085E494E046D9FE01E159FF4F408151816E
:101C6000628173812AE085E494E03AD960EE71E004
:101C700085E494E036D9FE01ED58FF4F6081718113
:101C80004AE085E494E026D968ED71E085E494E0CB
:101C900028D962ED71E085E494E023D9C7016AD1C7
:101CA00022E0462F572FBC0185E494E044D86EEB28
:101CB00071E085E494E015D9FE01EB58FF4F4081B7
:101CC0005181628173812AE085E494E0D6D86BEA81
:101CD00071E085E494E005D96E01E2EBCE0ED11CF3
:101CE00088248394912C33E0A32EB12CF60101912A
:101CF0006F0110E0F8017596EE0FFF1FEC0FFD1F4E
:101D0000E956FF4F608171814AE085E494E0B0D8E4
:101D100067EF71E085E494E0E4D8F8013A96EE0FBD
:101D2000FF1FEC0FFD1FEB59FF4F608171814AE0EF
:101D300085E494E09DD864EA71E085E494E0D1D82C
:101D4000C401B5010E943120892B29F461EA71E0B8
:101D500085E494E0C6D8FFEF8F1A9F0A80E18816C9
:101D6000910409F0C3CF60E971E085E494E0B9D84B
:101D7000C70194D2BC014AE085E494E079D867E8D1
:101D800071E085E494E0ADD8C70196D2BC014AE089
:101D900085E494E06DD86EE771E085E494E0A1D825
:101DA000C7016ED2BC014AE085E494E061D863E7E4
:101DB00071E085E494E095D8C70162D28C01C70137
:101DC0006DD2B801681B790B4AE085E494E050D8E5
:101DD00061E671E085E494E084D8FE01E855FF4FA8
:101DE0004AE0608185E494E00E9495066FE471E02A
:101DF00085E494E076D8FE01E755FF4F4AE0608124
:101E000085E494E00E9495066DE371E085E494E03A
:101E100068D8FE01E655FF4F4AE0608185E494E012
:101E20000E9495066BE271E085E494E05AD8FE01C9
:101E3000E555FF4F4AE0608185E494E00E949506F5
:101E400069E171E085E494E04CD8FE01E455FF4F70
:101E50004AE0608185E494E00E94950667E071E0C5
:101E600085E494E03ED8FE01E355FF4F4AE06081EF
:101E700085E494E00E94950660EF70E085E494E0CC
:101E800030D8FE01E155FF4F4AE0608185E494E0DF
:101E90000E94950669ED70E085E494E022D8FE0189
:101EA000E055FF4F4AE0608185E494E00E9495068A
:101EB00062EC70E085E494E014D8CF54DF4F4AE040
:101EC000688185E494E00E94950661EA71E085E40A
:101ED00094E007D8C701DF91CF911F910F91FF9038
:101EE000EF90DF90CF90BF90AF909F908F900C9429
:101EF0003B1EEF92FF920F931F93CF93DF937C01D2
:101F000010929D0508E010E0C0E8D0E0C7018C23E6
:101F10009D236EE071E08C179D0711F46CE071E079
:101F20008DE995E00E943C23D595C7950150110994
:101F300069F78DE995E0DF91CF911F910F91FF90A7
:101F4000EF900895862798E027E0382F880F37FD17
:101F500082279150D1F70895FC01718360835383E8
:101F60004283358324831686178613861286158648
:101F700014860895EF92FF920F931F93CF93DF93F0
:101F800000D000D0CDB7DEB789839A83A981BA810A
:101F90005B966D917D918D919C915E970E94B12190
:101FA0007B018C01A981BA81ED91FC9162817381E1
:101FB000848195810E94B1219B01AC01E982FA8262
:101FC0000B831C8369817A818B819C810E941621FD
:101FD00020E030E048EC52E469837A838B839C8371
:101FE00069817A818B819C810E94A62269837A8390
:101FF0008B839C8369817A818B819C810F900F9068
:102000000F900F90DF91CF911F910F91FF90EF9064
:1020100008956F927F928F929F92AF92BF92CF92CC
:10202000DF92EF92FF920F931F93CF93DF93CDB781
:10203000DEB72E970FB6F894DEBF0FBECDBF3C01C2
:10204000DB016536710560F5FC0180819181FC0141
:1020500022813381448155810E94A12024E630E011
:1020600040E050E00E946620D3015B962D933D93A3
:102070004D935C935E972E960FB6F894DEBF0FBE1D
:10208000CDBFDF91CF911F910F91FF90EF90DF9027
:10209000CF90BF90AF909F908F907F906F9008955A
:1020A000DC011296ED91FC91238130E050E040E09C
:1020B00084819581A681B78189839A83AB83BC8310
:1020C000BC01CD010E944420C901D3015B961D9241
:1020D0001D921D921C925E9750968D909C90F401DB
:1020E00010E000E0A190B1908A159B0508F4B2C001
:1020F000D301ED91FC9182819381A481B5818D837F
:102100009E83AF83B8870115110531F4F301838FE6
:10211000948FA58FB68FAFCFC901B0E0A0E08983BF
:102120009A83AB83BC83B901CD010E94AF216B01BF
:102130007C01950150E040E029833A834B835C8326
:10214000CA01B5010E94AF219B01AC01C982DA82AC
:10215000EB82FC8269817A818B819C810E94AD2017
:102160006B017C01F801E150F048EE0FFF1FE80D14
:10217000F91D808191818A199B099C0150E040E002
:1021800029833A834B835C83CA01B9010E94AF2142
:102190009B01AC01C982DA82EB82FC8269817A817F
:1021A0008B819C810E9416216B017C01C801110F5B
:1021B000AA0BBB0B89839A83AB83BC83BC01CD0183
:1021C0000E94B1219B01AC0160E070E080EA91E4E3
:1021D0000E94AD209B01AC01C982DA82EB82FC82B5
:1021E00069817A818B819C810E94AE207B018C0168
:1021F0006D817E818F8198850E94B12120E030E041
:1022000040EA51E469837A838B839C8369817A8174
:102210008B819C810E9416219B01AC01E982FA828C
:102220000B831C8369817A818B819C810E94A62209
:1022300069837A838B839C8369817A818B819C817A
:102240000E947E21D3015B966D937D938D939C9329
:102250005E9711CF0F5F1F4F0531110509F042CF77
:102260000ACFFC01972F752F862F0190F081E02D6A
:10227000468B578B608F918F338F228F642F0895F9
:10228000DC011496ED91FC91878190E04596880FD2
:10229000991FE80FF91F808191810895DC01149640
:1022A000ED91FC91808590E04596880F991FE80F8D
:1022B000F91F808191810895CF93DF9300D000D0E2
:1022C000CDB7DEB7DC011296ED91FC91238130E0B1
:1022D00050E040E084819581A681B781BC01CD01A9
:1022E0000E944420C9010F900F900F900F90DF9132
:1022F000CF910895CF93DF9300D000D0CDB7DEB754
:10230000FC016330A8F58481958170E06C5D7F4F9E
:10231000660F771F680F791FFB01808191819C01F7
:10232000990F440B550B29833A834B835C83CA0175
:10233000B9010E94B12120E030E040E251E469831C
:102340007A838B839C8369817A818B819C810E94B3
:10235000162169837A838B839C8369817A818B813F
:102360009C810F900F900F900F90DF91CF91089567
:1023700063E373E988E893ECECCFFC01A081B181C1
:102380009C964C9150E030E020E08FEF9FE7BA013F
:10239000022E02C0759567950A94E2F760FF0FC0A0
:1023A000A481B581B9016C5D7F4F660F771FA60FC1
:1023B000B71F6D917C91681779070CF4CB012F5FE3
:1023C0003F4F2330310519F70895FC01A081B181F9
:1023D0009C964C9150E030E020E080E090E8BA011B
:1023E000022E02C0759567950A94E2F760FF0FC050
:1023F000A481B581B9016C5D7F4F660F771FA60F71
:10240000B71F6D917C91861797070CF4CB012F5F56
:102410003F4F2330310519F70895AF92BF92CF9205
:10242000DF92EF92FF920F931F93CF93DF9300D031
:1024300000D000D0CDB7DEB76D837E839C0150E025
:1024400040E029833A834B835C83CA01B9010E942F
:10245000AF2121E835E943EC5EE369837A838B831E
:102460009C8369817A818B819C810E94A6226983E9
:102470007A838B839C8369817A818B819C810E9482
:10248000832169837A838B839C83A981BA81CD015F
:10249000B0E0A0E089839A83AB83BC83BC01CD010B
:1024A0000E94AF217B018C0120E030E44CE156E436
:1024B0006983FA828B831C8369817A818B819C81F9
:1024C0000E94A6225B016C019701A80160E070E404
:1024D0008EE495E40E94AD209B01AC01A982BA82F2
:1024E000CB82DC8269817A818B819C810E9416215A
:1024F00069837A838B839C8369817A818B819C81B8
:102500000E9483210E94AF2120E030E44CE156E498
:1025100069837A838B839C8369817A818B819C8197
:102520000E94162169837A838B839C8369817A81D7
:102530008B819C810E9466227B018C014D815E8192
:102540009A0150E040E029833A834B835C83CA01BF
:10255000B9010E94AF219B01AC0160E070E080E80E
:102560009FE30E9416219701A80169837A838B83D8
:102570009C8369817A818B819C810E94A6222FE0B5
:102580003FEC4BE55BE369837A838B839C836981B2
:102590007A818B819C810E94AE209B01AC0160E01E
:1025A00070E080E89FE30E94162123E333E948E8C6
:1025B00053E469837A838B839C8369817A818B81DD
:1025C0009C810E94AD2020E030E040E251E469832C
:1025D0007A838B839C8369817A818B819C810E9421
:1025E000A62269837A838B839C8369817A818B811C
:1025F0009C810E947E21CB0126960FB6F894DEBF07
:102600000FBECDBFDF91CF911F910F91FF90EF9043
:10261000DF90CF90BF90AF900895EF92FF920F930D
:102620001F93CF93DF930F92CDB7DEB78C01E62EC9
:10263000F42ECE0101960E94D61FF801E682F782A1
:1026400060E180E07FDC6E2D7DDC6F2D7BDCF801AE
:102650008087A8014A5F5F4F23E068E0CE010196C2
:102660000E94EB1FCE0101960E94E51F0F90DF91A3
:10267000CF911F910F91FF90EF900895CF93DF932B
:10268000D82FC92F40E064E0C8DF41E064E08D2F1F
:102690009C2FC3DF42E064E08D2F9C2FDF91CF9110
:1026A000BCCF2F923F924F925F926F927F928F9208
:1026B0009F92AF92BF92CF92DF92EF92FF920F93D1
:1026C0001F93CF93DF93CDB7DEB729970FB6F8945A
:1026D000DEBF0FBECDBF8C01DC01CD90DC90119729
:1026E0001296AD90BC901397F60182A9882309F445
:1026F0001FC193968C91939781111AC11496ED90F6
:10270000FC9081A9882329F0D50112968C91823002
:1027100041F1F60145A856A8712C612C2091330196
:10272000309134014091350150913601F701818596
:102730009285A385B485281B390B4A0B5B0B2E832E
:102740003F8348875987CA01B90128EE33E040E04A
:1027500050E00E94442024153505460557050CF429
:10276000E7C0D7011796EC911797F0E07596EE0F3A
:10277000FF1FEE0DFF1D20813181F60183A994A971
:102780008217930708F0D4C018968C9190E0459674
:10279000880F991FE80EF91ED7018D919C91281B77
:1027A000390B83AD8217130608F0C2C0F501108AF9
:1027B000118A128A138A512CF12CE12C9AE2A92E4B
:1027C000B12C9E012F5F3F4F6901F801A481B581B3
:1027D0004D018A0C9B1C712C612CF401619171914B
:1027E0004F01643FF1E07F07E8F11896EC911897EC
:1027F000F0E07596EE0FFF1FEA0FFB1F80819181BD
:102800009B01281B390BC901F80120813181F90195
:1028100023AD2817190630F5862D90E09601280F74
:10282000391F0097D1F01C01F1E02F1A3108F9018E
:102830004290AF01F701E40DF11D7596EE0FFF1FF9
:10284000EA0FFB1F0190F081E02DE617F70728F44F
:10285000F90140829A01C101E4CF8C0D9D1DFC015C
:10286000708263947394F5E07F12B7CFF60150E065
:1028700040E08E2F8C198615E0F4819121E030E044
:1028800002C0220F331F8A95E2F7C901842B952BD2
:10289000BC01660F771F642375239A01220F331F33
:1028A00028233923262B372B232B09F0CA01AC010F
:1028B000E0CFD8011296ED91FC913A010E2C02C0A6
:1028C000660C771C0A94E2F7912C812C80899189FF
:1028D000A289B38986299729A829B929808B918B48
:1028E000A28BB38B5394652DC80197DEBAE0AB0E73
:1028F000B11CE5E0EE0EF11CF3E05F1266CF299605
:102900000FB6F894DEBF0FBECDBFDF91CF911F9100
:102910000F91FF90EF90DF90CF90BF90AF909F907E
:102920008F907F906F905F904F903F902F90089581
:10293000F50180899189A289B389892B8A2B8B2BF8
:10294000F1F240E061E0C80168DE40E062E0C80109
:1029500064DE40E063E0C80160DED8011296ED91CC
:10296000FC91108A118A128A138AC9CFCF92DF9202
:10297000EF92FF920F931F93CF93DF9300D000D07D
:102980000F92CDB7DEB78C01942F852FAB01D80104
:10299000ED91FC91928783876487558737872687D7
:1029A0001D82C5A4D6A4E7A4F0A8292F382FC701FB
:1029B000B6010E940E2069837A838B839C8320E476
:1029C00032E44FE050E00E944420E8E2F1E087E08A
:1029D0009291291780F187708D838D8188618D8315
:1029E000482F66E0C80119DEAD81A770EA2FF0E03C
:1029F000E05EFE4FA081B0E020E432E44FE050E022
:102A00000E949720D801ED91FC9125A536A547A5F8
:102A100050A90E944420CA01B9010F900F900F9055
:102A20000F900F90DF91CF911F910F91FF90EF903A
:102A3000DF90CF900895815059F6CFCFCF92DF929B
:102A4000EF92FF920F931F93CF93DF9300D000D0AC
:102A50000F92CDB7DEB78C01942F852FAB01D80133
:102A6000ED91FC91908B818B628B538B358B248BFA
:102A70001D82C5A4D6A4E7A4F0A8292F382FC7012A
:102A8000B6010E940E2069837A838B839C8320E4A5
:102A900032E44FE050E00E944420E0E2F1E08FE0B9
:102AA0009291291798F18F709D81907F982B9D832B
:102AB000AD81A067AD834A2F67E0C801AEDDBD815F
:102AC000BF70EB2FF0E0E05FFE4FA081B0E020E4AC
:102AD00032E44FE050E00E949720D801ED91FC9144
:102AE00025A536A547A550A90E944420CA01B901D1
:102AF0000F900F900F900F900F90DF91CF911F913B
:102B00000F91FF90EF90DF90CF900895815041F6A4
:102B1000CFCFCF92DF92FF920F931F93CF93DF938C
:102B20000F92CDB7DEB78C01F62ECE0101960E9432
:102B3000D61FF801F6826801F6E0CF0ED11C21E025
:102B4000A60168E0CE0101960E94EB1F22E0A601DB
:102B500068E0CE0101960E94FC1FF801F68061E159
:102B600080E0F0D96F2DEED9F80197819813EECF60
:102B7000CE0101960E94E51F8F2D0F90DF91CF911E
:102B80001F910F91FF90DF90CF9008951F93CF93E7
:102B9000DF93EC01EA81FB8182E3DF011D928A95DC
:102BA000E9F7EA81FB8181E0808349E16BE0CE01B6
:102BB00034DD6BE0CE01ADDF893151F0BFED23E9AB
:102BC00084E0B15020408040E1F700C00000EDCF2C
:102BD00048E164E0CE0121DD40E465E0CE011DDD89
:102BE00040E061E0CE0119DD40E062E0CE0115DD9C
:102BF00040E063E0CE0111DD61E5CE018ADFEC81CA
:102C0000FD81828360E5CE0184DF182F69E5CE0166
:102C100080DFEC81FD81212F30E0220F331F2871EE
:102C2000332790E045E0959587954A95E1F7282B65
:102C3000392B23593E4F31832083DF91CF911F9150
:102C40000895CF93DF93EC01609570958A859B85FD
:102C5000682379237B876A878E8581110CC0672B57
:102C600051F465E0CE0155DF482F416065E0CE01AB
:102C7000D4DC81E08E87DF91CF910895CF93DF93ED
:102C8000EC018A859B85682B792B7B876A878E85EB
:102C9000882359F0672B49F065E0CE013ADF482FD1
:102CA0004E7F65E0CE01B9DC1E86DF91CF9108959D
:102CB000CF93DF93EC01609570958C859D8568239B
:102CC00079237D876C878F8581110CC0672B51F428
:102CD00065E0CE011EDF482F426065E0CE019DDC3D
:102CE00081E08F87DF91CF910895CF93DF93EC013F
:102CF0008BA185FF28C0EC81FD81E25BFF4F8091B5
:102D0000330190913401A0913501B0913601408199
:102D1000518162817381841B950BA60BB70B893B94
:102D20009B40A105B10578F040E260E0CE0175DC82
:102D300061E070E0CE0185DF61E070E0CE01B8DFD8
:102D40008BA18F7D8BA38BA184FF0FC040E160E03E
:102D5000CE0163DC62E070E0CE0173DF62E070E020
:102D6000CE01A6DF8BA18F7E8BA38BA183FF1EC01C
:102D7000EC81FD81808590E04596880F991FE80FD2
:102D8000F91FA881B9812081318190968D919C9104
:102D90008217930758F448E060E0CE013EDC64E01F
:102DA00070E0CE0185DF8BA1877F8BA38BA182FF93
:102DB0001EC0EC81FD81878190E04596880F991FA8
:102DC000E80FF91FA881B981208131815C968D912E
:102DD0009C912817390758F444E060E0CE011DDCCF
:102DE00068E070E0CE012DDF8BA18B7F8BA38BA1E0
:102DF00081FF24C0EC81FD81E25AFF4F80913301B5
:102E000090913401A0913501B091360140815181FA
:102E100062817381841B950BA60BB70B813197429E
:102E2000A105B10558F042E060E0CE01F6DB60E1BB
:102E300070E0CE013DDF8BA18D7F8BA38BA180FF46
:102E400024C0EC81FD81EE59FF4F809133019091B8
:102E50003401A0913501B0913601408151816281E8
:102E60007381841B950BA60BB70B81319742A1058B
:102E7000B10558F041E060E0CE01CFDB60E270E0E8
:102E8000CE0116DF8BA18E7F8BA3DF91CF910895AA
:102E9000CF93DF93EC018C859D85682B792B7D8703
:102EA0006C878F85882359F0672B49F065E0CE0148
:102EB00030DE482F4D7F65E0CE01AFDB1F86DF910E
:102EC000CF910895DF92EF92FF920F931F93CF93CC
:102ED000DF9300D000D000D0CDB7DEB78D839E83C6
:102EE0007B018A01AD81BE81ED91FC91119771A3A7
:102EF00060A353A342A368E0CD010BDED82EAD81C1
:102F0000BE811496ED91FC9182819701281B3109B5
:102F100087FD3395A8EEB3E00E94822069837A830F
:102F20008B839C832081318150E040E00E944420CB
:102F300094E056954795379527959A95D1F733277D
:102F40007901BFEFEB1AFB0A4E2D6AE08D819E815D
:102F500064DBED2DEF73DE2E00311105E8F508304E
:102F6000110508F043C091E004301105B0F54D2D76
:102F700068E08D819E8151DBAD81BE8114960D90FC
:102F8000BC91A02DBE83AD83970184E0220F331F37
:102F90008A95E1F730610D90BC91A02D0E948220AE
:102FA00028EE33E040E050E00E944420ED81FE81B5
:102FB0008281082E000C990B820F931F26960FB664
:102FC000F894DEBF0FBECDBFDF91CF911F910F915F
:102FD000FF90EF90DF90089593E09295990F990FED
:102FE000907CFD2DFF73DF2ED92AC1CF92E0F5CF63
:102FF000BF92CF92DF92EF92FF920F931F93CF93E6
:10300000DF9300D000D000D0CDB7DEB78D839E8394
:103010007B018A01AD81BE81ED91FC911197758F85
:10302000648F578F468F68E0CD0173DDB82EAD8178
:10303000BE811496ED91FC9182819701281B310984
:1030400087FD3395A8EEB3E00E94822069837A83DE
:103050008B839C832081318150E040E00E9444209A
:1030600069017A0194E0F694E794D794C7949A950D
:10307000D1F74C2D69E08D819E81CFDABB2DBF7CCD
:10308000BB2E0830110508F045C00430110508F0CA
:1030900049C081E00230110508F03DC04B2D68E0C9
:1030A0008D819E81BADAAD81BE8114960D90BC915E
:1030B000A02DBE83AD8384E0CC0CDD1C8A95E1F7A6
:1030C000B0EFCB22BFE0DB2296013062ED81FE81C2
:1030D000A081B1810E94822028EE33E040E050E0E0
:1030E000D3D7AD81BE8112968C91082E000C990B1E
:1030F000820F931F26960FB6F894DEBF0FBECDBF8A
:10310000DF91CF911F910F91FF90EF90DF90CF90C3
:10311000BF90089583E08295807FEB2DEF7CBE2EDB
:10312000B82ABCCF82E0F7CFCF92DF92EF92FF9226
:103130000F931F93CF93DF930F92CDB7DEB78C0120
:10314000F62ECE01019632D7F801F6826801F6E03C
:10315000CF0ED11C21E0A60168E0CE0101963BD73D
:1031600024E0A60168E0CE01019646D7F801E6808A
:1031700061E180E00E94A20F6E2D0E94A20FF80173
:1031800097819813EDCFF0846F2D80E00E94A20FFD
:10319000F80191859813E4CFCE01019616D79E2DA4
:1031A0008F2D0F90DF91CF911F910F91FF90EF9096
:1031B000DF90CF9008950F931F93CF93DF93EC018F
:1031C000E881F981E65AFF4F008111816CE2ACDFA2
:1031D000B80123D9EC81FD81E85BFF4F91838083A7
:1031E000E881F981E45AFF4F008111816EE2CE013E
:1031F0009BDFB80112D9EC81FD81E65BFF4F918323
:103200008083E881F981E45AFF4F0081118160E3F6
:10321000CE018ADFB80101D9EC81FD81E45BFF4F6B
:1032200091838083DF91CF911F910F9108956F92C9
:103230007F928F929F92AF92BF92CF92DF92FF9236
:103240000F931F93CF93DF9300D000D000D0CDB762
:10325000DEB73C0160E05DDCF82E87FF40C162E331
:10326000C30162DFD30112960D911C911397CD908B
:10327000DC9028EF30E2DC0154D7F60125A536A515
:1032800047A550A923D729833A834B835C83D80170
:103290001A962D933D934D935C931D97CA01B901E6
:1032A00024E030E040E050E011D7F301838D948DAD
:1032B000A58DB68D820F931FA41FB51F838F948F8A
:1032C000A58FB68FF60142815381648175814817BD
:1032D00059076A077B073CF4D3015B964D935D93D6
:1032E0006D937C935E97F301838D948DA58DB68D40
:1032F000B7FF04C0138E148E158E168ED8011A9641
:103300008D919D910D90BC91A02D89839A83AB8363
:10331000BC83B7FF2CC0BC01CD0124E030E040E00D
:1033200050E0D4D6F301878D90A1A1A1B2A1821B58
:10333000930BA40BB50B878F90A3A1A3B2A3F601A7
:103340004281538164817581481759076A077B0759
:1033500074F4D3011496ED91FC91838194810196CC
:1033600094838383F301178E10A211A212A2D801B5
:103370001A964D915D916D917C911D9712968C914D
:103380001297F60187A890ACA1ACB2AC8416950652
:10339000A606B7060CF098C081116BC081E01296AA
:1033A0008C93D3011496ED91FC918091330190910F
:1033B0003401A0913501B091360185879687A787A2
:1033C000B08BD30112960D911C91F80182859385E3
:1033D000A485B585F30120813181AC01BD01B7FF22
:1033E00007C044275527BA01481B590B6A0B7B0BB2
:1033F000F90187A890ACA1ACB2AC84169506A606DC
:10340000B706D8F4B7FD08C081A9882329F0D801F0
:1034100012968C91823089F0F301A481B58140919C
:103420003301509134016091350170913601199644
:103430004D935D936D937C931C978F2D8F7311F437
:10344000D8011C9240E860E0C30126960FB6F894BC
:10345000DEBF0FBECDBFDF91CF911F910F91FF90C7
:10346000DF90CF90BF90AF909F908F907F906F90A4
:10347000D4C8813009F0A5CFD3011496ED91FC9109
:103480008091330190913401A0913501B0913601C2
:103490004585568567857089841B950BA60BB70BF0
:1034A00081369A4EA105B10508F48BCF82E0D80190
:1034B00012968C93D3011496ED91FC91858196819F
:1034C0000196968385837DCF823031F44A30510551
:1034D000610571050CF075CFF801128272CF269646
:1034E0000FB6F894DEBF0FBECDBFDF91CF911F9115
:1034F0000F91FF90DF90CF90BF90AF909F908F90F3
:103500007F906F9008951F93CF93DF93EC01EA8132
:10351000FB818081811104C08BA1882309F4CDC077
:1035200060E0CE01F6DA182F87FF02C0CE017FDE01
:10353000812F8F7309F4C6C08BA185FD23C015FFB1
:1035400021C01F861E868A859B8581609B878A870E
:103550008C859D8581609D878C87EC81FD8181892B
:103560008F5F818BEC81FD81E25BFF4F80913301A6
:1035700090913401A0913501B091360180839183FF
:10358000A283B3838BA184FD23C014FF21C01F86B7
:103590001E868A859B8582609B878A878C859D8510
:1035A00082609D878C87EC81FD8182898F5F828B11
:1035B000EC81FD81EE5AFF4F8091330190913401EF
:1035C000A0913501B091360180839183A283B383AA
:1035D00013FF1BC01F868C859D8584609D878C870B
:1035E000EC81FD8183898F5F838BEC81FD81EA5AB9
:1035F000FF4F8091330190913401A0913501B0913A
:10360000360180839183A283B38312FF1BC01E8681
:103610008A859B8588609B878A87EC81FD81848968
:103620008F5F848BEC81FD81E65AFF4F80913301DF
:1036300090913401A0913501B0913601808391833E
:10364000A283B38311FF1BC01F868C859D8580617B
:103650009D878C87EC81FD8185898F5F858BEC81CF
:10366000FD81E25AFF4F8091330190913401A09186
:103670003501B091360180839183A283B38310FF1B
:103680001BC01F868C859D8580629D878C87EC8101
:10369000FD8186898F5F868BEC81FD81EE59FF4F1E
:1036A0008091330190913401A0913501B0913601A0
:1036B00080839183A283B3831BA38BA1DF91CF91DE
:1036C0001F9108951BA2F9CF2F923F924F925F92C4
:1036D0006F927F928F929F92BF92CF92DF92EF92E2
:1036E000FF920F931F93CF93DF93CDB7DEB7299748
:1036F0000FB6F894DEBF0FBECDBF8C01CE01019690
:1037000055D48CE0D80116968C934801B6E08B0E08
:10371000911C21E0A40168E0CE0101965CD4D8019F
:103720001496ED91FC91159717821496ED91FC91EA
:103730001086F12CE12CB12CE8EE2E2EE3E03E2E8B
:10374000412C512C24E0A40168E0CE01019654D410
:10375000F801D6806D2C712C762C66246624FFE34C
:103760007F2261E180E00E94A20F6D2D0E94A20FD6
:10377000D80117969C911797981322C118966C91AF
:10378000662A80E00E94A20FF8019185981318C163
:103790000280F381E02DC7010A96880F991FE80F78
:1037A000F91F71826082D8011496CD90DC90159734
:1037B000ED91FC91C7014E96880F991FE80FF91FF4
:1037C000D60112968C91129720813181F901E80F70
:1037D000F11D87FDFA95FB83EA830D90BC91A02D26
:1037E000930190D46E837F8388879987A20191018A
:1037F0004BD48A819B81280F391FC7014596AC01A4
:10380000440F551FF601E40FF51F31832083243F39
:103810003140E0F16E2DF601EB0DF11DE38EF80164
:10382000A481B5814A0F5B1F1796EC911797F0E0C2
:103830007596EE0FFF1F6F01CA0EDB1EFA01208185
:103840003181F601408151814217530710F41796D8
:10385000EC92F801A481B581880F991F8A0F9B1FF4
:103860001896EC911897F0E07596EE0FFF1F9F01E8
:103870002A0F3B1FFC0180819181F9012081318158
:103880008217930710F418966C93B394FFEFEF1A16
:10389000FF0A4FE0E416F10409F054CFD801129664
:1038A000ED91FC911397B3821296ED90FC906AE231
:1038B000C8013ADCF70191878087D80114966D9092
:1038C0007C9015971296ED90FC90F701D380D30170
:1038D0002D913C91A085B18515D4DC01CB0122E06E
:1038E000880F991FAA1FBB1F2A95D1F78A839B8334
:1038F000AC83BD83BC01CD0132D520E030E04AE786
:1039000054E46A837B838C839D836A817B818C8171
:103910009D818CD44B01B82EC92ED30112962C91C7
:103920004D2D240390011124C901330FAA0BBB0BA9
:103930008A839B83AC83BD83BC01CD0112D59B01DF
:10394000AC018A829B82BC82CD826A817B818C8120
:103950009D8104D46A837B838C839D836A817B8170
:103960008C819D81D0D4462F572FBC01D70114964E
:103970004D935D936D937C931797D801ED91FC91D6
:1039800020853185D29EC001D39E900D1124B0E0D8
:10399000A0E0F801481759076A077B0760F18289A0
:1039A000803F29F464E670E0C8010E940910D80144
:1039B00052968C9152978F3F19F08F5F52968C934D
:1039C000CE01019602D329960FB6F894DEBF0FBE42
:1039D000CDBFDF91CF911F910F91FF90EF90DF90BE
:1039E000CF90BF909F908F907F906F905F904F90FF
:1039F0003F902F900895128AE3CFCF92DF92EF92FB
:103A0000FF920F931F93CF93DF93EC010E94BD11A0
:103A1000E880F9800A851B8500271170D7019496EC
:103A20002D913C91821793074CF0CE010E94E51135
:103A3000F70126A137A128173907DCF5012BC9F4B6
:103A400060E071E0CE011AD9EC81FD81818D8F5F3C
:103A5000818FEC81FD81E259FF4F8091330190917C
:103A60003401A0913501B091360180839183A28306
:103A7000B383CE010E94BD11E880F9800C851D85BD
:103A800000781127D70198962D913C9182179307C2
:103A9000BCF0CE010E94E511F70122A533A528173D
:103AA000390774F0012B39F160E870E0CE0100D9DC
:103AB00022C0012BF1F260E071E0CE01C2D8D9CF73
:103AC000012BC9F460E870E0CE01E2D9EC81FD8100
:103AD000808D8F5F808FEC81FD81E659FF4F809153
:103AE000330190913401A0913501B091360180836A
:103AF0009183A283B383EA81FB8128813981428546
:103B0000538564857585D9015696CD90DD90ED90ED
:103B1000FC905997C416D506E606F70608F058C07B
:103B20001F8A188E198E1A8E8E85882309F447C035
:103B30008A859B8591FD43C04B895C896D897E890F
:103B40008091330190913401A0913501B0913601FB
:103B5000411551056105710541F48B8B9C8BAD8B33
:103B6000BE8B8181811112C02AC06C017D01C41AF3
:103B7000D50AE60AF70AD9015A964D915C9170E090
:103B800060E04C155D056E057F0558F760E072E05A
:103B9000CE0174D8EC81FD81828D8F5F828FEC81A4
:103BA000FD81EE58FF4F8091330190913401A09137
:103BB0003501B091360180839183A283B383DF9175
:103BC000CF911F910F91FF90EF90DF90CF900895CC
:103BD0001B8A1C8A1D8A1E8A11828A859B8591FFF9
:103BE000EECF4F89588D698D7A8D809133019091F8
:103BF0003401A0913501B09136014115510561059F
:103C0000710529F48F8B988FA98FBA8FD8CF841B19
:103C1000950BA60BB70B81319742A105B10578F240
:103C200060E072E0CE010DD81F8A188E198E1A8EB0
:103C3000EA81FB8181E08183C2CF1F93CF93DF9321
:103C4000D82FC92F60DC182F8D2F9C2F3DDD8D2F95
:103C50009C2FB1DA8D2F9C2F0E945113112319F044
:103C60008D2F9C2F42D88D2F9C2FC7DE812FDF9167
:103C7000CF911F910895CF93DF93EC016EED73E028
:103C800085E494E00E94710760E0CE010E948915EE
:103C900090E00E94790FFC01608185E494E00E942D
:103CA000AA056CEC73E085E494E00E94710761E082
:103CB000CE010E94891590E00E94790FFC0160817D
:103CC00085E494E00E94AA0569EB73E085E494E042
:103CD0000E94710764E0CE010E94891590E00E9465
:103CE000790FFC01608185E494E00E94AA0567EAEF
:103CF00073E085E494E00E94710765E0CE010E94C4
:103D0000891590E00E94790FFC01608185E494E0C0
:103D10000E94AA0564E973E085E494E00E947107BB
:103D200066E0CE010E94891590E00E94790FFC01A7
:103D3000608185E494E00E94AA0562E873E085E46E
:103D400094E00E94710767E0CE010E94891590E01F
:103D50000E94790FFC01608185E494E00E94AA052D
:103D60006FE673E085E494E00E94710768E0CE019D
:103D70000E94891590E00E94790FFC01608185E422
:103D800094E00E94AA056DE573E085E494E00E944A
:103D9000710769E0CE010E94891590E00E94790FB9
:103DA000FC01608185E494E00E94AA056AE473E066
:103DB00085E494E00E9471076AE0CE010E948915B3
:103DC00090E00E94790FFC01608185E494E00E94FC
:103DD000AA0568E373E085E494E00E9471076BE054
:103DE000CE010E94891590E00E94790FFC0160814C
:103DF00085E494E00E94AA0565E273E085E494E01E
:103E00000E94710762E3CE018FD9BC014AE085E4CC
:103E100094E00E94380763E173E085E494E00E9437
:103E200071076AE2CE0180D9BC014AE085E494E0E2
:103E30000E94380760E073E085E494E00E94710717
:103E4000EC81FD81608171814AE085E494E00E940B
:103E500038076EEE72E085E494E00E947107EC8111
:103E6000FD814AE0628185E494E00E9463076BED86
:103E700072E085E494E00E9471076A857B854AE0E0
:103E800085E494E00E94380769EC72E085E494E0F0
:103E90000E9471076C857D854AE085E494E0DF919E
:103EA000CF910C9438078F938FB78F939F93EF9395
:103EB000FF938091B900887F8833C1F1B8F48032D4
:103EC00069F040F4803161F18831A1F1883041F12D
:103ED00084E02DC0883271F18033D1F784E980937A
:103EE000BC008091BC0084FDFCCF40C0803509F44B
:103EF00044C038F4803409F452C0883449F784E966
:103F000016C0883529F7E091A805F091A9058091A0
:103F1000BB0080838091A70581508093A705EFCFD8
:103F20008091A6058093BB0085EC01C085EE80934F
:103F3000BC001CC08091A705882389F08091A7054B
:103F400081508093A705E091A805F091A905CF01C4
:103F500001969093A9058093A8058081E3CF84E919
:103F60008093BC008091BC0084FDFCCFFF91EF9159
:103F70009F918F918FBF8F911895E091A805F09137
:103F8000A905CF0101969093A9058093A80580917A
:103F9000BB0080838091A70581508093A705809105
:103FA000A705823008F0C0CF85E8C1CFE4E6F0E095
:103FB00080818F77808388B1806388B91092B9003F
:103FC00084E38093B80078940895E4E6F0E080817B
:103FD000806880830895660F6093A6055093A905B5
:103FE0004093A8052093A70585EE8093BC0080919F
:103FF000BC0080FDFCCF0895660F61606093A6054C
:104000005093A9054093A8052093A70585EE8093BA
:10401000BC008091BC0080FDFCCF0895DB018F9334
:104020009F9385D0BF91AF91A29F800D911DA39FBB
:10403000900DB29F900D11240895AA1BBB1B51E156
:1040400007C0AA1FBB1FA617B70710F0A61BB70B08
:10405000881F991F5A95A9F780959095BC01CD01AD
:10406000089597FB072E16F4009406D077FD08D02C
:10407000E4DF07FC05D03EF4909581959F4F0895AD
:10408000709561957F4F0895A1E21A2EAA1BBB1B64
:10409000FD010DC0AA1FBB1FEE1FFF1FA217B30714
:1040A000E407F50720F0A21BB30BE40BF50B661F2A
:1040B000771F881F991F1A9469F7609570958095EE
:1040C00090959B01AC01BD01CF010895052E97FB92
:1040D00016F400940FD057FD05D0D6DF07FC02D0B0
:1040E00046F408C050954095309521953F4F4F4F6D
:1040F0005F4F089590958095709561957F4F8F4F94
:104100009F4F0895A29FB001B39FC001A39F700D60
:10411000811D1124911DB29F700D811D1124911DCF
:104120000895F0DFB7FF0895821B930B0895EADF2F
:10413000A59F900DB49F900DA49F800D911D1124FB
:104140000895B7FFF4CFF3DF821B930B0895EE0FB2
:10415000FF1F0590F491E02D09945058BB27AA2722
:104160000ED075C166D130F06BD120F031F49F3F95
:1041700011F41EF45BC10EF4E095E7FB51C1E92F89
:1041800077D180F3BA17620773078407950718F091
:1041900071F49EF58FC10EF4E0950B2EBA2FA02D71
:1041A0000B01B90190010C01CA01A0011124FF27E4
:1041B000591B99F0593F50F4503E68F11A16F040DF
:1041C000A22F232F342F4427585FF3CF46953795DE
:1041D0002795A795F0405395C9F77EF41F16BA0BA3
:1041E000620B730B840BBAF09150A1F0FF0FBB1F51
:1041F000661F771F881FC2F70EC0BA0F621F731F9A
:10420000841F48F4879577956795B795F7959E3FF6
:1042100008F0B3CF9395880F08F09927EE0F979584
:1042200087950895D9D008F481E008950CD00FC186
:1042300007D140F0FED030F021F45F3F19F0F0C01C
:10424000511139C1F3C014D198F39923C9F35523FF
:10425000B1F3951B550BBB27AA2762177307840779
:1042600038F09F5F5F4F220F331F441FAA1FA9F32F
:1042700033D00E2E3AF0E0E830D091505040E69521
:10428000001CCAF729D0FE2F27D0660F771F881F82
:10429000BB1F261737074807AB07B0E809F0BB0B71
:1042A000802DBF01FF2793585F4F2AF09E3F510595
:1042B00068F0B6C000C15F3FECF3983EDCF3869532
:1042C00077956795B795F7959F5FC9F7880F911D0B
:1042D0009695879597F90895E1E0660F771F881FF7
:1042E000BB1F621773078407BA0720F0621B730BAA
:1042F000840BBA0BEE1F88F7E095089504D06894FC
:10430000B111D9C00895BCD088F09F5790F0B92F53
:104310009927B751A0F0D1F0660F771F881F991F1A
:104320001AF0BA95C9F712C0B13081F0C3D0B1E02C
:104330000895C0C0672F782F8827B85F39F0B93F3C
:10434000CCF3869577956795B395D9F73EF490951C
:104350008095709561957F4F8F4F9F4F0895E8949A
:1043600009C097FB3EF490958095709561957F4FBD
:104370008F4F9F4F9923A9F0F92F96E9BB2793956B
:10438000F695879577956795B795F111F8CFFAF47B
:10439000BB0F11F460FF1BC06F5F7F4F8F4F9F4FAC
:1043A00016C0882311F096E911C0772321F09EE80A
:1043B000872F762F05C0662371F096E8862F70E070
:1043C00060E02AF09A95660F771F881FDAF7880F4A
:1043D0009695879597F90895990F0008550FAA0BA0
:1043E000E0E8FEEF16161706E807F907C0F0121608
:1043F0001306E407F50798F0621B730B840B950B0B
:1044000039F40A2661F0232B242B252B21F408955F
:104410000A2609F4A140A6958FEF811D811D0895FC
:1044200097F99F6780E870E060E008959FEF80EC67
:10443000089500240A94161617061806090608950A
:1044400000240A9412161306140605060895092E70
:104450000394000C11F4882352F0BB0F40F4BF2BDF
:1044600011F460FF04C06F5F7F4F8F4F9F4F08951F
:1044700057FD9058440F551F59F05F3F71F0479515
:10448000880F97FB991F61F09F3F79F087950895FA
:10449000121613061406551FF2CF4695F1DF08C019
:1044A000161617061806991FF1CF86957105610536
:1044B00008940895E894BB2766277727CB0197F9DE
:1044C00008950EF0A6C0B2CF6894AACFD9DFC8F382
:1044D0009923D1F3C6F3DF93CF931F930F93FF92EA
:1044E000C92FDD2788232AF02197660F771F881FA1
:1044F000DAF720E030E040E85FEB9FE3883920F016
:10450000803E30F021968F7729DEE8E6F0E003C0A8
:1045100025DEE5E9F0E08BD08B01BE01EC01FB2E3E
:104520006F5771097595771F880B990B1ADF28E172
:1045300032E741E35FE316D0AF2D9801AE01FF9063
:104540000F911F91CF91DF911ADE81CF0BD07FCFDA
:1045500070DF28F075DF18F0952309F061CF66CF82
:104560001124A9CF85DFA0F3959FD1F3950F50E0DB
:10457000551F629FF001729FBB27F00DB11D639F15
:10458000AA27F00DB11DAA1F649F6627B00DA11DBB
:10459000661F829F2227B00DA11D621F739FB00D61
:1045A000A11D621F839FA00D611D221F749F3327D1
:1045B000A00D611D231F849F600D211D822F762F6A
:1045C0006A2F11249F5750408AF0E1F088234AF067
:1045D000EE0FFF1FBB1F661F771F881F91505040B3
:1045E000A9F79E3F510570F01BCF65CF5F3FECF3FD
:1045F000983EDCF3869577956795B795F795E7959F
:104600009F5FC1F7FE2B880F911D9695879597F9AF
:1046100008959F3F31F0915020F4879577956795E5
:10462000B795880F911D9695879597F90895DF9313
:10463000CF931F930F93FF92EF92DF927B018C0138
:10464000689405C0DA2EEF018DDFFE01E894A59194
:104650002591359145915591AEF3EF0190DDFE0125
:104660009701A801DA9479F7DF90EF90FF900F910E
:104670001F91CF91DF910895FB01DC010D90002087
:10468000E9F7119701900D920020E1F70895F89451
:02469000FFCF5A
:104692000000010002803E80000000033100300073
:1046A200080B0E111316191C1F2124272A2C2F3236
:0846B20016212C38434E596417
:1046BC00040000001400000003000000474E5500E9
:1046CC00EB042FC0EB246579571FCDAA6E8BA6B1D6
:0446DC0070C76C0235
:00000001FF
